{
	"contract/MultiSigWallet.sol": {
		"MultiSigWallet": {
			"abi": [
				{
					"inputs": [
						{
							"internalType": "address[]",
							"name": "_owners",
							"type": "address[]"
						},
						{
							"internalType": "uint256",
							"name": "_required",
							"type": "uint256"
						}
					],
					"stateMutability": "nonpayable",
					"type": "constructor"
				},
				{
					"anonymous": false,
					"inputs": [
						{
							"indexed": true,
							"internalType": "address",
							"name": "owner",
							"type": "address"
						},
						{
							"indexed": true,
							"internalType": "uint256",
							"name": "txId",
							"type": "uint256"
						}
					],
					"name": "Approve",
					"type": "event"
				},
				{
					"anonymous": false,
					"inputs": [
						{
							"indexed": true,
							"internalType": "address",
							"name": "sender",
							"type": "address"
						},
						{
							"indexed": false,
							"internalType": "uint256",
							"name": "amount",
							"type": "uint256"
						}
					],
					"name": "Deposit",
					"type": "event"
				},
				{
					"anonymous": false,
					"inputs": [
						{
							"indexed": true,
							"internalType": "uint256",
							"name": "txId",
							"type": "uint256"
						}
					],
					"name": "Execute",
					"type": "event"
				},
				{
					"anonymous": false,
					"inputs": [
						{
							"indexed": true,
							"internalType": "address",
							"name": "owner",
							"type": "address"
						},
						{
							"indexed": true,
							"internalType": "uint256",
							"name": "txId",
							"type": "uint256"
						}
					],
					"name": "Revoke",
					"type": "event"
				},
				{
					"anonymous": false,
					"inputs": [
						{
							"indexed": true,
							"internalType": "uint256",
							"name": "txId",
							"type": "uint256"
						}
					],
					"name": "Submit",
					"type": "event"
				},
				{
					"inputs": [
						{
							"internalType": "uint256",
							"name": "_txId",
							"type": "uint256"
						}
					],
					"name": "approve",
					"outputs": [],
					"stateMutability": "nonpayable",
					"type": "function"
				},
				{
					"inputs": [
						{
							"internalType": "uint256",
							"name": "",
							"type": "uint256"
						},
						{
							"internalType": "address",
							"name": "",
							"type": "address"
						}
					],
					"name": "approved",
					"outputs": [
						{
							"internalType": "bool",
							"name": "",
							"type": "bool"
						}
					],
					"stateMutability": "view",
					"type": "function"
				},
				{
					"inputs": [
						{
							"internalType": "uint256",
							"name": "_txId",
							"type": "uint256"
						}
					],
					"name": "execute",
					"outputs": [],
					"stateMutability": "nonpayable",
					"type": "function"
				},
				{
					"inputs": [
						{
							"internalType": "uint256",
							"name": "_txId",
							"type": "uint256"
						}
					],
					"name": "getApproveCount",
					"outputs": [
						{
							"internalType": "uint256",
							"name": "count",
							"type": "uint256"
						}
					],
					"stateMutability": "view",
					"type": "function"
				},
				{
					"inputs": [],
					"name": "getBalance",
					"outputs": [
						{
							"internalType": "uint256",
							"name": "",
							"type": "uint256"
						}
					],
					"stateMutability": "view",
					"type": "function"
				},
				{
					"inputs": [
						{
							"internalType": "address",
							"name": "",
							"type": "address"
						}
					],
					"name": "isOwner",
					"outputs": [
						{
							"internalType": "bool",
							"name": "",
							"type": "bool"
						}
					],
					"stateMutability": "view",
					"type": "function"
				},
				{
					"inputs": [
						{
							"internalType": "uint256",
							"name": "",
							"type": "uint256"
						}
					],
					"name": "owners",
					"outputs": [
						{
							"internalType": "address",
							"name": "",
							"type": "address"
						}
					],
					"stateMutability": "view",
					"type": "function"
				},
				{
					"inputs": [],
					"name": "required",
					"outputs": [
						{
							"internalType": "uint256",
							"name": "",
							"type": "uint256"
						}
					],
					"stateMutability": "view",
					"type": "function"
				},
				{
					"inputs": [
						{
							"internalType": "uint256",
							"name": "_txId",
							"type": "uint256"
						}
					],
					"name": "revoke",
					"outputs": [],
					"stateMutability": "nonpayable",
					"type": "function"
				},
				{
					"inputs": [
						{
							"internalType": "address",
							"name": "_to",
							"type": "address"
						},
						{
							"internalType": "uint256",
							"name": "_value",
							"type": "uint256"
						},
						{
							"internalType": "bytes",
							"name": "_data",
							"type": "bytes"
						}
					],
					"name": "submit",
					"outputs": [
						{
							"internalType": "uint256",
							"name": "",
							"type": "uint256"
						}
					],
					"stateMutability": "nonpayable",
					"type": "function"
				},
				{
					"inputs": [
						{
							"internalType": "uint256",
							"name": "",
							"type": "uint256"
						}
					],
					"name": "transactions",
					"outputs": [
						{
							"internalType": "address",
							"name": "to",
							"type": "address"
						},
						{
							"internalType": "uint256",
							"name": "value",
							"type": "uint256"
						},
						{
							"internalType": "bytes",
							"name": "data",
							"type": "bytes"
						},
						{
							"internalType": "bool",
							"name": "executed",
							"type": "bool"
						}
					],
					"stateMutability": "view",
					"type": "function"
				},
				{
					"stateMutability": "payable",
					"type": "receive"
				}
			],
			"devdoc": {
				"kind": "dev",
				"methods": {},
				"version": 1
			},
			"evm": {
				"assembly": "    /* \"contract/MultiSigWallet.sol\":88:5045  contract MultiSigWallet{... */\n  mstore(0x40, 0x80)\n    /* \"contract/MultiSigWallet.sol\":2075:2752  constructor(address[] memory _owners, uint256 _required){... */\n  callvalue\n  dup1\n  iszero\n  tag_1\n  jumpi\n  revert(0x00, 0x00)\ntag_1:\n  pop\n  mload(0x40)\n  sub(codesize, bytecodeSize)\n  dup1\n  bytecodeSize\n  dup4\n  codecopy\n  dup2\n  dup2\n  add\n  0x40\n  mstore\n  dup2\n  add\n  swap1\n  tag_2\n  swap2\n  swap1\n  tag_3\n  jump\t// in\ntag_2:\n    /* \"contract/MultiSigWallet.sol\":2167:2168  0 */\n  0x00\n    /* \"contract/MultiSigWallet.sol\":2150:2157  _owners */\n  dup3\n    /* \"contract/MultiSigWallet.sol\":2150:2164  _owners.length */\n  mload\n    /* \"contract/MultiSigWallet.sol\":2150:2168  _owners.length > 0 */\n  gt\n    /* \"contract/MultiSigWallet.sol\":2142:2187  require(_owners.length > 0, \"owner required\") */\n  tag_6\n  jumpi\n  mload(0x40)\n  0x08c379a000000000000000000000000000000000000000000000000000000000\n  dup2\n  mstore\n  0x04\n  add\n  tag_7\n  swap1\n  tag_8\n  jump\t// in\ntag_7:\n  mload(0x40)\n  dup1\n  swap2\n  sub\n  swap1\n  revert\ntag_6:\n    /* \"contract/MultiSigWallet.sol\":2218:2219  0 */\n  0x00\n    /* \"contract/MultiSigWallet.sol\":2206:2215  _required */\n  dup2\n    /* \"contract/MultiSigWallet.sol\":2206:2219  _required > 0 */\n  gt\n    /* \"contract/MultiSigWallet.sol\":2206:2249  _required > 0 && _required <= owners.length */\n  dup1\n  iszero\n  tag_9\n  jumpi\n  pop\n    /* \"contract/MultiSigWallet.sol\":2236:2242  owners */\n  0x00\n    /* \"contract/MultiSigWallet.sol\":2236:2249  owners.length */\n  dup1\n  sload\n  swap1\n  pop\n    /* \"contract/MultiSigWallet.sol\":2223:2232  _required */\n  dup2\n    /* \"contract/MultiSigWallet.sol\":2223:2249  _required <= owners.length */\n  gt\n  iszero\n    /* \"contract/MultiSigWallet.sol\":2206:2249  _required > 0 && _required <= owners.length */\ntag_9:\n    /* \"contract/MultiSigWallet.sol\":2198:2286  require(_required > 0 && _required <= owners.length, \"ivalid required number of owners\") */\n  tag_10\n  jumpi\n  mload(0x40)\n  0x08c379a000000000000000000000000000000000000000000000000000000000\n  dup2\n  mstore\n  0x04\n  add\n  tag_11\n  swap1\n  tag_12\n  jump\t// in\ntag_11:\n  mload(0x40)\n  dup1\n  swap2\n  sub\n  swap1\n  revert\ntag_10:\n    /* \"contract/MultiSigWallet.sol\":2303:2312  uint256 i */\n  0x00\n    /* \"contract/MultiSigWallet.sol\":2315:2316  0 */\n  0x00\n    /* \"contract/MultiSigWallet.sol\":2303:2316  uint256 i = 0 */\n  swap1\n  pop\n    /* \"contract/MultiSigWallet.sol\":2299:2681  for(uint256 i = 0; i < _owners.length; i ++){... */\ntag_13:\n    /* \"contract/MultiSigWallet.sol\":2322:2329  _owners */\n  dup3\n    /* \"contract/MultiSigWallet.sol\":2322:2336  _owners.length */\n  mload\n    /* \"contract/MultiSigWallet.sol\":2318:2319  i */\n  dup2\n    /* \"contract/MultiSigWallet.sol\":2318:2336  i < _owners.length */\n  lt\n    /* \"contract/MultiSigWallet.sol\":2299:2681  for(uint256 i = 0; i < _owners.length; i ++){... */\n  iszero\n  tag_14\n  jumpi\n    /* \"contract/MultiSigWallet.sol\":2358:2371  address owner */\n  0x00\n    /* \"contract/MultiSigWallet.sol\":2374:2381  _owners */\n  dup4\n    /* \"contract/MultiSigWallet.sol\":2382:2383  i */\n  dup3\n    /* \"contract/MultiSigWallet.sol\":2374:2384  _owners[i] */\n  dup2\n  mload\n  dup2\n  lt\n  tag_16\n  jumpi\n  tag_17\n  tag_18\n  jump\t// in\ntag_17:\ntag_16:\n  0x20\n  mul\n  0x20\n  add\n  add\n  mload\n    /* \"contract/MultiSigWallet.sol\":2358:2384  address owner = _owners[i] */\n  swap1\n  pop\n    /* \"contract/MultiSigWallet.sol\":2473:2474  0 */\n  0x00\n    /* \"contract/MultiSigWallet.sol\":2456:2475  owner != address(0) */\n  0xffffffffffffffffffffffffffffffffffffffff\n  and\n    /* \"contract/MultiSigWallet.sol\":2456:2461  owner */\n  dup2\n    /* \"contract/MultiSigWallet.sol\":2456:2475  owner != address(0) */\n  0xffffffffffffffffffffffffffffffffffffffff\n  and\n  sub\n    /* \"contract/MultiSigWallet.sol\":2448:2493  require(owner != address(0), \"invalid owner\") */\n  tag_19\n  jumpi\n  mload(0x40)\n  0x08c379a000000000000000000000000000000000000000000000000000000000\n  dup2\n  mstore\n  0x04\n  add\n  tag_20\n  swap1\n  tag_21\n  jump\t// in\ntag_20:\n  mload(0x40)\n  dup1\n  swap2\n  sub\n  swap1\n  revert\ntag_19:\n    /* \"contract/MultiSigWallet.sol\":2560:2567  isOwner */\n  0x01\n    /* \"contract/MultiSigWallet.sol\":2560:2574  isOwner[owner] */\n  0x00\n    /* \"contract/MultiSigWallet.sol\":2568:2573  owner */\n  dup3\n    /* \"contract/MultiSigWallet.sol\":2560:2574  isOwner[owner] */\n  0xffffffffffffffffffffffffffffffffffffffff\n  and\n  0xffffffffffffffffffffffffffffffffffffffff\n  and\n  dup2\n  mstore\n  0x20\n  add\n  swap1\n  dup2\n  mstore\n  0x20\n  add\n  0x00\n  keccak256\n  0x00\n  swap1\n  sload\n  swap1\n  0x0100\n  exp\n  swap1\n  div\n  0xff\n  and\n    /* \"contract/MultiSigWallet.sol\":2559:2574  !isOwner[owner] */\n  iszero\n    /* \"contract/MultiSigWallet.sol\":2551:2598  require(!isOwner[owner], \"owner is not unique\") */\n  tag_22\n  jumpi\n  mload(0x40)\n  0x08c379a000000000000000000000000000000000000000000000000000000000\n  dup2\n  mstore\n  0x04\n  add\n  tag_23\n  swap1\n  tag_24\n  jump\t// in\ntag_23:\n  mload(0x40)\n  dup1\n  swap2\n  sub\n  swap1\n  revert\ntag_22:\n    /* \"contract/MultiSigWallet.sol\":2632:2636  true */\n  0x01\n    /* \"contract/MultiSigWallet.sol\":2615:2622  isOwner */\n  dup1\n    /* \"contract/MultiSigWallet.sol\":2615:2629  isOwner[owner] */\n  0x00\n    /* \"contract/MultiSigWallet.sol\":2623:2628  owner */\n  dup4\n    /* \"contract/MultiSigWallet.sol\":2615:2629  isOwner[owner] */\n  0xffffffffffffffffffffffffffffffffffffffff\n  and\n  0xffffffffffffffffffffffffffffffffffffffff\n  and\n  dup2\n  mstore\n  0x20\n  add\n  swap1\n  dup2\n  mstore\n  0x20\n  add\n  0x00\n  keccak256\n  0x00\n    /* \"contract/MultiSigWallet.sol\":2615:2636  isOwner[owner] = true */\n  0x0100\n  exp\n  dup2\n  sload\n  dup2\n  0xff\n  mul\n  not\n  and\n  swap1\n  dup4\n  iszero\n  iszero\n  mul\n  or\n  swap1\n  sstore\n  pop\n    /* \"contract/MultiSigWallet.sol\":2651:2657  owners */\n  0x00\n    /* \"contract/MultiSigWallet.sol\":2663:2668  owner */\n  dup2\n    /* \"contract/MultiSigWallet.sol\":2651:2669  owners.push(owner) */\n  swap1\n  dup1\n  0x01\n  dup2\n  sload\n  add\n  dup1\n  dup3\n  sstore\n  dup1\n  swap2\n  pop\n  pop\n  0x01\n  swap1\n  sub\n  swap1\n  0x00\n  mstore\n  keccak256(0x00, 0x20)\n  add\n  0x00\n  swap1\n  swap2\n  swap1\n  swap2\n  swap1\n  swap2\n  0x0100\n  exp\n  dup2\n  sload\n  dup2\n  0xffffffffffffffffffffffffffffffffffffffff\n  mul\n  not\n  and\n  swap1\n  dup4\n  0xffffffffffffffffffffffffffffffffffffffff\n  and\n  mul\n  or\n  swap1\n  sstore\n  pop\n    /* \"contract/MultiSigWallet.sol\":2343:2681  {... */\n  pop\n    /* \"contract/MultiSigWallet.sol\":2338:2342  i ++ */\n  dup1\n  dup1\n  0x01\n  add\n  swap2\n  pop\n  pop\n    /* \"contract/MultiSigWallet.sol\":2299:2681  for(uint256 i = 0; i < _owners.length; i ++){... */\n  jump(tag_13)\ntag_14:\n  pop\n    /* \"contract/MultiSigWallet.sol\":2735:2744  _required */\n  dup1\n    /* \"contract/MultiSigWallet.sol\":2724:2732  required */\n  0x02\n    /* \"contract/MultiSigWallet.sol\":2724:2744  required = _required */\n  dup2\n  swap1\n  sstore\n  pop\n    /* \"contract/MultiSigWallet.sol\":2075:2752  constructor(address[] memory _owners, uint256 _required){... */\n  pop\n  pop\n    /* \"contract/MultiSigWallet.sol\":88:5045  contract MultiSigWallet{... */\n  jump(tag_26)\n    /* \"#utility.yul\":7:82   */\ntag_27:\n    /* \"#utility.yul\":40:46   */\n  0x00\n    /* \"#utility.yul\":73:75   */\n  0x40\n    /* \"#utility.yul\":67:76   */\n  mload\n    /* \"#utility.yul\":57:76   */\n  swap1\n  pop\n    /* \"#utility.yul\":7:82   */\n  swap1\n  jump\t// out\n    /* \"#utility.yul\":88:205   */\ntag_28:\n    /* \"#utility.yul\":197:198   */\n  0x00\n    /* \"#utility.yul\":194:195   */\n  0x00\n    /* \"#utility.yul\":187:199   */\n  revert\n    /* \"#utility.yul\":211:328   */\ntag_29:\n    /* \"#utility.yul\":320:321   */\n  0x00\n    /* \"#utility.yul\":317:318   */\n  0x00\n    /* \"#utility.yul\":310:322   */\n  revert\n    /* \"#utility.yul\":334:451   */\ntag_30:\n    /* \"#utility.yul\":443:444   */\n  0x00\n    /* \"#utility.yul\":440:441   */\n  0x00\n    /* \"#utility.yul\":433:445   */\n  revert\n    /* \"#utility.yul\":457:559   */\ntag_31:\n    /* \"#utility.yul\":498:504   */\n  0x00\n    /* \"#utility.yul\":549:551   */\n  0x1f\n    /* \"#utility.yul\":545:552   */\n  not\n    /* \"#utility.yul\":540:542   */\n  0x1f\n    /* \"#utility.yul\":533:538   */\n  dup4\n    /* \"#utility.yul\":529:543   */\n  add\n    /* \"#utility.yul\":525:553   */\n  and\n    /* \"#utility.yul\":515:553   */\n  swap1\n  pop\n    /* \"#utility.yul\":457:559   */\n  swap2\n  swap1\n  pop\n  jump\t// out\n    /* \"#utility.yul\":565:745   */\ntag_32:\n    /* \"#utility.yul\":613:690   */\n  0x4e487b7100000000000000000000000000000000000000000000000000000000\n    /* \"#utility.yul\":610:611   */\n  0x00\n    /* \"#utility.yul\":603:691   */\n  mstore\n    /* \"#utility.yul\":710:714   */\n  0x41\n    /* \"#utility.yul\":707:708   */\n  0x04\n    /* \"#utility.yul\":700:715   */\n  mstore\n    /* \"#utility.yul\":734:738   */\n  0x24\n    /* \"#utility.yul\":731:732   */\n  0x00\n    /* \"#utility.yul\":724:739   */\n  revert\n    /* \"#utility.yul\":751:1032   */\ntag_33:\n    /* \"#utility.yul\":834:861   */\n  tag_63\n    /* \"#utility.yul\":856:860   */\n  dup3\n    /* \"#utility.yul\":834:861   */\n  tag_31\n  jump\t// in\ntag_63:\n    /* \"#utility.yul\":826:832   */\n  dup2\n    /* \"#utility.yul\":822:862   */\n  add\n    /* \"#utility.yul\":964:970   */\n  dup2\n    /* \"#utility.yul\":952:962   */\n  dup2\n    /* \"#utility.yul\":949:971   */\n  lt\n    /* \"#utility.yul\":928:946   */\n  0xffffffffffffffff\n    /* \"#utility.yul\":916:926   */\n  dup3\n    /* \"#utility.yul\":913:947   */\n  gt\n    /* \"#utility.yul\":910:972   */\n  or\n    /* \"#utility.yul\":907:995   */\n  iszero\n  tag_64\n  jumpi\n    /* \"#utility.yul\":975:993   */\n  tag_65\n  tag_32\n  jump\t// in\ntag_65:\n    /* \"#utility.yul\":907:995   */\ntag_64:\n    /* \"#utility.yul\":1015:1025   */\n  dup1\n    /* \"#utility.yul\":1011:1013   */\n  0x40\n    /* \"#utility.yul\":1004:1026   */\n  mstore\n    /* \"#utility.yul\":794:1032   */\n  pop\n    /* \"#utility.yul\":751:1032   */\n  pop\n  pop\n  jump\t// out\n    /* \"#utility.yul\":1038:1167   */\ntag_34:\n    /* \"#utility.yul\":1072:1078   */\n  0x00\n    /* \"#utility.yul\":1099:1119   */\n  tag_67\n  tag_27\n  jump\t// in\ntag_67:\n    /* \"#utility.yul\":1089:1119   */\n  swap1\n  pop\n    /* \"#utility.yul\":1128:1161   */\n  tag_68\n    /* \"#utility.yul\":1156:1160   */\n  dup3\n    /* \"#utility.yul\":1148:1154   */\n  dup3\n    /* \"#utility.yul\":1128:1161   */\n  tag_33\n  jump\t// in\ntag_68:\n    /* \"#utility.yul\":1038:1167   */\n  swap2\n  swap1\n  pop\n  jump\t// out\n    /* \"#utility.yul\":1173:1484   */\ntag_35:\n    /* \"#utility.yul\":1250:1254   */\n  0x00\n    /* \"#utility.yul\":1340:1358   */\n  0xffffffffffffffff\n    /* \"#utility.yul\":1332:1338   */\n  dup3\n    /* \"#utility.yul\":1329:1359   */\n  gt\n    /* \"#utility.yul\":1326:1382   */\n  iszero\n  tag_70\n  jumpi\n    /* \"#utility.yul\":1362:1380   */\n  tag_71\n  tag_32\n  jump\t// in\ntag_71:\n    /* \"#utility.yul\":1326:1382   */\ntag_70:\n    /* \"#utility.yul\":1412:1416   */\n  0x20\n    /* \"#utility.yul\":1404:1410   */\n  dup3\n    /* \"#utility.yul\":1400:1417   */\n  mul\n    /* \"#utility.yul\":1392:1417   */\n  swap1\n  pop\n    /* \"#utility.yul\":1472:1476   */\n  0x20\n    /* \"#utility.yul\":1466:1470   */\n  dup2\n    /* \"#utility.yul\":1462:1477   */\n  add\n    /* \"#utility.yul\":1454:1477   */\n  swap1\n  pop\n    /* \"#utility.yul\":1173:1484   */\n  swap2\n  swap1\n  pop\n  jump\t// out\n    /* \"#utility.yul\":1490:1607   */\ntag_36:\n    /* \"#utility.yul\":1599:1600   */\n  0x00\n    /* \"#utility.yul\":1596:1597   */\n  0x00\n    /* \"#utility.yul\":1589:1601   */\n  revert\n    /* \"#utility.yul\":1613:1739   */\ntag_37:\n    /* \"#utility.yul\":1650:1657   */\n  0x00\n    /* \"#utility.yul\":1690:1732   */\n  0xffffffffffffffffffffffffffffffffffffffff\n    /* \"#utility.yul\":1683:1688   */\n  dup3\n    /* \"#utility.yul\":1679:1733   */\n  and\n    /* \"#utility.yul\":1668:1733   */\n  swap1\n  pop\n    /* \"#utility.yul\":1613:1739   */\n  swap2\n  swap1\n  pop\n  jump\t// out\n    /* \"#utility.yul\":1745:1841   */\ntag_38:\n    /* \"#utility.yul\":1782:1789   */\n  0x00\n    /* \"#utility.yul\":1811:1835   */\n  tag_75\n    /* \"#utility.yul\":1829:1834   */\n  dup3\n    /* \"#utility.yul\":1811:1835   */\n  tag_37\n  jump\t// in\ntag_75:\n    /* \"#utility.yul\":1800:1835   */\n  swap1\n  pop\n    /* \"#utility.yul\":1745:1841   */\n  swap2\n  swap1\n  pop\n  jump\t// out\n    /* \"#utility.yul\":1847:1969   */\ntag_39:\n    /* \"#utility.yul\":1920:1944   */\n  tag_77\n    /* \"#utility.yul\":1938:1943   */\n  dup2\n    /* \"#utility.yul\":1920:1944   */\n  tag_38\n  jump\t// in\ntag_77:\n    /* \"#utility.yul\":1913:1918   */\n  dup2\n    /* \"#utility.yul\":1910:1945   */\n  eq\n    /* \"#utility.yul\":1900:1963   */\n  tag_78\n  jumpi\n    /* \"#utility.yul\":1959:1960   */\n  0x00\n    /* \"#utility.yul\":1956:1957   */\n  0x00\n    /* \"#utility.yul\":1949:1961   */\n  revert\n    /* \"#utility.yul\":1900:1963   */\ntag_78:\n    /* \"#utility.yul\":1847:1969   */\n  pop\n  jump\t// out\n    /* \"#utility.yul\":1975:2118   */\ntag_40:\n    /* \"#utility.yul\":2032:2037   */\n  0x00\n    /* \"#utility.yul\":2063:2069   */\n  dup2\n    /* \"#utility.yul\":2057:2070   */\n  mload\n    /* \"#utility.yul\":2048:2070   */\n  swap1\n  pop\n    /* \"#utility.yul\":2079:2112   */\n  tag_80\n    /* \"#utility.yul\":2106:2111   */\n  dup2\n    /* \"#utility.yul\":2079:2112   */\n  tag_39\n  jump\t// in\ntag_80:\n    /* \"#utility.yul\":1975:2118   */\n  swap3\n  swap2\n  pop\n  pop\n  jump\t// out\n    /* \"#utility.yul\":2141:2873   */\ntag_41:\n    /* \"#utility.yul\":2248:2253   */\n  0x00\n    /* \"#utility.yul\":2273:2354   */\n  tag_82\n    /* \"#utility.yul\":2289:2353   */\n  tag_83\n    /* \"#utility.yul\":2346:2352   */\n  dup5\n    /* \"#utility.yul\":2289:2353   */\n  tag_35\n  jump\t// in\ntag_83:\n    /* \"#utility.yul\":2273:2354   */\n  tag_34\n  jump\t// in\ntag_82:\n    /* \"#utility.yul\":2264:2354   */\n  swap1\n  pop\n    /* \"#utility.yul\":2374:2379   */\n  dup1\n    /* \"#utility.yul\":2403:2409   */\n  dup4\n    /* \"#utility.yul\":2396:2401   */\n  dup3\n    /* \"#utility.yul\":2389:2410   */\n  mstore\n    /* \"#utility.yul\":2437:2441   */\n  0x20\n    /* \"#utility.yul\":2430:2435   */\n  dup3\n    /* \"#utility.yul\":2426:2442   */\n  add\n    /* \"#utility.yul\":2419:2442   */\n  swap1\n  pop\n    /* \"#utility.yul\":2490:2494   */\n  0x20\n    /* \"#utility.yul\":2482:2488   */\n  dup5\n    /* \"#utility.yul\":2478:2495   */\n  mul\n    /* \"#utility.yul\":2470:2476   */\n  dup4\n    /* \"#utility.yul\":2466:2496   */\n  add\n    /* \"#utility.yul\":2519:2522   */\n  dup6\n    /* \"#utility.yul\":2511:2517   */\n  dup2\n    /* \"#utility.yul\":2508:2523   */\n  gt\n    /* \"#utility.yul\":2505:2627   */\n  iszero\n  tag_84\n  jumpi\n    /* \"#utility.yul\":2538:2617   */\n  tag_85\n  tag_36\n  jump\t// in\ntag_85:\n    /* \"#utility.yul\":2505:2627   */\ntag_84:\n    /* \"#utility.yul\":2653:2659   */\n  dup4\n    /* \"#utility.yul\":2636:2867   */\ntag_86:\n    /* \"#utility.yul\":2670:2676   */\n  dup2\n    /* \"#utility.yul\":2665:2668   */\n  dup2\n    /* \"#utility.yul\":2662:2677   */\n  lt\n    /* \"#utility.yul\":2636:2867   */\n  iszero\n  tag_88\n  jumpi\n    /* \"#utility.yul\":2745:2748   */\n  dup1\n    /* \"#utility.yul\":2774:2822   */\n  tag_89\n    /* \"#utility.yul\":2818:2821   */\n  dup9\n    /* \"#utility.yul\":2806:2816   */\n  dup3\n    /* \"#utility.yul\":2774:2822   */\n  tag_40\n  jump\t// in\ntag_89:\n    /* \"#utility.yul\":2769:2772   */\n  dup5\n    /* \"#utility.yul\":2762:2823   */\n  mstore\n    /* \"#utility.yul\":2852:2856   */\n  0x20\n    /* \"#utility.yul\":2847:2850   */\n  dup5\n    /* \"#utility.yul\":2843:2857   */\n  add\n    /* \"#utility.yul\":2836:2857   */\n  swap4\n  pop\n    /* \"#utility.yul\":2712:2867   */\n  pop\n    /* \"#utility.yul\":2696:2700   */\n  0x20\n    /* \"#utility.yul\":2691:2694   */\n  dup2\n    /* \"#utility.yul\":2687:2701   */\n  add\n    /* \"#utility.yul\":2680:2701   */\n  swap1\n  pop\n    /* \"#utility.yul\":2636:2867   */\n  jump(tag_86)\ntag_88:\n    /* \"#utility.yul\":2640:2661   */\n  pop\n    /* \"#utility.yul\":2254:2873   */\n  pop\n  pop\n    /* \"#utility.yul\":2141:2873   */\n  swap4\n  swap3\n  pop\n  pop\n  pop\n  jump\t// out\n    /* \"#utility.yul\":2896:3281   */\ntag_42:\n    /* \"#utility.yul\":2978:2983   */\n  0x00\n    /* \"#utility.yul\":3027:3030   */\n  dup3\n    /* \"#utility.yul\":3020:3024   */\n  0x1f\n    /* \"#utility.yul\":3012:3018   */\n  dup4\n    /* \"#utility.yul\":3008:3025   */\n  add\n    /* \"#utility.yul\":3004:3031   */\n  slt\n    /* \"#utility.yul\":2994:3116   */\n  tag_91\n  jumpi\n    /* \"#utility.yul\":3035:3114   */\n  tag_92\n  tag_30\n  jump\t// in\ntag_92:\n    /* \"#utility.yul\":2994:3116   */\ntag_91:\n    /* \"#utility.yul\":3145:3151   */\n  dup2\n    /* \"#utility.yul\":3139:3152   */\n  mload\n    /* \"#utility.yul\":3170:3275   */\n  tag_93\n    /* \"#utility.yul\":3271:3274   */\n  dup5\n    /* \"#utility.yul\":3263:3269   */\n  dup3\n    /* \"#utility.yul\":3256:3260   */\n  0x20\n    /* \"#utility.yul\":3248:3254   */\n  dup7\n    /* \"#utility.yul\":3244:3261   */\n  add\n    /* \"#utility.yul\":3170:3275   */\n  tag_41\n  jump\t// in\ntag_93:\n    /* \"#utility.yul\":3161:3275   */\n  swap2\n  pop\n    /* \"#utility.yul\":2984:3281   */\n  pop\n    /* \"#utility.yul\":2896:3281   */\n  swap3\n  swap2\n  pop\n  pop\n  jump\t// out\n    /* \"#utility.yul\":3287:3364   */\ntag_43:\n    /* \"#utility.yul\":3324:3331   */\n  0x00\n    /* \"#utility.yul\":3353:3358   */\n  dup2\n    /* \"#utility.yul\":3342:3358   */\n  swap1\n  pop\n    /* \"#utility.yul\":3287:3364   */\n  swap2\n  swap1\n  pop\n  jump\t// out\n    /* \"#utility.yul\":3370:3492   */\ntag_44:\n    /* \"#utility.yul\":3443:3467   */\n  tag_96\n    /* \"#utility.yul\":3461:3466   */\n  dup2\n    /* \"#utility.yul\":3443:3467   */\n  tag_43\n  jump\t// in\ntag_96:\n    /* \"#utility.yul\":3436:3441   */\n  dup2\n    /* \"#utility.yul\":3433:3468   */\n  eq\n    /* \"#utility.yul\":3423:3486   */\n  tag_97\n  jumpi\n    /* \"#utility.yul\":3482:3483   */\n  0x00\n    /* \"#utility.yul\":3479:3480   */\n  0x00\n    /* \"#utility.yul\":3472:3484   */\n  revert\n    /* \"#utility.yul\":3423:3486   */\ntag_97:\n    /* \"#utility.yul\":3370:3492   */\n  pop\n  jump\t// out\n    /* \"#utility.yul\":3498:3641   */\ntag_45:\n    /* \"#utility.yul\":3555:3560   */\n  0x00\n    /* \"#utility.yul\":3586:3592   */\n  dup2\n    /* \"#utility.yul\":3580:3593   */\n  mload\n    /* \"#utility.yul\":3571:3593   */\n  swap1\n  pop\n    /* \"#utility.yul\":3602:3635   */\n  tag_99\n    /* \"#utility.yul\":3629:3634   */\n  dup2\n    /* \"#utility.yul\":3602:3635   */\n  tag_44\n  jump\t// in\ntag_99:\n    /* \"#utility.yul\":3498:3641   */\n  swap3\n  swap2\n  pop\n  pop\n  jump\t// out\n    /* \"#utility.yul\":3647:4357   */\ntag_3:\n    /* \"#utility.yul\":3751:3757   */\n  0x00\n    /* \"#utility.yul\":3759:3765   */\n  0x00\n    /* \"#utility.yul\":3808:3810   */\n  0x40\n    /* \"#utility.yul\":3796:3805   */\n  dup4\n    /* \"#utility.yul\":3787:3794   */\n  dup6\n    /* \"#utility.yul\":3783:3806   */\n  sub\n    /* \"#utility.yul\":3779:3811   */\n  slt\n    /* \"#utility.yul\":3776:3895   */\n  iszero\n  tag_101\n  jumpi\n    /* \"#utility.yul\":3814:3893   */\n  tag_102\n  tag_28\n  jump\t// in\ntag_102:\n    /* \"#utility.yul\":3776:3895   */\ntag_101:\n    /* \"#utility.yul\":3955:3956   */\n  0x00\n    /* \"#utility.yul\":3944:3953   */\n  dup4\n    /* \"#utility.yul\":3940:3957   */\n  add\n    /* \"#utility.yul\":3934:3958   */\n  mload\n    /* \"#utility.yul\":3985:4003   */\n  0xffffffffffffffff\n    /* \"#utility.yul\":3977:3983   */\n  dup2\n    /* \"#utility.yul\":3974:4004   */\n  gt\n    /* \"#utility.yul\":3971:4088   */\n  iszero\n  tag_103\n  jumpi\n    /* \"#utility.yul\":4007:4086   */\n  tag_104\n  tag_29\n  jump\t// in\ntag_104:\n    /* \"#utility.yul\":3971:4088   */\ntag_103:\n    /* \"#utility.yul\":4112:4201   */\n  tag_105\n    /* \"#utility.yul\":4193:4200   */\n  dup6\n    /* \"#utility.yul\":4184:4190   */\n  dup3\n    /* \"#utility.yul\":4173:4182   */\n  dup7\n    /* \"#utility.yul\":4169:4191   */\n  add\n    /* \"#utility.yul\":4112:4201   */\n  tag_42\n  jump\t// in\ntag_105:\n    /* \"#utility.yul\":4102:4201   */\n  swap3\n  pop\n    /* \"#utility.yul\":3905:4211   */\n  pop\n    /* \"#utility.yul\":4250:4252   */\n  0x20\n    /* \"#utility.yul\":4276:4340   */\n  tag_106\n    /* \"#utility.yul\":4332:4339   */\n  dup6\n    /* \"#utility.yul\":4323:4329   */\n  dup3\n    /* \"#utility.yul\":4312:4321   */\n  dup7\n    /* \"#utility.yul\":4308:4330   */\n  add\n    /* \"#utility.yul\":4276:4340   */\n  tag_45\n  jump\t// in\ntag_106:\n    /* \"#utility.yul\":4266:4340   */\n  swap2\n  pop\n    /* \"#utility.yul\":4221:4350   */\n  pop\n    /* \"#utility.yul\":3647:4357   */\n  swap3\n  pop\n  swap3\n  swap1\n  pop\n  jump\t// out\n    /* \"#utility.yul\":4363:4532   */\ntag_46:\n    /* \"#utility.yul\":4447:4458   */\n  0x00\n    /* \"#utility.yul\":4481:4487   */\n  dup3\n    /* \"#utility.yul\":4476:4479   */\n  dup3\n    /* \"#utility.yul\":4469:4488   */\n  mstore\n    /* \"#utility.yul\":4521:4525   */\n  0x20\n    /* \"#utility.yul\":4516:4519   */\n  dup3\n    /* \"#utility.yul\":4512:4526   */\n  add\n    /* \"#utility.yul\":4497:4526   */\n  swap1\n  pop\n    /* \"#utility.yul\":4363:4532   */\n  swap3\n  swap2\n  pop\n  pop\n  jump\t// out\n    /* \"#utility.yul\":4538:4702   */\ntag_47:\n    /* \"#utility.yul\":4678:4694   */\n  0x6f776e6572207265717569726564000000000000000000000000000000000000\n    /* \"#utility.yul\":4674:4675   */\n  0x00\n    /* \"#utility.yul\":4666:4672   */\n  dup3\n    /* \"#utility.yul\":4662:4676   */\n  add\n    /* \"#utility.yul\":4655:4695   */\n  mstore\n    /* \"#utility.yul\":4538:4702   */\n  pop\n  jump\t// out\n    /* \"#utility.yul\":4708:5074   */\ntag_48:\n    /* \"#utility.yul\":4850:4853   */\n  0x00\n    /* \"#utility.yul\":4871:4938   */\n  tag_110\n    /* \"#utility.yul\":4935:4937   */\n  0x0e\n    /* \"#utility.yul\":4930:4933   */\n  dup4\n    /* \"#utility.yul\":4871:4938   */\n  tag_46\n  jump\t// in\ntag_110:\n    /* \"#utility.yul\":4864:4938   */\n  swap2\n  pop\n    /* \"#utility.yul\":4947:5040   */\n  tag_111\n    /* \"#utility.yul\":5036:5039   */\n  dup3\n    /* \"#utility.yul\":4947:5040   */\n  tag_47\n  jump\t// in\ntag_111:\n    /* \"#utility.yul\":5065:5067   */\n  0x20\n    /* \"#utility.yul\":5060:5063   */\n  dup3\n    /* \"#utility.yul\":5056:5068   */\n  add\n    /* \"#utility.yul\":5049:5068   */\n  swap1\n  pop\n    /* \"#utility.yul\":4708:5074   */\n  swap2\n  swap1\n  pop\n  jump\t// out\n    /* \"#utility.yul\":5080:5499   */\ntag_8:\n    /* \"#utility.yul\":5246:5250   */\n  0x00\n    /* \"#utility.yul\":5284:5286   */\n  0x20\n    /* \"#utility.yul\":5273:5282   */\n  dup3\n    /* \"#utility.yul\":5269:5287   */\n  add\n    /* \"#utility.yul\":5261:5287   */\n  swap1\n  pop\n    /* \"#utility.yul\":5333:5342   */\n  dup2\n    /* \"#utility.yul\":5327:5331   */\n  dup2\n    /* \"#utility.yul\":5323:5343   */\n  sub\n    /* \"#utility.yul\":5319:5320   */\n  0x00\n    /* \"#utility.yul\":5308:5317   */\n  dup4\n    /* \"#utility.yul\":5304:5321   */\n  add\n    /* \"#utility.yul\":5297:5344   */\n  mstore\n    /* \"#utility.yul\":5361:5492   */\n  tag_113\n    /* \"#utility.yul\":5487:5491   */\n  dup2\n    /* \"#utility.yul\":5361:5492   */\n  tag_48\n  jump\t// in\ntag_113:\n    /* \"#utility.yul\":5353:5492   */\n  swap1\n  pop\n    /* \"#utility.yul\":5080:5499   */\n  swap2\n  swap1\n  pop\n  jump\t// out\n    /* \"#utility.yul\":5505:5687   */\ntag_49:\n    /* \"#utility.yul\":5645:5679   */\n  0x6976616c6964207265717569726564206e756d626572206f66206f776e657273\n    /* \"#utility.yul\":5641:5642   */\n  0x00\n    /* \"#utility.yul\":5633:5639   */\n  dup3\n    /* \"#utility.yul\":5629:5643   */\n  add\n    /* \"#utility.yul\":5622:5680   */\n  mstore\n    /* \"#utility.yul\":5505:5687   */\n  pop\n  jump\t// out\n    /* \"#utility.yul\":5693:6059   */\ntag_50:\n    /* \"#utility.yul\":5835:5838   */\n  0x00\n    /* \"#utility.yul\":5856:5923   */\n  tag_116\n    /* \"#utility.yul\":5920:5922   */\n  0x20\n    /* \"#utility.yul\":5915:5918   */\n  dup4\n    /* \"#utility.yul\":5856:5923   */\n  tag_46\n  jump\t// in\ntag_116:\n    /* \"#utility.yul\":5849:5923   */\n  swap2\n  pop\n    /* \"#utility.yul\":5932:6025   */\n  tag_117\n    /* \"#utility.yul\":6021:6024   */\n  dup3\n    /* \"#utility.yul\":5932:6025   */\n  tag_49\n  jump\t// in\ntag_117:\n    /* \"#utility.yul\":6050:6052   */\n  0x20\n    /* \"#utility.yul\":6045:6048   */\n  dup3\n    /* \"#utility.yul\":6041:6053   */\n  add\n    /* \"#utility.yul\":6034:6053   */\n  swap1\n  pop\n    /* \"#utility.yul\":5693:6059   */\n  swap2\n  swap1\n  pop\n  jump\t// out\n    /* \"#utility.yul\":6065:6484   */\ntag_12:\n    /* \"#utility.yul\":6231:6235   */\n  0x00\n    /* \"#utility.yul\":6269:6271   */\n  0x20\n    /* \"#utility.yul\":6258:6267   */\n  dup3\n    /* \"#utility.yul\":6254:6272   */\n  add\n    /* \"#utility.yul\":6246:6272   */\n  swap1\n  pop\n    /* \"#utility.yul\":6318:6327   */\n  dup2\n    /* \"#utility.yul\":6312:6316   */\n  dup2\n    /* \"#utility.yul\":6308:6328   */\n  sub\n    /* \"#utility.yul\":6304:6305   */\n  0x00\n    /* \"#utility.yul\":6293:6302   */\n  dup4\n    /* \"#utility.yul\":6289:6306   */\n  add\n    /* \"#utility.yul\":6282:6329   */\n  mstore\n    /* \"#utility.yul\":6346:6477   */\n  tag_119\n    /* \"#utility.yul\":6472:6476   */\n  dup2\n    /* \"#utility.yul\":6346:6477   */\n  tag_50\n  jump\t// in\ntag_119:\n    /* \"#utility.yul\":6338:6477   */\n  swap1\n  pop\n    /* \"#utility.yul\":6065:6484   */\n  swap2\n  swap1\n  pop\n  jump\t// out\n    /* \"#utility.yul\":6490:6670   */\ntag_18:\n    /* \"#utility.yul\":6538:6615   */\n  0x4e487b7100000000000000000000000000000000000000000000000000000000\n    /* \"#utility.yul\":6535:6536   */\n  0x00\n    /* \"#utility.yul\":6528:6616   */\n  mstore\n    /* \"#utility.yul\":6635:6639   */\n  0x32\n    /* \"#utility.yul\":6632:6633   */\n  0x04\n    /* \"#utility.yul\":6625:6640   */\n  mstore\n    /* \"#utility.yul\":6659:6663   */\n  0x24\n    /* \"#utility.yul\":6656:6657   */\n  0x00\n    /* \"#utility.yul\":6649:6664   */\n  revert\n    /* \"#utility.yul\":6676:6839   */\ntag_51:\n    /* \"#utility.yul\":6816:6831   */\n  0x696e76616c6964206f776e657200000000000000000000000000000000000000\n    /* \"#utility.yul\":6812:6813   */\n  0x00\n    /* \"#utility.yul\":6804:6810   */\n  dup3\n    /* \"#utility.yul\":6800:6814   */\n  add\n    /* \"#utility.yul\":6793:6832   */\n  mstore\n    /* \"#utility.yul\":6676:6839   */\n  pop\n  jump\t// out\n    /* \"#utility.yul\":6845:7211   */\ntag_52:\n    /* \"#utility.yul\":6987:6990   */\n  0x00\n    /* \"#utility.yul\":7008:7075   */\n  tag_123\n    /* \"#utility.yul\":7072:7074   */\n  0x0d\n    /* \"#utility.yul\":7067:7070   */\n  dup4\n    /* \"#utility.yul\":7008:7075   */\n  tag_46\n  jump\t// in\ntag_123:\n    /* \"#utility.yul\":7001:7075   */\n  swap2\n  pop\n    /* \"#utility.yul\":7084:7177   */\n  tag_124\n    /* \"#utility.yul\":7173:7176   */\n  dup3\n    /* \"#utility.yul\":7084:7177   */\n  tag_51\n  jump\t// in\ntag_124:\n    /* \"#utility.yul\":7202:7204   */\n  0x20\n    /* \"#utility.yul\":7197:7200   */\n  dup3\n    /* \"#utility.yul\":7193:7205   */\n  add\n    /* \"#utility.yul\":7186:7205   */\n  swap1\n  pop\n    /* \"#utility.yul\":6845:7211   */\n  swap2\n  swap1\n  pop\n  jump\t// out\n    /* \"#utility.yul\":7217:7636   */\ntag_21:\n    /* \"#utility.yul\":7383:7387   */\n  0x00\n    /* \"#utility.yul\":7421:7423   */\n  0x20\n    /* \"#utility.yul\":7410:7419   */\n  dup3\n    /* \"#utility.yul\":7406:7424   */\n  add\n    /* \"#utility.yul\":7398:7424   */\n  swap1\n  pop\n    /* \"#utility.yul\":7470:7479   */\n  dup2\n    /* \"#utility.yul\":7464:7468   */\n  dup2\n    /* \"#utility.yul\":7460:7480   */\n  sub\n    /* \"#utility.yul\":7456:7457   */\n  0x00\n    /* \"#utility.yul\":7445:7454   */\n  dup4\n    /* \"#utility.yul\":7441:7458   */\n  add\n    /* \"#utility.yul\":7434:7481   */\n  mstore\n    /* \"#utility.yul\":7498:7629   */\n  tag_126\n    /* \"#utility.yul\":7624:7628   */\n  dup2\n    /* \"#utility.yul\":7498:7629   */\n  tag_52\n  jump\t// in\ntag_126:\n    /* \"#utility.yul\":7490:7629   */\n  swap1\n  pop\n    /* \"#utility.yul\":7217:7636   */\n  swap2\n  swap1\n  pop\n  jump\t// out\n    /* \"#utility.yul\":7642:7811   */\ntag_53:\n    /* \"#utility.yul\":7782:7803   */\n  0x6f776e6572206973206e6f7420756e6971756500000000000000000000000000\n    /* \"#utility.yul\":7778:7779   */\n  0x00\n    /* \"#utility.yul\":7770:7776   */\n  dup3\n    /* \"#utility.yul\":7766:7780   */\n  add\n    /* \"#utility.yul\":7759:7804   */\n  mstore\n    /* \"#utility.yul\":7642:7811   */\n  pop\n  jump\t// out\n    /* \"#utility.yul\":7817:8183   */\ntag_54:\n    /* \"#utility.yul\":7959:7962   */\n  0x00\n    /* \"#utility.yul\":7980:8047   */\n  tag_129\n    /* \"#utility.yul\":8044:8046   */\n  0x13\n    /* \"#utility.yul\":8039:8042   */\n  dup4\n    /* \"#utility.yul\":7980:8047   */\n  tag_46\n  jump\t// in\ntag_129:\n    /* \"#utility.yul\":7973:8047   */\n  swap2\n  pop\n    /* \"#utility.yul\":8056:8149   */\n  tag_130\n    /* \"#utility.yul\":8145:8148   */\n  dup3\n    /* \"#utility.yul\":8056:8149   */\n  tag_53\n  jump\t// in\ntag_130:\n    /* \"#utility.yul\":8174:8176   */\n  0x20\n    /* \"#utility.yul\":8169:8172   */\n  dup3\n    /* \"#utility.yul\":8165:8177   */\n  add\n    /* \"#utility.yul\":8158:8177   */\n  swap1\n  pop\n    /* \"#utility.yul\":7817:8183   */\n  swap2\n  swap1\n  pop\n  jump\t// out\n    /* \"#utility.yul\":8189:8608   */\ntag_24:\n    /* \"#utility.yul\":8355:8359   */\n  0x00\n    /* \"#utility.yul\":8393:8395   */\n  0x20\n    /* \"#utility.yul\":8382:8391   */\n  dup3\n    /* \"#utility.yul\":8378:8396   */\n  add\n    /* \"#utility.yul\":8370:8396   */\n  swap1\n  pop\n    /* \"#utility.yul\":8442:8451   */\n  dup2\n    /* \"#utility.yul\":8436:8440   */\n  dup2\n    /* \"#utility.yul\":8432:8452   */\n  sub\n    /* \"#utility.yul\":8428:8429   */\n  0x00\n    /* \"#utility.yul\":8417:8426   */\n  dup4\n    /* \"#utility.yul\":8413:8430   */\n  add\n    /* \"#utility.yul\":8406:8453   */\n  mstore\n    /* \"#utility.yul\":8470:8601   */\n  tag_132\n    /* \"#utility.yul\":8596:8600   */\n  dup2\n    /* \"#utility.yul\":8470:8601   */\n  tag_54\n  jump\t// in\ntag_132:\n    /* \"#utility.yul\":8462:8601   */\n  swap1\n  pop\n    /* \"#utility.yul\":8189:8608   */\n  swap2\n  swap1\n  pop\n  jump\t// out\n    /* \"contract/MultiSigWallet.sol\":88:5045  contract MultiSigWallet{... */\ntag_26:\n  dataSize(sub_0)\n  dup1\n  dataOffset(sub_0)\n  0x00\n  codecopy\n  0x00\n  return\nstop\n\nsub_0: assembly {\n        /* \"contract/MultiSigWallet.sol\":88:5045  contract MultiSigWallet{... */\n      mstore(0x40, 0x80)\n      jumpi(tag_1, lt(calldatasize, 0x04))\n      shr(0xe0, calldataload(0x00))\n      dup1\n      0x8253951a\n      gt\n      tag_14\n      jumpi\n      dup1\n      0x8253951a\n      eq\n      tag_8\n      jumpi\n      dup1\n      0x92493b28\n      eq\n      tag_9\n      jumpi\n      dup1\n      0x9ace38c2\n      eq\n      tag_10\n      jumpi\n      dup1\n      0xb759f954\n      eq\n      tag_11\n      jumpi\n      dup1\n      0xdc8452cd\n      eq\n      tag_12\n      jumpi\n      dup1\n      0xfe0d94c1\n      eq\n      tag_13\n      jumpi\n      jump(tag_2)\n    tag_14:\n      dup1\n      0x025e7c27\n      eq\n      tag_3\n      jumpi\n      dup1\n      0x12065fe0\n      eq\n      tag_4\n      jumpi\n      dup1\n      0x14de327f\n      eq\n      tag_5\n      jumpi\n      dup1\n      0x20c5429b\n      eq\n      tag_6\n      jumpi\n      dup1\n      0x2f54bf6e\n      eq\n      tag_7\n      jumpi\n      jump(tag_2)\n    tag_1:\n      jumpi(tag_2, calldatasize)\n        /* \"contract/MultiSigWallet.sol\":3065:3075  msg.sender */\n      caller\n        /* \"contract/MultiSigWallet.sol\":3057:3087  Deposit(msg.sender, msg.value) */\n      0xffffffffffffffffffffffffffffffffffffffff\n      and\n      0xe1fffcc4923d04b559f4d29a8bfc6cda04eb5b0d3c460751c2402c5c5cc9109c\n        /* \"contract/MultiSigWallet.sol\":3077:3086  msg.value */\n      callvalue\n        /* \"contract/MultiSigWallet.sol\":3057:3087  Deposit(msg.sender, msg.value) */\n      mload(0x40)\n      tag_17\n      swap2\n      swap1\n      tag_18\n      jump\t// in\n    tag_17:\n      mload(0x40)\n      dup1\n      swap2\n      sub\n      swap1\n      log2\n        /* \"contract/MultiSigWallet.sol\":88:5045  contract MultiSigWallet{... */\n      stop\n    tag_2:\n      revert(0x00, 0x00)\n        /* \"contract/MultiSigWallet.sol\":118:141  address[] public owners */\n    tag_3:\n      callvalue\n      dup1\n      iszero\n      tag_19\n      jumpi\n      revert(0x00, 0x00)\n    tag_19:\n      pop\n      tag_20\n      0x04\n      dup1\n      calldatasize\n      sub\n      dup2\n      add\n      swap1\n      tag_21\n      swap2\n      swap1\n      tag_22\n      jump\t// in\n    tag_21:\n      tag_23\n      jump\t// in\n    tag_20:\n      mload(0x40)\n      tag_24\n      swap2\n      swap1\n      tag_25\n      jump\t// in\n    tag_24:\n      mload(0x40)\n      dup1\n      swap2\n      sub\n      swap1\n      return\n        /* \"contract/MultiSigWallet.sol\":2760:2859  function getBalance() external view returns(uint256){... */\n    tag_4:\n      callvalue\n      dup1\n      iszero\n      tag_26\n      jumpi\n      revert(0x00, 0x00)\n    tag_26:\n      pop\n      tag_27\n      tag_28\n      jump\t// in\n    tag_27:\n      mload(0x40)\n      tag_29\n      swap2\n      swap1\n      tag_18\n      jump\t// in\n    tag_29:\n      mload(0x40)\n      dup1\n      swap2\n      sub\n      swap1\n      return\n        /* \"contract/MultiSigWallet.sol\":3136:3471  function submit(... */\n    tag_5:\n      callvalue\n      dup1\n      iszero\n      tag_30\n      jumpi\n      revert(0x00, 0x00)\n    tag_30:\n      pop\n      tag_31\n      0x04\n      dup1\n      calldatasize\n      sub\n      dup2\n      add\n      swap1\n      tag_32\n      swap2\n      swap1\n      tag_33\n      jump\t// in\n    tag_32:\n      tag_34\n      jump\t// in\n    tag_31:\n      mload(0x40)\n      tag_35\n      swap2\n      swap1\n      tag_18\n      jump\t// in\n    tag_35:\n      mload(0x40)\n      dup1\n      swap2\n      sub\n      swap1\n      return\n        /* \"contract/MultiSigWallet.sol\":4797:5042  function revoke(uint256 _txId) external onlyOwner txExists(_txId) notExecuted(_txId){... */\n    tag_6:\n      callvalue\n      dup1\n      iszero\n      tag_36\n      jumpi\n      revert(0x00, 0x00)\n    tag_36:\n      pop\n      tag_37\n      0x04\n      dup1\n      calldatasize\n      sub\n      dup2\n      add\n      swap1\n      tag_38\n      swap2\n      swap1\n      tag_22\n      jump\t// in\n    tag_38:\n      tag_39\n      jump\t// in\n    tag_37:\n      stop\n        /* \"contract/MultiSigWallet.sol\":247:284  mapping(address=>bool) public isOwner */\n    tag_7:\n      callvalue\n      dup1\n      iszero\n      tag_40\n      jumpi\n      revert(0x00, 0x00)\n    tag_40:\n      pop\n      tag_41\n      0x04\n      dup1\n      calldatasize\n      sub\n      dup2\n      add\n      swap1\n      tag_42\n      swap2\n      swap1\n      tag_43\n      jump\t// in\n    tag_42:\n      tag_44\n      jump\t// in\n    tag_41:\n      mload(0x40)\n      tag_45\n      swap2\n      swap1\n      tag_46\n      jump\t// in\n    tag_45:\n      mload(0x40)\n      dup1\n      swap2\n      sub\n      swap1\n      return\n        /* \"contract/MultiSigWallet.sol\":544:602  mapping(uint256 => mapping(address=>bool)) public approved */\n    tag_8:\n      callvalue\n      dup1\n      iszero\n      tag_47\n      jumpi\n      revert(0x00, 0x00)\n    tag_47:\n      pop\n      tag_48\n      0x04\n      dup1\n      calldatasize\n      sub\n      dup2\n      add\n      swap1\n      tag_49\n      swap2\n      swap1\n      tag_50\n      jump\t// in\n    tag_49:\n      tag_51\n      jump\t// in\n    tag_48:\n      mload(0x40)\n      tag_52\n      swap2\n      swap1\n      tag_46\n      jump\t// in\n    tag_52:\n      mload(0x40)\n      dup1\n      swap2\n      sub\n      swap1\n      return\n        /* \"contract/MultiSigWallet.sol\":4553:4789  function getApproveCount(uint256 _txId) public view returns(uint256 count){... */\n    tag_9:\n      callvalue\n      dup1\n      iszero\n      tag_53\n      jumpi\n      revert(0x00, 0x00)\n    tag_53:\n      pop\n      tag_54\n      0x04\n      dup1\n      calldatasize\n      sub\n      dup2\n      add\n      swap1\n      tag_55\n      swap2\n      swap1\n      tag_22\n      jump\t// in\n    tag_55:\n      tag_56\n      jump\t// in\n    tag_54:\n      mload(0x40)\n      tag_57\n      swap2\n      swap1\n      tag_18\n      jump\t// in\n    tag_57:\n      mload(0x40)\n      dup1\n      swap2\n      sub\n      swap1\n      return\n        /* \"contract/MultiSigWallet.sol\":504:537  Transaction[] public transactions */\n    tag_10:\n      callvalue\n      dup1\n      iszero\n      tag_58\n      jumpi\n      revert(0x00, 0x00)\n    tag_58:\n      pop\n      tag_59\n      0x04\n      dup1\n      calldatasize\n      sub\n      dup2\n      add\n      swap1\n      tag_60\n      swap2\n      swap1\n      tag_22\n      jump\t// in\n    tag_60:\n      tag_61\n      jump\t// in\n    tag_59:\n      mload(0x40)\n      tag_62\n      swap5\n      swap4\n      swap3\n      swap2\n      swap1\n      tag_63\n      jump\t// in\n    tag_62:\n      mload(0x40)\n      dup1\n      swap2\n      sub\n      swap1\n      return\n        /* \"contract/MultiSigWallet.sol\":3505:3756  function approve(uint256 _txId)... */\n    tag_11:\n      callvalue\n      dup1\n      iszero\n      tag_64\n      jumpi\n      revert(0x00, 0x00)\n    tag_64:\n      pop\n      tag_65\n      0x04\n      dup1\n      calldatasize\n      sub\n      dup2\n      add\n      swap1\n      tag_66\n      swap2\n      swap1\n      tag_22\n      jump\t// in\n    tag_66:\n      tag_67\n      jump\t// in\n    tag_65:\n      stop\n        /* \"contract/MultiSigWallet.sol\":347:370  uint256 public required */\n    tag_12:\n      callvalue\n      dup1\n      iszero\n      tag_68\n      jumpi\n      revert(0x00, 0x00)\n    tag_68:\n      pop\n      tag_69\n      tag_70\n      jump\t// in\n    tag_69:\n      mload(0x40)\n      tag_71\n      swap2\n      swap1\n      tag_18\n      jump\t// in\n    tag_71:\n      mload(0x40)\n      dup1\n      swap2\n      sub\n      swap1\n      return\n        /* \"contract/MultiSigWallet.sol\":3790:4519  function execute(uint256 _txId)... */\n    tag_13:\n      callvalue\n      dup1\n      iszero\n      tag_72\n      jumpi\n      revert(0x00, 0x00)\n    tag_72:\n      pop\n      tag_73\n      0x04\n      dup1\n      calldatasize\n      sub\n      dup2\n      add\n      swap1\n      tag_74\n      swap2\n      swap1\n      tag_22\n      jump\t// in\n    tag_74:\n      tag_75\n      jump\t// in\n    tag_73:\n      stop\n        /* \"contract/MultiSigWallet.sol\":118:141  address[] public owners */\n    tag_23:\n      0x00\n      dup2\n      dup2\n      sload\n      dup2\n      lt\n      tag_76\n      jumpi\n      0x00\n      dup1\n      revert\n    tag_76:\n      swap1\n      0x00\n      mstore\n      keccak256(0x00, 0x20)\n      add\n      0x00\n      swap2\n      pop\n      sload\n      swap1\n      0x0100\n      exp\n      swap1\n      div\n      0xffffffffffffffffffffffffffffffffffffffff\n      and\n      dup2\n      jump\t// out\n        /* \"contract/MultiSigWallet.sol\":2760:2859  function getBalance() external view returns(uint256){... */\n    tag_28:\n        /* \"contract/MultiSigWallet.sol\":2804:2811  uint256 */\n      0x00\n        /* \"contract/MultiSigWallet.sol\":2830:2851  address(this).balance */\n      selfbalance\n        /* \"contract/MultiSigWallet.sol\":2823:2851  return address(this).balance */\n      swap1\n      pop\n        /* \"contract/MultiSigWallet.sol\":2760:2859  function getBalance() external view returns(uint256){... */\n      swap1\n      jump\t// out\n        /* \"contract/MultiSigWallet.sol\":3136:3471  function submit(... */\n    tag_34:\n        /* \"contract/MultiSigWallet.sol\":3264:3271  uint256 */\n      0x00\n        /* \"contract/MultiSigWallet.sol\":1472:1479  isOwner */\n      0x01\n        /* \"contract/MultiSigWallet.sol\":1472:1491  isOwner[msg.sender] */\n      0x00\n        /* \"contract/MultiSigWallet.sol\":1480:1490  msg.sender */\n      caller\n        /* \"contract/MultiSigWallet.sol\":1472:1491  isOwner[msg.sender] */\n      0xffffffffffffffffffffffffffffffffffffffff\n      and\n      0xffffffffffffffffffffffffffffffffffffffff\n      and\n      dup2\n      mstore\n      0x20\n      add\n      swap1\n      dup2\n      mstore\n      0x20\n      add\n      0x00\n      keccak256\n      0x00\n      swap1\n      sload\n      swap1\n      0x0100\n      exp\n      swap1\n      div\n      0xff\n      and\n        /* \"contract/MultiSigWallet.sol\":1464:1505  require(isOwner[msg.sender], \"not owner\") */\n      tag_80\n      jumpi\n      mload(0x40)\n      0x08c379a000000000000000000000000000000000000000000000000000000000\n      dup2\n      mstore\n      0x04\n      add\n      tag_81\n      swap1\n      tag_82\n      jump\t// in\n    tag_81:\n      mload(0x40)\n      dup1\n      swap2\n      sub\n      swap1\n      revert\n    tag_80:\n        /* \"contract/MultiSigWallet.sol\":3289:3301  transactions */\n      0x03\n        /* \"contract/MultiSigWallet.sol\":3307:3374  Transaction({to: _to, value: _value, data: _data, executed: false}) */\n      mload(0x40)\n      dup1\n      0x80\n      add\n      0x40\n      mstore\n      dup1\n        /* \"contract/MultiSigWallet.sol\":3324:3327  _to */\n      dup8\n        /* \"contract/MultiSigWallet.sol\":3307:3374  Transaction({to: _to, value: _value, data: _data, executed: false}) */\n      0xffffffffffffffffffffffffffffffffffffffff\n      and\n      dup2\n      mstore\n      0x20\n      add\n        /* \"contract/MultiSigWallet.sol\":3336:3342  _value */\n      dup7\n        /* \"contract/MultiSigWallet.sol\":3307:3374  Transaction({to: _to, value: _value, data: _data, executed: false}) */\n      dup2\n      mstore\n      0x20\n      add\n        /* \"contract/MultiSigWallet.sol\":3350:3355  _data */\n      dup6\n      dup6\n        /* \"contract/MultiSigWallet.sol\":3307:3374  Transaction({to: _to, value: _value, data: _data, executed: false}) */\n      dup1\n      dup1\n      0x1f\n      add\n      0x20\n      dup1\n      swap2\n      div\n      mul\n      0x20\n      add\n      mload(0x40)\n      swap1\n      dup2\n      add\n      0x40\n      mstore\n      dup1\n      swap4\n      swap3\n      swap2\n      swap1\n      dup2\n      dup2\n      mstore\n      0x20\n      add\n      dup4\n      dup4\n      dup1\n      dup3\n      dup5\n      calldatacopy\n      0x00\n      dup2\n      dup5\n      add\n      mstore\n      not(0x1f)\n      0x1f\n      dup3\n      add\n      and\n      swap1\n      pop\n      dup1\n      dup4\n      add\n      swap3\n      pop\n      pop\n      pop\n      pop\n      pop\n      pop\n      pop\n      dup2\n      mstore\n      0x20\n      add\n        /* \"contract/MultiSigWallet.sol\":3367:3372  false */\n      0x00\n        /* \"contract/MultiSigWallet.sol\":3307:3374  Transaction({to: _to, value: _value, data: _data, executed: false}) */\n      iszero\n      iszero\n      dup2\n      mstore\n      pop\n        /* \"contract/MultiSigWallet.sol\":3289:3375  transactions.push(Transaction({to: _to, value: _value, data: _data, executed: false})) */\n      swap1\n      dup1\n      0x01\n      dup2\n      sload\n      add\n      dup1\n      dup3\n      sstore\n      dup1\n      swap2\n      pop\n      pop\n      0x01\n      swap1\n      sub\n      swap1\n      0x00\n      mstore\n      keccak256(0x00, 0x20)\n      swap1\n      0x04\n      mul\n      add\n      0x00\n      swap1\n      swap2\n      swap1\n      swap2\n      swap1\n      swap2\n      pop\n      0x00\n      dup3\n      add\n      mload\n      dup2\n      0x00\n      add\n      exp(0x0100, 0x00)\n      dup2\n      sload\n      dup2\n      0xffffffffffffffffffffffffffffffffffffffff\n      mul\n      not\n      and\n      swap1\n      dup4\n      0xffffffffffffffffffffffffffffffffffffffff\n      and\n      mul\n      or\n      swap1\n      sstore\n      pop\n      0x20\n      dup3\n      add\n      mload\n      dup2\n      0x01\n      add\n      sstore\n      0x40\n      dup3\n      add\n      mload\n      dup2\n      0x02\n      add\n      swap1\n      dup2\n      tag_85\n      swap2\n      swap1\n      tag_86\n      jump\t// in\n    tag_85:\n      pop\n      0x60\n      dup3\n      add\n      mload\n      dup2\n      0x03\n      add\n      exp(0x0100, 0x00)\n      dup2\n      sload\n      dup2\n      0xff\n      mul\n      not\n      and\n      swap1\n      dup4\n      iszero\n      iszero\n      mul\n      or\n      swap1\n      sstore\n      pop\n      pop\n      pop\n        /* \"contract/MultiSigWallet.sol\":3420:3421  1 */\n      0x01\n        /* \"contract/MultiSigWallet.sol\":3398:3410  transactions */\n      0x03\n        /* \"contract/MultiSigWallet.sol\":3398:3417  transactions.length */\n      dup1\n      sload\n      swap1\n      pop\n        /* \"contract/MultiSigWallet.sol\":3398:3421  transactions.length - 1 */\n      tag_87\n      swap2\n      swap1\n      tag_88\n      jump\t// in\n    tag_87:\n        /* \"contract/MultiSigWallet.sol\":3391:3422  Submit(transactions.length - 1) */\n      0x08324b3d745b914e3abd4ffbfead91e3b78391a98c173202129215ab933adfbe\n      mload(0x40)\n      mload(0x40)\n      dup1\n      swap2\n      sub\n      swap1\n      log2\n        /* \"contract/MultiSigWallet.sol\":3462:3463  1 */\n      0x01\n        /* \"contract/MultiSigWallet.sol\":3440:3452  transactions */\n      0x03\n        /* \"contract/MultiSigWallet.sol\":3440:3459  transactions.length */\n      dup1\n      sload\n      swap1\n      pop\n        /* \"contract/MultiSigWallet.sol\":3440:3463  transactions.length - 1 */\n      tag_89\n      swap2\n      swap1\n      tag_88\n      jump\t// in\n    tag_89:\n        /* \"contract/MultiSigWallet.sol\":3433:3463  return transactions.length - 1 */\n      swap1\n      pop\n        /* \"contract/MultiSigWallet.sol\":3136:3471  function submit(... */\n      swap5\n      swap4\n      pop\n      pop\n      pop\n      pop\n      jump\t// out\n        /* \"contract/MultiSigWallet.sol\":4797:5042  function revoke(uint256 _txId) external onlyOwner txExists(_txId) notExecuted(_txId){... */\n    tag_39:\n        /* \"contract/MultiSigWallet.sol\":1472:1479  isOwner */\n      0x01\n        /* \"contract/MultiSigWallet.sol\":1472:1491  isOwner[msg.sender] */\n      0x00\n        /* \"contract/MultiSigWallet.sol\":1480:1490  msg.sender */\n      caller\n        /* \"contract/MultiSigWallet.sol\":1472:1491  isOwner[msg.sender] */\n      0xffffffffffffffffffffffffffffffffffffffff\n      and\n      0xffffffffffffffffffffffffffffffffffffffff\n      and\n      dup2\n      mstore\n      0x20\n      add\n      swap1\n      dup2\n      mstore\n      0x20\n      add\n      0x00\n      keccak256\n      0x00\n      swap1\n      sload\n      swap1\n      0x0100\n      exp\n      swap1\n      div\n      0xff\n      and\n        /* \"contract/MultiSigWallet.sol\":1464:1505  require(isOwner[msg.sender], \"not owner\") */\n      tag_91\n      jumpi\n      mload(0x40)\n      0x08c379a000000000000000000000000000000000000000000000000000000000\n      dup2\n      mstore\n      0x04\n      add\n      tag_92\n      swap1\n      tag_82\n      jump\t// in\n    tag_92:\n      mload(0x40)\n      dup1\n      swap2\n      sub\n      swap1\n      revert\n    tag_91:\n        /* \"contract/MultiSigWallet.sol\":4856:4861  _txId */\n      dup1\n        /* \"contract/MultiSigWallet.sol\":1651:1663  transactions */\n      0x03\n        /* \"contract/MultiSigWallet.sol\":1651:1670  transactions.length */\n      dup1\n      sload\n      swap1\n      pop\n        /* \"contract/MultiSigWallet.sol\":1643:1648  _txId */\n      dup2\n        /* \"contract/MultiSigWallet.sol\":1643:1670  _txId < transactions.length */\n      lt\n        /* \"contract/MultiSigWallet.sol\":1635:1690  require(_txId < transactions.length, \"tx doesnt exist\") */\n      tag_94\n      jumpi\n      mload(0x40)\n      0x08c379a000000000000000000000000000000000000000000000000000000000\n      dup2\n      mstore\n      0x04\n      add\n      tag_95\n      swap1\n      tag_96\n      jump\t// in\n    tag_95:\n      mload(0x40)\n      dup1\n      swap2\n      sub\n      swap1\n      revert\n    tag_94:\n        /* \"contract/MultiSigWallet.sol\":4875:4880  _txId */\n      dup2\n        /* \"contract/MultiSigWallet.sol\":2000:2012  transactions */\n      0x03\n        /* \"contract/MultiSigWallet.sol\":2013:2018  _txId */\n      dup2\n        /* \"contract/MultiSigWallet.sol\":2000:2019  transactions[_txId] */\n      dup2\n      sload\n      dup2\n      lt\n      tag_98\n      jumpi\n      tag_99\n      tag_100\n      jump\t// in\n    tag_99:\n    tag_98:\n      swap1\n      0x00\n      mstore\n      keccak256(0x00, 0x20)\n      swap1\n      0x04\n      mul\n      add\n        /* \"contract/MultiSigWallet.sol\":2000:2028  transactions[_txId].executed */\n      0x03\n      add\n      0x00\n      swap1\n      sload\n      swap1\n      0x0100\n      exp\n      swap1\n      div\n      0xff\n      and\n        /* \"contract/MultiSigWallet.sol\":1999:2028  !transactions[_txId].executed */\n      iszero\n        /* \"contract/MultiSigWallet.sol\":1991:2047  require(!transactions[_txId].executed, \"tx is executed\") */\n      tag_102\n      jumpi\n      mload(0x40)\n      0x08c379a000000000000000000000000000000000000000000000000000000000\n      dup2\n      mstore\n      0x04\n      add\n      tag_103\n      swap1\n      tag_104\n      jump\t// in\n    tag_103:\n      mload(0x40)\n      dup1\n      swap2\n      sub\n      swap1\n      revert\n    tag_102:\n        /* \"contract/MultiSigWallet.sol\":4900:4908  approved */\n      0x04\n        /* \"contract/MultiSigWallet.sol\":4900:4915  approved[_txId] */\n      0x00\n        /* \"contract/MultiSigWallet.sol\":4909:4914  _txId */\n      dup5\n        /* \"contract/MultiSigWallet.sol\":4900:4915  approved[_txId] */\n      dup2\n      mstore\n      0x20\n      add\n      swap1\n      dup2\n      mstore\n      0x20\n      add\n      0x00\n      keccak256\n        /* \"contract/MultiSigWallet.sol\":4900:4927  approved[_txId][msg.sender] */\n      0x00\n        /* \"contract/MultiSigWallet.sol\":4916:4926  msg.sender */\n      caller\n        /* \"contract/MultiSigWallet.sol\":4900:4927  approved[_txId][msg.sender] */\n      0xffffffffffffffffffffffffffffffffffffffff\n      and\n      0xffffffffffffffffffffffffffffffffffffffff\n      and\n      dup2\n      mstore\n      0x20\n      add\n      swap1\n      dup2\n      mstore\n      0x20\n      add\n      0x00\n      keccak256\n      0x00\n      swap1\n      sload\n      swap1\n      0x0100\n      exp\n      swap1\n      div\n      0xff\n      and\n        /* \"contract/MultiSigWallet.sol\":4892:4947  require(approved[_txId][msg.sender], \"tx not approved\") */\n      tag_106\n      jumpi\n      mload(0x40)\n      0x08c379a000000000000000000000000000000000000000000000000000000000\n      dup2\n      mstore\n      0x04\n      add\n      tag_107\n      swap1\n      tag_108\n      jump\t// in\n    tag_107:\n      mload(0x40)\n      dup1\n      swap2\n      sub\n      swap1\n      revert\n    tag_106:\n        /* \"contract/MultiSigWallet.sol\":4988:4993  false */\n      0x00\n        /* \"contract/MultiSigWallet.sol\":4958:4966  approved */\n      0x04\n        /* \"contract/MultiSigWallet.sol\":4958:4973  approved[_txId] */\n      0x00\n        /* \"contract/MultiSigWallet.sol\":4967:4972  _txId */\n      dup6\n        /* \"contract/MultiSigWallet.sol\":4958:4973  approved[_txId] */\n      dup2\n      mstore\n      0x20\n      add\n      swap1\n      dup2\n      mstore\n      0x20\n      add\n      0x00\n      keccak256\n        /* \"contract/MultiSigWallet.sol\":4958:4985  approved[_txId][msg.sender] */\n      0x00\n        /* \"contract/MultiSigWallet.sol\":4974:4984  msg.sender */\n      caller\n        /* \"contract/MultiSigWallet.sol\":4958:4985  approved[_txId][msg.sender] */\n      0xffffffffffffffffffffffffffffffffffffffff\n      and\n      0xffffffffffffffffffffffffffffffffffffffff\n      and\n      dup2\n      mstore\n      0x20\n      add\n      swap1\n      dup2\n      mstore\n      0x20\n      add\n      0x00\n      keccak256\n      0x00\n        /* \"contract/MultiSigWallet.sol\":4958:4993  approved[_txId][msg.sender] = false */\n      0x0100\n      exp\n      dup2\n      sload\n      dup2\n      0xff\n      mul\n      not\n      and\n      swap1\n      dup4\n      iszero\n      iszero\n      mul\n      or\n      swap1\n      sstore\n      pop\n        /* \"contract/MultiSigWallet.sol\":5028:5033  _txId */\n      dup3\n        /* \"contract/MultiSigWallet.sol\":5016:5026  msg.sender */\n      caller\n        /* \"contract/MultiSigWallet.sol\":5009:5034  Revoke(msg.sender, _txId) */\n      0xffffffffffffffffffffffffffffffffffffffff\n      and\n      0xec9ab91322523c899ede7830ec9bfc992b5981cdcc27b91162fb23de5791117b\n      mload(0x40)\n      mload(0x40)\n      dup1\n      swap2\n      sub\n      swap1\n      log3\n        /* \"contract/MultiSigWallet.sol\":1701:1702  _ */\n      pop\n        /* \"contract/MultiSigWallet.sol\":1516:1517  _ */\n      pop\n        /* \"contract/MultiSigWallet.sol\":4797:5042  function revoke(uint256 _txId) external onlyOwner txExists(_txId) notExecuted(_txId){... */\n      pop\n      jump\t// out\n        /* \"contract/MultiSigWallet.sol\":247:284  mapping(address=>bool) public isOwner */\n    tag_44:\n      mstore(0x20, 0x01)\n      dup1\n      0x00\n      mstore\n      keccak256(0x00, 0x40)\n      0x00\n      swap2\n      pop\n      sload\n      swap1\n      0x0100\n      exp\n      swap1\n      div\n      0xff\n      and\n      dup2\n      jump\t// out\n        /* \"contract/MultiSigWallet.sol\":544:602  mapping(uint256 => mapping(address=>bool)) public approved */\n    tag_51:\n      mstore(0x20, 0x04)\n      dup2\n      0x00\n      mstore\n      mstore(0x20, keccak256(0x00, 0x40))\n      dup1\n      0x00\n      mstore\n      keccak256(0x00, 0x40)\n      0x00\n      swap2\n      pop\n      swap2\n      pop\n      swap1\n      sload\n      swap1\n      0x0100\n      exp\n      swap1\n      div\n      0xff\n      and\n      dup2\n      jump\t// out\n        /* \"contract/MultiSigWallet.sol\":4553:4789  function getApproveCount(uint256 _txId) public view returns(uint256 count){... */\n    tag_56:\n        /* \"contract/MultiSigWallet.sol\":4613:4626  uint256 count */\n      0x00\n        /* \"contract/MultiSigWallet.sol\":4642:4651  uint256 i */\n      0x00\n        /* \"contract/MultiSigWallet.sol\":4654:4655  0 */\n      0x00\n        /* \"contract/MultiSigWallet.sol\":4642:4655  uint256 i = 0 */\n      swap1\n      pop\n        /* \"contract/MultiSigWallet.sol\":4638:4782  for(uint256 i = 0; i < owners.length; i ++){... */\n    tag_110:\n        /* \"contract/MultiSigWallet.sol\":4661:4667  owners */\n      0x00\n        /* \"contract/MultiSigWallet.sol\":4661:4674  owners.length */\n      dup1\n      sload\n      swap1\n      pop\n        /* \"contract/MultiSigWallet.sol\":4657:4658  i */\n      dup2\n        /* \"contract/MultiSigWallet.sol\":4657:4674  i < owners.length */\n      lt\n        /* \"contract/MultiSigWallet.sol\":4638:4782  for(uint256 i = 0; i < owners.length; i ++){... */\n      iszero\n      tag_111\n      jumpi\n        /* \"contract/MultiSigWallet.sol\":4699:4707  approved */\n      0x04\n        /* \"contract/MultiSigWallet.sol\":4699:4714  approved[_txId] */\n      0x00\n        /* \"contract/MultiSigWallet.sol\":4708:4713  _txId */\n      dup5\n        /* \"contract/MultiSigWallet.sol\":4699:4714  approved[_txId] */\n      dup2\n      mstore\n      0x20\n      add\n      swap1\n      dup2\n      mstore\n      0x20\n      add\n      0x00\n      keccak256\n        /* \"contract/MultiSigWallet.sol\":4699:4725  approved[_txId][owners[i]] */\n      0x00\n        /* \"contract/MultiSigWallet.sol\":4715:4721  owners */\n      0x00\n        /* \"contract/MultiSigWallet.sol\":4722:4723  i */\n      dup4\n        /* \"contract/MultiSigWallet.sol\":4715:4724  owners[i] */\n      dup2\n      sload\n      dup2\n      lt\n      tag_113\n      jumpi\n      tag_114\n      tag_100\n      jump\t// in\n    tag_114:\n    tag_113:\n      swap1\n      0x00\n      mstore\n      keccak256(0x00, 0x20)\n      add\n      0x00\n      swap1\n      sload\n      swap1\n      0x0100\n      exp\n      swap1\n      div\n      0xffffffffffffffffffffffffffffffffffffffff\n      and\n        /* \"contract/MultiSigWallet.sol\":4699:4725  approved[_txId][owners[i]] */\n      0xffffffffffffffffffffffffffffffffffffffff\n      and\n      0xffffffffffffffffffffffffffffffffffffffff\n      and\n      dup2\n      mstore\n      0x20\n      add\n      swap1\n      dup2\n      mstore\n      0x20\n      add\n      0x00\n      keccak256\n      0x00\n      swap1\n      sload\n      swap1\n      0x0100\n      exp\n      swap1\n      div\n      0xff\n      and\n        /* \"contract/MultiSigWallet.sol\":4696:4771  if(approved[_txId][owners[i]]){... */\n      iszero\n      tag_116\n      jumpi\n        /* \"contract/MultiSigWallet.sol\":4754:4755  1 */\n      0x01\n        /* \"contract/MultiSigWallet.sol\":4745:4755  count += 1 */\n      dup3\n      tag_117\n      swap2\n      swap1\n      tag_118\n      jump\t// in\n    tag_117:\n      swap2\n      pop\n        /* \"contract/MultiSigWallet.sol\":4696:4771  if(approved[_txId][owners[i]]){... */\n    tag_116:\n        /* \"contract/MultiSigWallet.sol\":4676:4680  i ++ */\n      dup1\n      dup1\n      0x01\n      add\n      swap2\n      pop\n      pop\n        /* \"contract/MultiSigWallet.sol\":4638:4782  for(uint256 i = 0; i < owners.length; i ++){... */\n      jump(tag_110)\n    tag_111:\n      pop\n        /* \"contract/MultiSigWallet.sol\":4553:4789  function getApproveCount(uint256 _txId) public view returns(uint256 count){... */\n      swap2\n      swap1\n      pop\n      jump\t// out\n        /* \"contract/MultiSigWallet.sol\":504:537  Transaction[] public transactions */\n    tag_61:\n      0x03\n      dup2\n      dup2\n      sload\n      dup2\n      lt\n      tag_119\n      jumpi\n      0x00\n      dup1\n      revert\n    tag_119:\n      swap1\n      0x00\n      mstore\n      keccak256(0x00, 0x20)\n      swap1\n      0x04\n      mul\n      add\n      0x00\n      swap2\n      pop\n      swap1\n      pop\n      dup1\n      0x00\n      add\n      0x00\n      swap1\n      sload\n      swap1\n      0x0100\n      exp\n      swap1\n      div\n      0xffffffffffffffffffffffffffffffffffffffff\n      and\n      swap1\n      dup1\n      0x01\n      add\n      sload\n      swap1\n      dup1\n      0x02\n      add\n      dup1\n      sload\n      tag_121\n      swap1\n      tag_122\n      jump\t// in\n    tag_121:\n      dup1\n      0x1f\n      add\n      0x20\n      dup1\n      swap2\n      div\n      mul\n      0x20\n      add\n      mload(0x40)\n      swap1\n      dup2\n      add\n      0x40\n      mstore\n      dup1\n      swap3\n      swap2\n      swap1\n      dup2\n      dup2\n      mstore\n      0x20\n      add\n      dup3\n      dup1\n      sload\n      tag_123\n      swap1\n      tag_122\n      jump\t// in\n    tag_123:\n      dup1\n      iszero\n      tag_124\n      jumpi\n      dup1\n      0x1f\n      lt\n      tag_125\n      jumpi\n      0x0100\n      dup1\n      dup4\n      sload\n      div\n      mul\n      dup4\n      mstore\n      swap2\n      0x20\n      add\n      swap2\n      jump(tag_124)\n    tag_125:\n      dup3\n      add\n      swap2\n      swap1\n      0x00\n      mstore\n      keccak256(0x00, 0x20)\n      swap1\n    tag_126:\n      dup2\n      sload\n      dup2\n      mstore\n      swap1\n      0x01\n      add\n      swap1\n      0x20\n      add\n      dup1\n      dup4\n      gt\n      tag_126\n      jumpi\n      dup3\n      swap1\n      sub\n      0x1f\n      and\n      dup3\n      add\n      swap2\n    tag_124:\n      pop\n      pop\n      pop\n      pop\n      pop\n      swap1\n      dup1\n      0x03\n      add\n      0x00\n      swap1\n      sload\n      swap1\n      0x0100\n      exp\n      swap1\n      div\n      0xff\n      and\n      swap1\n      pop\n      dup5\n      jump\t// out\n        /* \"contract/MultiSigWallet.sol\":3505:3756  function approve(uint256 _txId)... */\n    tag_67:\n        /* \"contract/MultiSigWallet.sol\":1472:1479  isOwner */\n      0x01\n        /* \"contract/MultiSigWallet.sol\":1472:1491  isOwner[msg.sender] */\n      0x00\n        /* \"contract/MultiSigWallet.sol\":1480:1490  msg.sender */\n      caller\n        /* \"contract/MultiSigWallet.sol\":1472:1491  isOwner[msg.sender] */\n      0xffffffffffffffffffffffffffffffffffffffff\n      and\n      0xffffffffffffffffffffffffffffffffffffffff\n      and\n      dup2\n      mstore\n      0x20\n      add\n      swap1\n      dup2\n      mstore\n      0x20\n      add\n      0x00\n      keccak256\n      0x00\n      swap1\n      sload\n      swap1\n      0x0100\n      exp\n      swap1\n      div\n      0xff\n      and\n        /* \"contract/MultiSigWallet.sol\":1464:1505  require(isOwner[msg.sender], \"not owner\") */\n      tag_128\n      jumpi\n      mload(0x40)\n      0x08c379a000000000000000000000000000000000000000000000000000000000\n      dup2\n      mstore\n      0x04\n      add\n      tag_129\n      swap1\n      tag_82\n      jump\t// in\n    tag_129:\n      mload(0x40)\n      dup1\n      swap2\n      sub\n      swap1\n      revert\n    tag_128:\n        /* \"contract/MultiSigWallet.sol\":3593:3598  _txId */\n      dup1\n        /* \"contract/MultiSigWallet.sol\":1651:1663  transactions */\n      0x03\n        /* \"contract/MultiSigWallet.sol\":1651:1670  transactions.length */\n      dup1\n      sload\n      swap1\n      pop\n        /* \"contract/MultiSigWallet.sol\":1643:1648  _txId */\n      dup2\n        /* \"contract/MultiSigWallet.sol\":1643:1670  _txId < transactions.length */\n      lt\n        /* \"contract/MultiSigWallet.sol\":1635:1690  require(_txId < transactions.length, \"tx doesnt exist\") */\n      tag_131\n      jumpi\n      mload(0x40)\n      0x08c379a000000000000000000000000000000000000000000000000000000000\n      dup2\n      mstore\n      0x04\n      add\n      tag_132\n      swap1\n      tag_96\n      jump\t// in\n    tag_132:\n      mload(0x40)\n      dup1\n      swap2\n      sub\n      swap1\n      revert\n    tag_131:\n        /* \"contract/MultiSigWallet.sol\":3621:3626  _txId */\n      dup2\n        /* \"contract/MultiSigWallet.sol\":1819:1827  approved */\n      0x04\n        /* \"contract/MultiSigWallet.sol\":1819:1834  approved[_txId] */\n      0x00\n        /* \"contract/MultiSigWallet.sol\":1828:1833  _txId */\n      dup3\n        /* \"contract/MultiSigWallet.sol\":1819:1834  approved[_txId] */\n      dup2\n      mstore\n      0x20\n      add\n      swap1\n      dup2\n      mstore\n      0x20\n      add\n      0x00\n      keccak256\n        /* \"contract/MultiSigWallet.sol\":1819:1846  approved[_txId][msg.sender] */\n      0x00\n        /* \"contract/MultiSigWallet.sol\":1835:1845  msg.sender */\n      caller\n        /* \"contract/MultiSigWallet.sol\":1819:1846  approved[_txId][msg.sender] */\n      0xffffffffffffffffffffffffffffffffffffffff\n      and\n      0xffffffffffffffffffffffffffffffffffffffff\n      and\n      dup2\n      mstore\n      0x20\n      add\n      swap1\n      dup2\n      mstore\n      0x20\n      add\n      0x00\n      keccak256\n      0x00\n      swap1\n      sload\n      swap1\n      0x0100\n      exp\n      swap1\n      div\n      0xff\n      and\n        /* \"contract/MultiSigWallet.sol\":1811:1870  require(approved[_txId][msg.sender], \"tx already approved\") */\n      tag_134\n      jumpi\n      mload(0x40)\n      0x08c379a000000000000000000000000000000000000000000000000000000000\n      dup2\n      mstore\n      0x04\n      add\n      tag_135\n      swap1\n      tag_136\n      jump\t// in\n    tag_135:\n      mload(0x40)\n      dup1\n      swap2\n      sub\n      swap1\n      revert\n    tag_134:\n        /* \"contract/MultiSigWallet.sol\":3649:3654  _txId */\n      dup3\n        /* \"contract/MultiSigWallet.sol\":2000:2012  transactions */\n      0x03\n        /* \"contract/MultiSigWallet.sol\":2013:2018  _txId */\n      dup2\n        /* \"contract/MultiSigWallet.sol\":2000:2019  transactions[_txId] */\n      dup2\n      sload\n      dup2\n      lt\n      tag_138\n      jumpi\n      tag_139\n      tag_100\n      jump\t// in\n    tag_139:\n    tag_138:\n      swap1\n      0x00\n      mstore\n      keccak256(0x00, 0x20)\n      swap1\n      0x04\n      mul\n      add\n        /* \"contract/MultiSigWallet.sol\":2000:2028  transactions[_txId].executed */\n      0x03\n      add\n      0x00\n      swap1\n      sload\n      swap1\n      0x0100\n      exp\n      swap1\n      div\n      0xff\n      and\n        /* \"contract/MultiSigWallet.sol\":1999:2028  !transactions[_txId].executed */\n      iszero\n        /* \"contract/MultiSigWallet.sol\":1991:2047  require(!transactions[_txId].executed, \"tx is executed\") */\n      tag_141\n      jumpi\n      mload(0x40)\n      0x08c379a000000000000000000000000000000000000000000000000000000000\n      dup2\n      mstore\n      0x04\n      add\n      tag_142\n      swap1\n      tag_104\n      jump\t// in\n    tag_142:\n      mload(0x40)\n      dup1\n      swap2\n      sub\n      swap1\n      revert\n    tag_141:\n        /* \"contract/MultiSigWallet.sol\":3702:3706  true */\n      0x01\n        /* \"contract/MultiSigWallet.sol\":3672:3680  approved */\n      0x04\n        /* \"contract/MultiSigWallet.sol\":3672:3687  approved[_txId] */\n      0x00\n        /* \"contract/MultiSigWallet.sol\":3681:3686  _txId */\n      dup7\n        /* \"contract/MultiSigWallet.sol\":3672:3687  approved[_txId] */\n      dup2\n      mstore\n      0x20\n      add\n      swap1\n      dup2\n      mstore\n      0x20\n      add\n      0x00\n      keccak256\n        /* \"contract/MultiSigWallet.sol\":3672:3699  approved[_txId][msg.sender] */\n      0x00\n        /* \"contract/MultiSigWallet.sol\":3688:3698  msg.sender */\n      caller\n        /* \"contract/MultiSigWallet.sol\":3672:3699  approved[_txId][msg.sender] */\n      0xffffffffffffffffffffffffffffffffffffffff\n      and\n      0xffffffffffffffffffffffffffffffffffffffff\n      and\n      dup2\n      mstore\n      0x20\n      add\n      swap1\n      dup2\n      mstore\n      0x20\n      add\n      0x00\n      keccak256\n      0x00\n        /* \"contract/MultiSigWallet.sol\":3672:3706  approved[_txId][msg.sender] = true */\n      0x0100\n      exp\n      dup2\n      sload\n      dup2\n      0xff\n      mul\n      not\n      and\n      swap1\n      dup4\n      iszero\n      iszero\n      mul\n      or\n      swap1\n      sstore\n      pop\n        /* \"contract/MultiSigWallet.sol\":3742:3747  _txId */\n      dup4\n        /* \"contract/MultiSigWallet.sol\":3730:3740  msg.sender */\n      caller\n        /* \"contract/MultiSigWallet.sol\":3722:3748  Approve(msg.sender, _txId) */\n      0xffffffffffffffffffffffffffffffffffffffff\n      and\n      0x90ec57f18fa7b15c6b8d5e4d1deb90796c74b2ff23d4d0cecad0cb42a96b3128\n      mload(0x40)\n      mload(0x40)\n      dup1\n      swap2\n      sub\n      swap1\n      log3\n        /* \"contract/MultiSigWallet.sol\":1881:1882  _ */\n      pop\n        /* \"contract/MultiSigWallet.sol\":1701:1702  _ */\n      pop\n        /* \"contract/MultiSigWallet.sol\":1516:1517  _ */\n      pop\n        /* \"contract/MultiSigWallet.sol\":3505:3756  function approve(uint256 _txId)... */\n      pop\n      jump\t// out\n        /* \"contract/MultiSigWallet.sol\":347:370  uint256 public required */\n    tag_70:\n      sload(0x02)\n      dup2\n      jump\t// out\n        /* \"contract/MultiSigWallet.sol\":3790:4519  function execute(uint256 _txId)... */\n    tag_75:\n        /* \"contract/MultiSigWallet.sol\":1472:1479  isOwner */\n      0x01\n        /* \"contract/MultiSigWallet.sol\":1472:1491  isOwner[msg.sender] */\n      0x00\n        /* \"contract/MultiSigWallet.sol\":1480:1490  msg.sender */\n      caller\n        /* \"contract/MultiSigWallet.sol\":1472:1491  isOwner[msg.sender] */\n      0xffffffffffffffffffffffffffffffffffffffff\n      and\n      0xffffffffffffffffffffffffffffffffffffffff\n      and\n      dup2\n      mstore\n      0x20\n      add\n      swap1\n      dup2\n      mstore\n      0x20\n      add\n      0x00\n      keccak256\n      0x00\n      swap1\n      sload\n      swap1\n      0x0100\n      exp\n      swap1\n      div\n      0xff\n      and\n        /* \"contract/MultiSigWallet.sol\":1464:1505  require(isOwner[msg.sender], \"not owner\") */\n      tag_145\n      jumpi\n      mload(0x40)\n      0x08c379a000000000000000000000000000000000000000000000000000000000\n      dup2\n      mstore\n      0x04\n      add\n      tag_146\n      swap1\n      tag_82\n      jump\t// in\n    tag_146:\n      mload(0x40)\n      dup1\n      swap2\n      sub\n      swap1\n      revert\n    tag_145:\n        /* \"contract/MultiSigWallet.sol\":3878:3883  _txId */\n      dup1\n        /* \"contract/MultiSigWallet.sol\":1651:1663  transactions */\n      0x03\n        /* \"contract/MultiSigWallet.sol\":1651:1670  transactions.length */\n      dup1\n      sload\n      swap1\n      pop\n        /* \"contract/MultiSigWallet.sol\":1643:1648  _txId */\n      dup2\n        /* \"contract/MultiSigWallet.sol\":1643:1670  _txId < transactions.length */\n      lt\n        /* \"contract/MultiSigWallet.sol\":1635:1690  require(_txId < transactions.length, \"tx doesnt exist\") */\n      tag_148\n      jumpi\n      mload(0x40)\n      0x08c379a000000000000000000000000000000000000000000000000000000000\n      dup2\n      mstore\n      0x04\n      add\n      tag_149\n      swap1\n      tag_96\n      jump\t// in\n    tag_149:\n      mload(0x40)\n      dup1\n      swap2\n      sub\n      swap1\n      revert\n    tag_148:\n        /* \"contract/MultiSigWallet.sol\":3906:3911  _txId */\n      dup2\n        /* \"contract/MultiSigWallet.sol\":2000:2012  transactions */\n      0x03\n        /* \"contract/MultiSigWallet.sol\":2013:2018  _txId */\n      dup2\n        /* \"contract/MultiSigWallet.sol\":2000:2019  transactions[_txId] */\n      dup2\n      sload\n      dup2\n      lt\n      tag_151\n      jumpi\n      tag_152\n      tag_100\n      jump\t// in\n    tag_152:\n    tag_151:\n      swap1\n      0x00\n      mstore\n      keccak256(0x00, 0x20)\n      swap1\n      0x04\n      mul\n      add\n        /* \"contract/MultiSigWallet.sol\":2000:2028  transactions[_txId].executed */\n      0x03\n      add\n      0x00\n      swap1\n      sload\n      swap1\n      0x0100\n      exp\n      swap1\n      div\n      0xff\n      and\n        /* \"contract/MultiSigWallet.sol\":1999:2028  !transactions[_txId].executed */\n      iszero\n        /* \"contract/MultiSigWallet.sol\":1991:2047  require(!transactions[_txId].executed, \"tx is executed\") */\n      tag_154\n      jumpi\n      mload(0x40)\n      0x08c379a000000000000000000000000000000000000000000000000000000000\n      dup2\n      mstore\n      0x04\n      add\n      tag_155\n      swap1\n      tag_104\n      jump\t// in\n    tag_155:\n      mload(0x40)\n      dup1\n      swap2\n      sub\n      swap1\n      revert\n    tag_154:\n        /* \"contract/MultiSigWallet.sol\":3963:3971  required */\n      sload(0x02)\n        /* \"contract/MultiSigWallet.sol\":3937:3959  getApproveCount(_txId) */\n      tag_157\n        /* \"contract/MultiSigWallet.sol\":3953:3958  _txId */\n      dup5\n        /* \"contract/MultiSigWallet.sol\":3937:3952  getApproveCount */\n      tag_56\n        /* \"contract/MultiSigWallet.sol\":3937:3959  getApproveCount(_txId) */\n      jump\t// in\n    tag_157:\n        /* \"contract/MultiSigWallet.sol\":3937:3971  getApproveCount(_txId) >= required */\n      lt\n      iszero\n        /* \"contract/MultiSigWallet.sol\":3929:4016  require(getApproveCount(_txId) >= required, \"not enough people agree this transaction\") */\n      tag_158\n      jumpi\n      mload(0x40)\n      0x08c379a000000000000000000000000000000000000000000000000000000000\n      dup2\n      mstore\n      0x04\n      add\n      tag_159\n      swap1\n      tag_160\n      jump\t// in\n    tag_159:\n      mload(0x40)\n      dup1\n      swap2\n      sub\n      swap1\n      revert\n    tag_158:\n        /* \"contract/MultiSigWallet.sol\":4027:4058  Transaction storage transaction */\n      0x00\n        /* \"contract/MultiSigWallet.sol\":4061:4073  transactions */\n      0x03\n        /* \"contract/MultiSigWallet.sol\":4074:4079  _txId */\n      dup5\n        /* \"contract/MultiSigWallet.sol\":4061:4080  transactions[_txId] */\n      dup2\n      sload\n      dup2\n      lt\n      tag_161\n      jumpi\n      tag_162\n      tag_100\n      jump\t// in\n    tag_162:\n    tag_161:\n      swap1\n      0x00\n      mstore\n      keccak256(0x00, 0x20)\n      swap1\n      0x04\n      mul\n      add\n        /* \"contract/MultiSigWallet.sol\":4027:4080  Transaction storage transaction = transactions[_txId] */\n      swap1\n      pop\n        /* \"contract/MultiSigWallet.sol\":4114:4118  true */\n      0x01\n        /* \"contract/MultiSigWallet.sol\":4091:4102  transaction */\n      dup2\n        /* \"contract/MultiSigWallet.sol\":4091:4111  transaction.executed */\n      0x03\n      add\n      0x00\n        /* \"contract/MultiSigWallet.sol\":4091:4118  transaction.executed = true */\n      0x0100\n      exp\n      dup2\n      sload\n      dup2\n      0xff\n      mul\n      not\n      and\n      swap1\n      dup4\n      iszero\n      iszero\n      mul\n      or\n      swap1\n      sstore\n      pop\n        /* \"contract/MultiSigWallet.sol\":4438:4449  transaction */\n      dup1\n        /* \"contract/MultiSigWallet.sol\":4438:4452  transaction.to */\n      0x00\n      add\n      0x00\n      swap1\n      sload\n      swap1\n      0x0100\n      exp\n      swap1\n      div\n      0xffffffffffffffffffffffffffffffffffffffff\n      and\n        /* \"contract/MultiSigWallet.sol\":4430:4462  payable(transaction.to).transfer */\n      0xffffffffffffffffffffffffffffffffffffffff\n      and\n        /* \"contract/MultiSigWallet.sol\":4430:4481  payable(transaction.to).transfer(transaction.value) */\n      0x08fc\n        /* \"contract/MultiSigWallet.sol\":4463:4474  transaction */\n      dup3\n        /* \"contract/MultiSigWallet.sol\":4463:4480  transaction.value */\n      0x01\n      add\n      sload\n        /* \"contract/MultiSigWallet.sol\":4430:4481  payable(transaction.to).transfer(transaction.value) */\n      swap1\n      dup2\n      iszero\n      mul\n      swap1\n      mload(0x40)\n      0x00\n      mload(0x40)\n      dup1\n      dup4\n      sub\n      dup2\n      dup6\n      dup9\n      dup9\n      call\n      swap4\n      pop\n      pop\n      pop\n      pop\n      iszero\n      dup1\n      iszero\n      tag_165\n      jumpi\n      returndatacopy(0x00, 0x00, returndatasize)\n      revert(0x00, returndatasize)\n    tag_165:\n      pop\n        /* \"contract/MultiSigWallet.sol\":4505:4510  _txId */\n      dup4\n        /* \"contract/MultiSigWallet.sol\":4497:4511  Execute(_txId) */\n      0xddb556f1d2c1ec821e910b019d3685b229db152a0ecd517ca7e24b8bd7139289\n      mload(0x40)\n      mload(0x40)\n      dup1\n      swap2\n      sub\n      swap1\n      log2\n        /* \"contract/MultiSigWallet.sol\":3918:4519  {... */\n      pop\n        /* \"contract/MultiSigWallet.sol\":1701:1702  _ */\n      pop\n        /* \"contract/MultiSigWallet.sol\":1516:1517  _ */\n      pop\n        /* \"contract/MultiSigWallet.sol\":3790:4519  function execute(uint256 _txId)... */\n      pop\n      jump\t// out\n        /* \"#utility.yul\":7:84   */\n    tag_166:\n        /* \"#utility.yul\":44:51   */\n      0x00\n        /* \"#utility.yul\":73:78   */\n      dup2\n        /* \"#utility.yul\":62:78   */\n      swap1\n      pop\n        /* \"#utility.yul\":7:84   */\n      swap2\n      swap1\n      pop\n      jump\t// out\n        /* \"#utility.yul\":90:208   */\n    tag_167:\n        /* \"#utility.yul\":177:201   */\n      tag_223\n        /* \"#utility.yul\":195:200   */\n      dup2\n        /* \"#utility.yul\":177:201   */\n      tag_166\n      jump\t// in\n    tag_223:\n        /* \"#utility.yul\":172:175   */\n      dup3\n        /* \"#utility.yul\":165:202   */\n      mstore\n        /* \"#utility.yul\":90:208   */\n      pop\n      pop\n      jump\t// out\n        /* \"#utility.yul\":214:436   */\n    tag_18:\n        /* \"#utility.yul\":307:311   */\n      0x00\n        /* \"#utility.yul\":345:347   */\n      0x20\n        /* \"#utility.yul\":334:343   */\n      dup3\n        /* \"#utility.yul\":330:348   */\n      add\n        /* \"#utility.yul\":322:348   */\n      swap1\n      pop\n        /* \"#utility.yul\":358:429   */\n      tag_225\n        /* \"#utility.yul\":426:427   */\n      0x00\n        /* \"#utility.yul\":415:424   */\n      dup4\n        /* \"#utility.yul\":411:428   */\n      add\n        /* \"#utility.yul\":402:408   */\n      dup5\n        /* \"#utility.yul\":358:429   */\n      tag_167\n      jump\t// in\n    tag_225:\n        /* \"#utility.yul\":214:436   */\n      swap3\n      swap2\n      pop\n      pop\n      jump\t// out\n        /* \"#utility.yul\":523:640   */\n    tag_169:\n        /* \"#utility.yul\":632:633   */\n      0x00\n        /* \"#utility.yul\":629:630   */\n      0x00\n        /* \"#utility.yul\":622:634   */\n      revert\n        /* \"#utility.yul\":646:763   */\n    tag_170:\n        /* \"#utility.yul\":755:756   */\n      0x00\n        /* \"#utility.yul\":752:753   */\n      0x00\n        /* \"#utility.yul\":745:757   */\n      revert\n        /* \"#utility.yul\":769:891   */\n    tag_171:\n        /* \"#utility.yul\":842:866   */\n      tag_230\n        /* \"#utility.yul\":860:865   */\n      dup2\n        /* \"#utility.yul\":842:866   */\n      tag_166\n      jump\t// in\n    tag_230:\n        /* \"#utility.yul\":835:840   */\n      dup2\n        /* \"#utility.yul\":832:867   */\n      eq\n        /* \"#utility.yul\":822:885   */\n      tag_231\n      jumpi\n        /* \"#utility.yul\":881:882   */\n      0x00\n        /* \"#utility.yul\":878:879   */\n      0x00\n        /* \"#utility.yul\":871:883   */\n      revert\n        /* \"#utility.yul\":822:885   */\n    tag_231:\n        /* \"#utility.yul\":769:891   */\n      pop\n      jump\t// out\n        /* \"#utility.yul\":897:1036   */\n    tag_172:\n        /* \"#utility.yul\":943:948   */\n      0x00\n        /* \"#utility.yul\":981:987   */\n      dup2\n        /* \"#utility.yul\":968:988   */\n      calldataload\n        /* \"#utility.yul\":959:988   */\n      swap1\n      pop\n        /* \"#utility.yul\":997:1030   */\n      tag_233\n        /* \"#utility.yul\":1024:1029   */\n      dup2\n        /* \"#utility.yul\":997:1030   */\n      tag_171\n      jump\t// in\n    tag_233:\n        /* \"#utility.yul\":897:1036   */\n      swap3\n      swap2\n      pop\n      pop\n      jump\t// out\n        /* \"#utility.yul\":1042:1371   */\n    tag_22:\n        /* \"#utility.yul\":1101:1107   */\n      0x00\n        /* \"#utility.yul\":1150:1152   */\n      0x20\n        /* \"#utility.yul\":1138:1147   */\n      dup3\n        /* \"#utility.yul\":1129:1136   */\n      dup5\n        /* \"#utility.yul\":1125:1148   */\n      sub\n        /* \"#utility.yul\":1121:1153   */\n      slt\n        /* \"#utility.yul\":1118:1237   */\n      iszero\n      tag_235\n      jumpi\n        /* \"#utility.yul\":1156:1235   */\n      tag_236\n      tag_169\n      jump\t// in\n    tag_236:\n        /* \"#utility.yul\":1118:1237   */\n    tag_235:\n        /* \"#utility.yul\":1276:1277   */\n      0x00\n        /* \"#utility.yul\":1301:1354   */\n      tag_237\n        /* \"#utility.yul\":1346:1353   */\n      dup5\n        /* \"#utility.yul\":1337:1343   */\n      dup3\n        /* \"#utility.yul\":1326:1335   */\n      dup6\n        /* \"#utility.yul\":1322:1344   */\n      add\n        /* \"#utility.yul\":1301:1354   */\n      tag_172\n      jump\t// in\n    tag_237:\n        /* \"#utility.yul\":1291:1354   */\n      swap2\n      pop\n        /* \"#utility.yul\":1247:1364   */\n      pop\n        /* \"#utility.yul\":1042:1371   */\n      swap3\n      swap2\n      pop\n      pop\n      jump\t// out\n        /* \"#utility.yul\":1377:1503   */\n    tag_173:\n        /* \"#utility.yul\":1414:1421   */\n      0x00\n        /* \"#utility.yul\":1454:1496   */\n      0xffffffffffffffffffffffffffffffffffffffff\n        /* \"#utility.yul\":1447:1452   */\n      dup3\n        /* \"#utility.yul\":1443:1497   */\n      and\n        /* \"#utility.yul\":1432:1497   */\n      swap1\n      pop\n        /* \"#utility.yul\":1377:1503   */\n      swap2\n      swap1\n      pop\n      jump\t// out\n        /* \"#utility.yul\":1509:1605   */\n    tag_174:\n        /* \"#utility.yul\":1546:1553   */\n      0x00\n        /* \"#utility.yul\":1575:1599   */\n      tag_240\n        /* \"#utility.yul\":1593:1598   */\n      dup3\n        /* \"#utility.yul\":1575:1599   */\n      tag_173\n      jump\t// in\n    tag_240:\n        /* \"#utility.yul\":1564:1599   */\n      swap1\n      pop\n        /* \"#utility.yul\":1509:1605   */\n      swap2\n      swap1\n      pop\n      jump\t// out\n        /* \"#utility.yul\":1611:1729   */\n    tag_175:\n        /* \"#utility.yul\":1698:1722   */\n      tag_242\n        /* \"#utility.yul\":1716:1721   */\n      dup2\n        /* \"#utility.yul\":1698:1722   */\n      tag_174\n      jump\t// in\n    tag_242:\n        /* \"#utility.yul\":1693:1696   */\n      dup3\n        /* \"#utility.yul\":1686:1723   */\n      mstore\n        /* \"#utility.yul\":1611:1729   */\n      pop\n      pop\n      jump\t// out\n        /* \"#utility.yul\":1735:1957   */\n    tag_25:\n        /* \"#utility.yul\":1828:1832   */\n      0x00\n        /* \"#utility.yul\":1866:1868   */\n      0x20\n        /* \"#utility.yul\":1855:1864   */\n      dup3\n        /* \"#utility.yul\":1851:1869   */\n      add\n        /* \"#utility.yul\":1843:1869   */\n      swap1\n      pop\n        /* \"#utility.yul\":1879:1950   */\n      tag_244\n        /* \"#utility.yul\":1947:1948   */\n      0x00\n        /* \"#utility.yul\":1936:1945   */\n      dup4\n        /* \"#utility.yul\":1932:1949   */\n      add\n        /* \"#utility.yul\":1923:1929   */\n      dup5\n        /* \"#utility.yul\":1879:1950   */\n      tag_175\n      jump\t// in\n    tag_244:\n        /* \"#utility.yul\":1735:1957   */\n      swap3\n      swap2\n      pop\n      pop\n      jump\t// out\n        /* \"#utility.yul\":1963:2085   */\n    tag_176:\n        /* \"#utility.yul\":2036:2060   */\n      tag_246\n        /* \"#utility.yul\":2054:2059   */\n      dup2\n        /* \"#utility.yul\":2036:2060   */\n      tag_174\n      jump\t// in\n    tag_246:\n        /* \"#utility.yul\":2029:2034   */\n      dup2\n        /* \"#utility.yul\":2026:2061   */\n      eq\n        /* \"#utility.yul\":2016:2079   */\n      tag_247\n      jumpi\n        /* \"#utility.yul\":2075:2076   */\n      0x00\n        /* \"#utility.yul\":2072:2073   */\n      0x00\n        /* \"#utility.yul\":2065:2077   */\n      revert\n        /* \"#utility.yul\":2016:2079   */\n    tag_247:\n        /* \"#utility.yul\":1963:2085   */\n      pop\n      jump\t// out\n        /* \"#utility.yul\":2091:2230   */\n    tag_177:\n        /* \"#utility.yul\":2137:2142   */\n      0x00\n        /* \"#utility.yul\":2175:2181   */\n      dup2\n        /* \"#utility.yul\":2162:2182   */\n      calldataload\n        /* \"#utility.yul\":2153:2182   */\n      swap1\n      pop\n        /* \"#utility.yul\":2191:2224   */\n      tag_249\n        /* \"#utility.yul\":2218:2223   */\n      dup2\n        /* \"#utility.yul\":2191:2224   */\n      tag_176\n      jump\t// in\n    tag_249:\n        /* \"#utility.yul\":2091:2230   */\n      swap3\n      swap2\n      pop\n      pop\n      jump\t// out\n        /* \"#utility.yul\":2236:2353   */\n    tag_178:\n        /* \"#utility.yul\":2345:2346   */\n      0x00\n        /* \"#utility.yul\":2342:2343   */\n      0x00\n        /* \"#utility.yul\":2335:2347   */\n      revert\n        /* \"#utility.yul\":2359:2476   */\n    tag_179:\n        /* \"#utility.yul\":2468:2469   */\n      0x00\n        /* \"#utility.yul\":2465:2466   */\n      0x00\n        /* \"#utility.yul\":2458:2470   */\n      revert\n        /* \"#utility.yul\":2482:2599   */\n    tag_180:\n        /* \"#utility.yul\":2591:2592   */\n      0x00\n        /* \"#utility.yul\":2588:2589   */\n      0x00\n        /* \"#utility.yul\":2581:2593   */\n      revert\n        /* \"#utility.yul\":2618:3170   */\n    tag_181:\n        /* \"#utility.yul\":2675:2683   */\n      0x00\n        /* \"#utility.yul\":2685:2691   */\n      0x00\n        /* \"#utility.yul\":2735:2738   */\n      dup4\n        /* \"#utility.yul\":2728:2732   */\n      0x1f\n        /* \"#utility.yul\":2720:2726   */\n      dup5\n        /* \"#utility.yul\":2716:2733   */\n      add\n        /* \"#utility.yul\":2712:2739   */\n      slt\n        /* \"#utility.yul\":2702:2824   */\n      tag_254\n      jumpi\n        /* \"#utility.yul\":2743:2822   */\n      tag_255\n      tag_178\n      jump\t// in\n    tag_255:\n        /* \"#utility.yul\":2702:2824   */\n    tag_254:\n        /* \"#utility.yul\":2856:2862   */\n      dup3\n        /* \"#utility.yul\":2843:2863   */\n      calldataload\n        /* \"#utility.yul\":2833:2863   */\n      swap1\n      pop\n        /* \"#utility.yul\":2886:2904   */\n      0xffffffffffffffff\n        /* \"#utility.yul\":2878:2884   */\n      dup2\n        /* \"#utility.yul\":2875:2905   */\n      gt\n        /* \"#utility.yul\":2872:2989   */\n      iszero\n      tag_256\n      jumpi\n        /* \"#utility.yul\":2908:2987   */\n      tag_257\n      tag_179\n      jump\t// in\n    tag_257:\n        /* \"#utility.yul\":2872:2989   */\n    tag_256:\n        /* \"#utility.yul\":3022:3026   */\n      0x20\n        /* \"#utility.yul\":3014:3020   */\n      dup4\n        /* \"#utility.yul\":3010:3027   */\n      add\n        /* \"#utility.yul\":2998:3027   */\n      swap2\n      pop\n        /* \"#utility.yul\":3076:3079   */\n      dup4\n        /* \"#utility.yul\":3068:3072   */\n      0x01\n        /* \"#utility.yul\":3060:3066   */\n      dup3\n        /* \"#utility.yul\":3056:3073   */\n      mul\n        /* \"#utility.yul\":3046:3054   */\n      dup4\n        /* \"#utility.yul\":3042:3074   */\n      add\n        /* \"#utility.yul\":3039:3080   */\n      gt\n        /* \"#utility.yul\":3036:3164   */\n      iszero\n      tag_258\n      jumpi\n        /* \"#utility.yul\":3083:3162   */\n      tag_259\n      tag_180\n      jump\t// in\n    tag_259:\n        /* \"#utility.yul\":3036:3164   */\n    tag_258:\n        /* \"#utility.yul\":2618:3170   */\n      swap3\n      pop\n      swap3\n      swap1\n      pop\n      jump\t// out\n        /* \"#utility.yul\":3176:3993   */\n    tag_33:\n        /* \"#utility.yul\":3264:3270   */\n      0x00\n        /* \"#utility.yul\":3272:3278   */\n      0x00\n        /* \"#utility.yul\":3280:3286   */\n      0x00\n        /* \"#utility.yul\":3288:3294   */\n      0x00\n        /* \"#utility.yul\":3337:3339   */\n      0x60\n        /* \"#utility.yul\":3325:3334   */\n      dup6\n        /* \"#utility.yul\":3316:3323   */\n      dup8\n        /* \"#utility.yul\":3312:3335   */\n      sub\n        /* \"#utility.yul\":3308:3340   */\n      slt\n        /* \"#utility.yul\":3305:3424   */\n      iszero\n      tag_261\n      jumpi\n        /* \"#utility.yul\":3343:3422   */\n      tag_262\n      tag_169\n      jump\t// in\n    tag_262:\n        /* \"#utility.yul\":3305:3424   */\n    tag_261:\n        /* \"#utility.yul\":3463:3464   */\n      0x00\n        /* \"#utility.yul\":3488:3541   */\n      tag_263\n        /* \"#utility.yul\":3533:3540   */\n      dup8\n        /* \"#utility.yul\":3524:3530   */\n      dup3\n        /* \"#utility.yul\":3513:3522   */\n      dup9\n        /* \"#utility.yul\":3509:3531   */\n      add\n        /* \"#utility.yul\":3488:3541   */\n      tag_177\n      jump\t// in\n    tag_263:\n        /* \"#utility.yul\":3478:3541   */\n      swap5\n      pop\n        /* \"#utility.yul\":3434:3551   */\n      pop\n        /* \"#utility.yul\":3590:3592   */\n      0x20\n        /* \"#utility.yul\":3616:3669   */\n      tag_264\n        /* \"#utility.yul\":3661:3668   */\n      dup8\n        /* \"#utility.yul\":3652:3658   */\n      dup3\n        /* \"#utility.yul\":3641:3650   */\n      dup9\n        /* \"#utility.yul\":3637:3659   */\n      add\n        /* \"#utility.yul\":3616:3669   */\n      tag_172\n      jump\t// in\n    tag_264:\n        /* \"#utility.yul\":3606:3669   */\n      swap4\n      pop\n        /* \"#utility.yul\":3561:3679   */\n      pop\n        /* \"#utility.yul\":3746:3748   */\n      0x40\n        /* \"#utility.yul\":3735:3744   */\n      dup6\n        /* \"#utility.yul\":3731:3749   */\n      add\n        /* \"#utility.yul\":3718:3750   */\n      calldataload\n        /* \"#utility.yul\":3777:3795   */\n      0xffffffffffffffff\n        /* \"#utility.yul\":3769:3775   */\n      dup2\n        /* \"#utility.yul\":3766:3796   */\n      gt\n        /* \"#utility.yul\":3763:3880   */\n      iszero\n      tag_265\n      jumpi\n        /* \"#utility.yul\":3799:3878   */\n      tag_266\n      tag_170\n      jump\t// in\n    tag_266:\n        /* \"#utility.yul\":3763:3880   */\n    tag_265:\n        /* \"#utility.yul\":3912:3976   */\n      tag_267\n        /* \"#utility.yul\":3968:3975   */\n      dup8\n        /* \"#utility.yul\":3959:3965   */\n      dup3\n        /* \"#utility.yul\":3948:3957   */\n      dup9\n        /* \"#utility.yul\":3944:3966   */\n      add\n        /* \"#utility.yul\":3912:3976   */\n      tag_181\n      jump\t// in\n    tag_267:\n        /* \"#utility.yul\":3894:3976   */\n      swap3\n      pop\n      swap3\n      pop\n        /* \"#utility.yul\":3689:3986   */\n      pop\n        /* \"#utility.yul\":3176:3993   */\n      swap3\n      swap6\n      swap2\n      swap5\n      pop\n      swap3\n      pop\n      jump\t// out\n        /* \"#utility.yul\":3999:4328   */\n    tag_43:\n        /* \"#utility.yul\":4058:4064   */\n      0x00\n        /* \"#utility.yul\":4107:4109   */\n      0x20\n        /* \"#utility.yul\":4095:4104   */\n      dup3\n        /* \"#utility.yul\":4086:4093   */\n      dup5\n        /* \"#utility.yul\":4082:4105   */\n      sub\n        /* \"#utility.yul\":4078:4110   */\n      slt\n        /* \"#utility.yul\":4075:4194   */\n      iszero\n      tag_269\n      jumpi\n        /* \"#utility.yul\":4113:4192   */\n      tag_270\n      tag_169\n      jump\t// in\n    tag_270:\n        /* \"#utility.yul\":4075:4194   */\n    tag_269:\n        /* \"#utility.yul\":4233:4234   */\n      0x00\n        /* \"#utility.yul\":4258:4311   */\n      tag_271\n        /* \"#utility.yul\":4303:4310   */\n      dup5\n        /* \"#utility.yul\":4294:4300   */\n      dup3\n        /* \"#utility.yul\":4283:4292   */\n      dup6\n        /* \"#utility.yul\":4279:4301   */\n      add\n        /* \"#utility.yul\":4258:4311   */\n      tag_177\n      jump\t// in\n    tag_271:\n        /* \"#utility.yul\":4248:4311   */\n      swap2\n      pop\n        /* \"#utility.yul\":4204:4321   */\n      pop\n        /* \"#utility.yul\":3999:4328   */\n      swap3\n      swap2\n      pop\n      pop\n      jump\t// out\n        /* \"#utility.yul\":4334:4424   */\n    tag_182:\n        /* \"#utility.yul\":4368:4375   */\n      0x00\n        /* \"#utility.yul\":4411:4416   */\n      dup2\n        /* \"#utility.yul\":4404:4417   */\n      iszero\n        /* \"#utility.yul\":4397:4418   */\n      iszero\n        /* \"#utility.yul\":4386:4418   */\n      swap1\n      pop\n        /* \"#utility.yul\":4334:4424   */\n      swap2\n      swap1\n      pop\n      jump\t// out\n        /* \"#utility.yul\":4430:4539   */\n    tag_183:\n        /* \"#utility.yul\":4511:4532   */\n      tag_274\n        /* \"#utility.yul\":4526:4531   */\n      dup2\n        /* \"#utility.yul\":4511:4532   */\n      tag_182\n      jump\t// in\n    tag_274:\n        /* \"#utility.yul\":4506:4509   */\n      dup3\n        /* \"#utility.yul\":4499:4533   */\n      mstore\n        /* \"#utility.yul\":4430:4539   */\n      pop\n      pop\n      jump\t// out\n        /* \"#utility.yul\":4545:4755   */\n    tag_46:\n        /* \"#utility.yul\":4632:4636   */\n      0x00\n        /* \"#utility.yul\":4670:4672   */\n      0x20\n        /* \"#utility.yul\":4659:4668   */\n      dup3\n        /* \"#utility.yul\":4655:4673   */\n      add\n        /* \"#utility.yul\":4647:4673   */\n      swap1\n      pop\n        /* \"#utility.yul\":4683:4748   */\n      tag_276\n        /* \"#utility.yul\":4745:4746   */\n      0x00\n        /* \"#utility.yul\":4734:4743   */\n      dup4\n        /* \"#utility.yul\":4730:4747   */\n      add\n        /* \"#utility.yul\":4721:4727   */\n      dup5\n        /* \"#utility.yul\":4683:4748   */\n      tag_183\n      jump\t// in\n    tag_276:\n        /* \"#utility.yul\":4545:4755   */\n      swap3\n      swap2\n      pop\n      pop\n      jump\t// out\n        /* \"#utility.yul\":4761:5235   */\n    tag_50:\n        /* \"#utility.yul\":4829:4835   */\n      0x00\n        /* \"#utility.yul\":4837:4843   */\n      0x00\n        /* \"#utility.yul\":4886:4888   */\n      0x40\n        /* \"#utility.yul\":4874:4883   */\n      dup4\n        /* \"#utility.yul\":4865:4872   */\n      dup6\n        /* \"#utility.yul\":4861:4884   */\n      sub\n        /* \"#utility.yul\":4857:4889   */\n      slt\n        /* \"#utility.yul\":4854:4973   */\n      iszero\n      tag_278\n      jumpi\n        /* \"#utility.yul\":4892:4971   */\n      tag_279\n      tag_169\n      jump\t// in\n    tag_279:\n        /* \"#utility.yul\":4854:4973   */\n    tag_278:\n        /* \"#utility.yul\":5012:5013   */\n      0x00\n        /* \"#utility.yul\":5037:5090   */\n      tag_280\n        /* \"#utility.yul\":5082:5089   */\n      dup6\n        /* \"#utility.yul\":5073:5079   */\n      dup3\n        /* \"#utility.yul\":5062:5071   */\n      dup7\n        /* \"#utility.yul\":5058:5080   */\n      add\n        /* \"#utility.yul\":5037:5090   */\n      tag_172\n      jump\t// in\n    tag_280:\n        /* \"#utility.yul\":5027:5090   */\n      swap3\n      pop\n        /* \"#utility.yul\":4983:5100   */\n      pop\n        /* \"#utility.yul\":5139:5141   */\n      0x20\n        /* \"#utility.yul\":5165:5218   */\n      tag_281\n        /* \"#utility.yul\":5210:5217   */\n      dup6\n        /* \"#utility.yul\":5201:5207   */\n      dup3\n        /* \"#utility.yul\":5190:5199   */\n      dup7\n        /* \"#utility.yul\":5186:5208   */\n      add\n        /* \"#utility.yul\":5165:5218   */\n      tag_177\n      jump\t// in\n    tag_281:\n        /* \"#utility.yul\":5155:5218   */\n      swap2\n      pop\n        /* \"#utility.yul\":5110:5228   */\n      pop\n        /* \"#utility.yul\":4761:5235   */\n      swap3\n      pop\n      swap3\n      swap1\n      pop\n      jump\t// out\n        /* \"#utility.yul\":5241:5339   */\n    tag_184:\n        /* \"#utility.yul\":5292:5298   */\n      0x00\n        /* \"#utility.yul\":5326:5331   */\n      dup2\n        /* \"#utility.yul\":5320:5332   */\n      mload\n        /* \"#utility.yul\":5310:5332   */\n      swap1\n      pop\n        /* \"#utility.yul\":5241:5339   */\n      swap2\n      swap1\n      pop\n      jump\t// out\n        /* \"#utility.yul\":5345:5513   */\n    tag_185:\n        /* \"#utility.yul\":5428:5439   */\n      0x00\n        /* \"#utility.yul\":5462:5468   */\n      dup3\n        /* \"#utility.yul\":5457:5460   */\n      dup3\n        /* \"#utility.yul\":5450:5469   */\n      mstore\n        /* \"#utility.yul\":5502:5506   */\n      0x20\n        /* \"#utility.yul\":5497:5500   */\n      dup3\n        /* \"#utility.yul\":5493:5507   */\n      add\n        /* \"#utility.yul\":5478:5507   */\n      swap1\n      pop\n        /* \"#utility.yul\":5345:5513   */\n      swap3\n      swap2\n      pop\n      pop\n      jump\t// out\n        /* \"#utility.yul\":5519:5658   */\n    tag_186:\n        /* \"#utility.yul\":5608:5614   */\n      dup3\n        /* \"#utility.yul\":5603:5606   */\n      dup2\n        /* \"#utility.yul\":5598:5601   */\n      dup4\n        /* \"#utility.yul\":5592:5615   */\n      mcopy\n        /* \"#utility.yul\":5649:5650   */\n      0x00\n        /* \"#utility.yul\":5640:5646   */\n      dup4\n        /* \"#utility.yul\":5635:5638   */\n      dup4\n        /* \"#utility.yul\":5631:5647   */\n      add\n        /* \"#utility.yul\":5624:5651   */\n      mstore\n        /* \"#utility.yul\":5519:5658   */\n      pop\n      pop\n      pop\n      jump\t// out\n        /* \"#utility.yul\":5664:5766   */\n    tag_187:\n        /* \"#utility.yul\":5705:5711   */\n      0x00\n        /* \"#utility.yul\":5756:5758   */\n      0x1f\n        /* \"#utility.yul\":5752:5759   */\n      not\n        /* \"#utility.yul\":5747:5749   */\n      0x1f\n        /* \"#utility.yul\":5740:5745   */\n      dup4\n        /* \"#utility.yul\":5736:5750   */\n      add\n        /* \"#utility.yul\":5732:5760   */\n      and\n        /* \"#utility.yul\":5722:5760   */\n      swap1\n      pop\n        /* \"#utility.yul\":5664:5766   */\n      swap2\n      swap1\n      pop\n      jump\t// out\n        /* \"#utility.yul\":5772:6145   */\n    tag_188:\n        /* \"#utility.yul\":5858:5861   */\n      0x00\n        /* \"#utility.yul\":5886:5924   */\n      tag_287\n        /* \"#utility.yul\":5918:5923   */\n      dup3\n        /* \"#utility.yul\":5886:5924   */\n      tag_184\n      jump\t// in\n    tag_287:\n        /* \"#utility.yul\":5940:6010   */\n      tag_288\n        /* \"#utility.yul\":6003:6009   */\n      dup2\n        /* \"#utility.yul\":5998:6001   */\n      dup6\n        /* \"#utility.yul\":5940:6010   */\n      tag_185\n      jump\t// in\n    tag_288:\n        /* \"#utility.yul\":5933:6010   */\n      swap4\n      pop\n        /* \"#utility.yul\":6019:6084   */\n      tag_289\n        /* \"#utility.yul\":6077:6083   */\n      dup2\n        /* \"#utility.yul\":6072:6075   */\n      dup6\n        /* \"#utility.yul\":6065:6069   */\n      0x20\n        /* \"#utility.yul\":6058:6063   */\n      dup7\n        /* \"#utility.yul\":6054:6070   */\n      add\n        /* \"#utility.yul\":6019:6084   */\n      tag_186\n      jump\t// in\n    tag_289:\n        /* \"#utility.yul\":6109:6138   */\n      tag_290\n        /* \"#utility.yul\":6131:6137   */\n      dup2\n        /* \"#utility.yul\":6109:6138   */\n      tag_187\n      jump\t// in\n    tag_290:\n        /* \"#utility.yul\":6104:6107   */\n      dup5\n        /* \"#utility.yul\":6100:6139   */\n      add\n        /* \"#utility.yul\":6093:6139   */\n      swap2\n      pop\n        /* \"#utility.yul\":5862:6145   */\n      pop\n        /* \"#utility.yul\":5772:6145   */\n      swap3\n      swap2\n      pop\n      pop\n      jump\t// out\n        /* \"#utility.yul\":6151:6779   */\n    tag_63:\n        /* \"#utility.yul\":6340:6344   */\n      0x00\n        /* \"#utility.yul\":6378:6381   */\n      0x80\n        /* \"#utility.yul\":6367:6376   */\n      dup3\n        /* \"#utility.yul\":6363:6382   */\n      add\n        /* \"#utility.yul\":6355:6382   */\n      swap1\n      pop\n        /* \"#utility.yul\":6392:6463   */\n      tag_292\n        /* \"#utility.yul\":6460:6461   */\n      0x00\n        /* \"#utility.yul\":6449:6458   */\n      dup4\n        /* \"#utility.yul\":6445:6462   */\n      add\n        /* \"#utility.yul\":6436:6442   */\n      dup8\n        /* \"#utility.yul\":6392:6463   */\n      tag_175\n      jump\t// in\n    tag_292:\n        /* \"#utility.yul\":6473:6545   */\n      tag_293\n        /* \"#utility.yul\":6541:6543   */\n      0x20\n        /* \"#utility.yul\":6530:6539   */\n      dup4\n        /* \"#utility.yul\":6526:6544   */\n      add\n        /* \"#utility.yul\":6517:6523   */\n      dup7\n        /* \"#utility.yul\":6473:6545   */\n      tag_167\n      jump\t// in\n    tag_293:\n        /* \"#utility.yul\":6592:6601   */\n      dup2\n        /* \"#utility.yul\":6586:6590   */\n      dup2\n        /* \"#utility.yul\":6582:6602   */\n      sub\n        /* \"#utility.yul\":6577:6579   */\n      0x40\n        /* \"#utility.yul\":6566:6575   */\n      dup4\n        /* \"#utility.yul\":6562:6580   */\n      add\n        /* \"#utility.yul\":6555:6603   */\n      mstore\n        /* \"#utility.yul\":6620:6696   */\n      tag_294\n        /* \"#utility.yul\":6691:6695   */\n      dup2\n        /* \"#utility.yul\":6682:6688   */\n      dup6\n        /* \"#utility.yul\":6620:6696   */\n      tag_188\n      jump\t// in\n    tag_294:\n        /* \"#utility.yul\":6612:6696   */\n      swap1\n      pop\n        /* \"#utility.yul\":6706:6772   */\n      tag_295\n        /* \"#utility.yul\":6768:6770   */\n      0x60\n        /* \"#utility.yul\":6757:6766   */\n      dup4\n        /* \"#utility.yul\":6753:6771   */\n      add\n        /* \"#utility.yul\":6744:6750   */\n      dup5\n        /* \"#utility.yul\":6706:6772   */\n      tag_183\n      jump\t// in\n    tag_295:\n        /* \"#utility.yul\":6151:6779   */\n      swap6\n      swap5\n      pop\n      pop\n      pop\n      pop\n      pop\n      jump\t// out\n        /* \"#utility.yul\":6785:6954   */\n    tag_189:\n        /* \"#utility.yul\":6869:6880   */\n      0x00\n        /* \"#utility.yul\":6903:6909   */\n      dup3\n        /* \"#utility.yul\":6898:6901   */\n      dup3\n        /* \"#utility.yul\":6891:6910   */\n      mstore\n        /* \"#utility.yul\":6943:6947   */\n      0x20\n        /* \"#utility.yul\":6938:6941   */\n      dup3\n        /* \"#utility.yul\":6934:6948   */\n      add\n        /* \"#utility.yul\":6919:6948   */\n      swap1\n      pop\n        /* \"#utility.yul\":6785:6954   */\n      swap3\n      swap2\n      pop\n      pop\n      jump\t// out\n        /* \"#utility.yul\":6960:7119   */\n    tag_190:\n        /* \"#utility.yul\":7100:7111   */\n      0x6e6f74206f776e65720000000000000000000000000000000000000000000000\n        /* \"#utility.yul\":7096:7097   */\n      0x00\n        /* \"#utility.yul\":7088:7094   */\n      dup3\n        /* \"#utility.yul\":7084:7098   */\n      add\n        /* \"#utility.yul\":7077:7112   */\n      mstore\n        /* \"#utility.yul\":6960:7119   */\n      pop\n      jump\t// out\n        /* \"#utility.yul\":7125:7490   */\n    tag_191:\n        /* \"#utility.yul\":7267:7270   */\n      0x00\n        /* \"#utility.yul\":7288:7354   */\n      tag_299\n        /* \"#utility.yul\":7352:7353   */\n      0x09\n        /* \"#utility.yul\":7347:7350   */\n      dup4\n        /* \"#utility.yul\":7288:7354   */\n      tag_189\n      jump\t// in\n    tag_299:\n        /* \"#utility.yul\":7281:7354   */\n      swap2\n      pop\n        /* \"#utility.yul\":7363:7456   */\n      tag_300\n        /* \"#utility.yul\":7452:7455   */\n      dup3\n        /* \"#utility.yul\":7363:7456   */\n      tag_190\n      jump\t// in\n    tag_300:\n        /* \"#utility.yul\":7481:7483   */\n      0x20\n        /* \"#utility.yul\":7476:7479   */\n      dup3\n        /* \"#utility.yul\":7472:7484   */\n      add\n        /* \"#utility.yul\":7465:7484   */\n      swap1\n      pop\n        /* \"#utility.yul\":7125:7490   */\n      swap2\n      swap1\n      pop\n      jump\t// out\n        /* \"#utility.yul\":7496:7915   */\n    tag_82:\n        /* \"#utility.yul\":7662:7666   */\n      0x00\n        /* \"#utility.yul\":7700:7702   */\n      0x20\n        /* \"#utility.yul\":7689:7698   */\n      dup3\n        /* \"#utility.yul\":7685:7703   */\n      add\n        /* \"#utility.yul\":7677:7703   */\n      swap1\n      pop\n        /* \"#utility.yul\":7749:7758   */\n      dup2\n        /* \"#utility.yul\":7743:7747   */\n      dup2\n        /* \"#utility.yul\":7739:7759   */\n      sub\n        /* \"#utility.yul\":7735:7736   */\n      0x00\n        /* \"#utility.yul\":7724:7733   */\n      dup4\n        /* \"#utility.yul\":7720:7737   */\n      add\n        /* \"#utility.yul\":7713:7760   */\n      mstore\n        /* \"#utility.yul\":7777:7908   */\n      tag_302\n        /* \"#utility.yul\":7903:7907   */\n      dup2\n        /* \"#utility.yul\":7777:7908   */\n      tag_191\n      jump\t// in\n    tag_302:\n        /* \"#utility.yul\":7769:7908   */\n      swap1\n      pop\n        /* \"#utility.yul\":7496:7915   */\n      swap2\n      swap1\n      pop\n      jump\t// out\n        /* \"#utility.yul\":7921:8101   */\n    tag_192:\n        /* \"#utility.yul\":7969:8046   */\n      0x4e487b7100000000000000000000000000000000000000000000000000000000\n        /* \"#utility.yul\":7966:7967   */\n      0x00\n        /* \"#utility.yul\":7959:8047   */\n      mstore\n        /* \"#utility.yul\":8066:8070   */\n      0x41\n        /* \"#utility.yul\":8063:8064   */\n      0x04\n        /* \"#utility.yul\":8056:8071   */\n      mstore\n        /* \"#utility.yul\":8090:8094   */\n      0x24\n        /* \"#utility.yul\":8087:8088   */\n      0x00\n        /* \"#utility.yul\":8080:8095   */\n      revert\n        /* \"#utility.yul\":8107:8287   */\n    tag_193:\n        /* \"#utility.yul\":8155:8232   */\n      0x4e487b7100000000000000000000000000000000000000000000000000000000\n        /* \"#utility.yul\":8152:8153   */\n      0x00\n        /* \"#utility.yul\":8145:8233   */\n      mstore\n        /* \"#utility.yul\":8252:8256   */\n      0x22\n        /* \"#utility.yul\":8249:8250   */\n      0x04\n        /* \"#utility.yul\":8242:8257   */\n      mstore\n        /* \"#utility.yul\":8276:8280   */\n      0x24\n        /* \"#utility.yul\":8273:8274   */\n      0x00\n        /* \"#utility.yul\":8266:8281   */\n      revert\n        /* \"#utility.yul\":8293:8613   */\n    tag_122:\n        /* \"#utility.yul\":8337:8343   */\n      0x00\n        /* \"#utility.yul\":8374:8375   */\n      0x02\n        /* \"#utility.yul\":8368:8372   */\n      dup3\n        /* \"#utility.yul\":8364:8376   */\n      div\n        /* \"#utility.yul\":8354:8376   */\n      swap1\n      pop\n        /* \"#utility.yul\":8421:8422   */\n      0x01\n        /* \"#utility.yul\":8415:8419   */\n      dup3\n        /* \"#utility.yul\":8411:8423   */\n      and\n        /* \"#utility.yul\":8442:8460   */\n      dup1\n        /* \"#utility.yul\":8432:8513   */\n      tag_306\n      jumpi\n        /* \"#utility.yul\":8498:8502   */\n      0x7f\n        /* \"#utility.yul\":8490:8496   */\n      dup3\n        /* \"#utility.yul\":8486:8503   */\n      and\n        /* \"#utility.yul\":8476:8503   */\n      swap2\n      pop\n        /* \"#utility.yul\":8432:8513   */\n    tag_306:\n        /* \"#utility.yul\":8560:8562   */\n      0x20\n        /* \"#utility.yul\":8552:8558   */\n      dup3\n        /* \"#utility.yul\":8549:8563   */\n      lt\n        /* \"#utility.yul\":8529:8547   */\n      dup2\n        /* \"#utility.yul\":8526:8564   */\n      sub\n        /* \"#utility.yul\":8523:8607   */\n      tag_307\n      jumpi\n        /* \"#utility.yul\":8579:8597   */\n      tag_308\n      tag_193\n      jump\t// in\n    tag_308:\n        /* \"#utility.yul\":8523:8607   */\n    tag_307:\n        /* \"#utility.yul\":8344:8613   */\n      pop\n        /* \"#utility.yul\":8293:8613   */\n      swap2\n      swap1\n      pop\n      jump\t// out\n        /* \"#utility.yul\":8619:8759   */\n    tag_194:\n        /* \"#utility.yul\":8667:8671   */\n      0x00\n        /* \"#utility.yul\":8690:8693   */\n      dup2\n        /* \"#utility.yul\":8682:8693   */\n      swap1\n      pop\n        /* \"#utility.yul\":8713:8716   */\n      dup2\n        /* \"#utility.yul\":8710:8711   */\n      0x00\n        /* \"#utility.yul\":8703:8717   */\n      mstore\n        /* \"#utility.yul\":8747:8751   */\n      0x20\n        /* \"#utility.yul\":8744:8745   */\n      0x00\n        /* \"#utility.yul\":8734:8752   */\n      keccak256\n        /* \"#utility.yul\":8726:8752   */\n      swap1\n      pop\n        /* \"#utility.yul\":8619:8759   */\n      swap2\n      swap1\n      pop\n      jump\t// out\n        /* \"#utility.yul\":8765:8858   */\n    tag_195:\n        /* \"#utility.yul\":8802:8808   */\n      0x00\n        /* \"#utility.yul\":8849:8851   */\n      0x20\n        /* \"#utility.yul\":8844:8846   */\n      0x1f\n        /* \"#utility.yul\":8837:8842   */\n      dup4\n        /* \"#utility.yul\":8833:8847   */\n      add\n        /* \"#utility.yul\":8829:8852   */\n      div\n        /* \"#utility.yul\":8819:8852   */\n      swap1\n      pop\n        /* \"#utility.yul\":8765:8858   */\n      swap2\n      swap1\n      pop\n      jump\t// out\n        /* \"#utility.yul\":8864:8971   */\n    tag_196:\n        /* \"#utility.yul\":8908:8916   */\n      0x00\n        /* \"#utility.yul\":8958:8963   */\n      dup3\n        /* \"#utility.yul\":8952:8956   */\n      dup3\n        /* \"#utility.yul\":8948:8964   */\n      shl\n        /* \"#utility.yul\":8927:8964   */\n      swap1\n      pop\n        /* \"#utility.yul\":8864:8971   */\n      swap3\n      swap2\n      pop\n      pop\n      jump\t// out\n        /* \"#utility.yul\":8977:9370   */\n    tag_197:\n        /* \"#utility.yul\":9046:9052   */\n      0x00\n        /* \"#utility.yul\":9096:9097   */\n      0x08\n        /* \"#utility.yul\":9084:9094   */\n      dup4\n        /* \"#utility.yul\":9080:9098   */\n      mul\n        /* \"#utility.yul\":9119:9216   */\n      tag_313\n        /* \"#utility.yul\":9149:9215   */\n      0xffffffffffffffffffffffffffffffffffffffffffffffffffffffffffffffff\n        /* \"#utility.yul\":9138:9147   */\n      dup3\n        /* \"#utility.yul\":9119:9216   */\n      tag_196\n      jump\t// in\n    tag_313:\n        /* \"#utility.yul\":9237:9276   */\n      tag_314\n        /* \"#utility.yul\":9267:9275   */\n      dup7\n        /* \"#utility.yul\":9256:9265   */\n      dup4\n        /* \"#utility.yul\":9237:9276   */\n      tag_196\n      jump\t// in\n    tag_314:\n        /* \"#utility.yul\":9225:9276   */\n      swap6\n      pop\n        /* \"#utility.yul\":9309:9313   */\n      dup1\n        /* \"#utility.yul\":9305:9314   */\n      not\n        /* \"#utility.yul\":9298:9303   */\n      dup5\n        /* \"#utility.yul\":9294:9315   */\n      and\n        /* \"#utility.yul\":9285:9315   */\n      swap4\n      pop\n        /* \"#utility.yul\":9358:9362   */\n      dup1\n        /* \"#utility.yul\":9348:9356   */\n      dup7\n        /* \"#utility.yul\":9344:9363   */\n      and\n        /* \"#utility.yul\":9337:9342   */\n      dup5\n        /* \"#utility.yul\":9334:9364   */\n      or\n        /* \"#utility.yul\":9324:9364   */\n      swap3\n      pop\n        /* \"#utility.yul\":9053:9370   */\n      pop\n      pop\n        /* \"#utility.yul\":8977:9370   */\n      swap4\n      swap3\n      pop\n      pop\n      pop\n      jump\t// out\n        /* \"#utility.yul\":9376:9436   */\n    tag_198:\n        /* \"#utility.yul\":9404:9407   */\n      0x00\n        /* \"#utility.yul\":9425:9430   */\n      dup2\n        /* \"#utility.yul\":9418:9430   */\n      swap1\n      pop\n        /* \"#utility.yul\":9376:9436   */\n      swap2\n      swap1\n      pop\n      jump\t// out\n        /* \"#utility.yul\":9442:9584   */\n    tag_199:\n        /* \"#utility.yul\":9492:9501   */\n      0x00\n        /* \"#utility.yul\":9525:9578   */\n      tag_317\n        /* \"#utility.yul\":9543:9577   */\n      tag_318\n        /* \"#utility.yul\":9552:9576   */\n      tag_319\n        /* \"#utility.yul\":9570:9575   */\n      dup5\n        /* \"#utility.yul\":9552:9576   */\n      tag_166\n      jump\t// in\n    tag_319:\n        /* \"#utility.yul\":9543:9577   */\n      tag_198\n      jump\t// in\n    tag_318:\n        /* \"#utility.yul\":9525:9578   */\n      tag_166\n      jump\t// in\n    tag_317:\n        /* \"#utility.yul\":9512:9578   */\n      swap1\n      pop\n        /* \"#utility.yul\":9442:9584   */\n      swap2\n      swap1\n      pop\n      jump\t// out\n        /* \"#utility.yul\":9590:9665   */\n    tag_200:\n        /* \"#utility.yul\":9633:9636   */\n      0x00\n        /* \"#utility.yul\":9654:9659   */\n      dup2\n        /* \"#utility.yul\":9647:9659   */\n      swap1\n      pop\n        /* \"#utility.yul\":9590:9665   */\n      swap2\n      swap1\n      pop\n      jump\t// out\n        /* \"#utility.yul\":9671:9940   */\n    tag_201:\n        /* \"#utility.yul\":9781:9820   */\n      tag_322\n        /* \"#utility.yul\":9812:9819   */\n      dup4\n        /* \"#utility.yul\":9781:9820   */\n      tag_199\n      jump\t// in\n    tag_322:\n        /* \"#utility.yul\":9842:9933   */\n      tag_323\n        /* \"#utility.yul\":9891:9932   */\n      tag_324\n        /* \"#utility.yul\":9915:9931   */\n      dup3\n        /* \"#utility.yul\":9891:9932   */\n      tag_200\n      jump\t// in\n    tag_324:\n        /* \"#utility.yul\":9883:9889   */\n      dup5\n        /* \"#utility.yul\":9876:9880   */\n      dup5\n        /* \"#utility.yul\":9870:9881   */\n      sload\n        /* \"#utility.yul\":9842:9933   */\n      tag_197\n      jump\t// in\n    tag_323:\n        /* \"#utility.yul\":9836:9840   */\n      dup3\n        /* \"#utility.yul\":9829:9934   */\n      sstore\n        /* \"#utility.yul\":9747:9940   */\n      pop\n        /* \"#utility.yul\":9671:9940   */\n      pop\n      pop\n      pop\n      jump\t// out\n        /* \"#utility.yul\":9946:10019   */\n    tag_202:\n        /* \"#utility.yul\":9991:9994   */\n      0x00\n        /* \"#utility.yul\":10012:10013   */\n      0x00\n        /* \"#utility.yul\":10005:10013   */\n      swap1\n      pop\n        /* \"#utility.yul\":9946:10019   */\n      swap1\n      jump\t// out\n        /* \"#utility.yul\":10025:10214   */\n    tag_203:\n        /* \"#utility.yul\":10102:10134   */\n      tag_327\n      tag_202\n      jump\t// in\n    tag_327:\n        /* \"#utility.yul\":10143:10208   */\n      tag_328\n        /* \"#utility.yul\":10201:10207   */\n      dup2\n        /* \"#utility.yul\":10193:10199   */\n      dup5\n        /* \"#utility.yul\":10187:10191   */\n      dup5\n        /* \"#utility.yul\":10143:10208   */\n      tag_201\n      jump\t// in\n    tag_328:\n        /* \"#utility.yul\":10078:10214   */\n      pop\n        /* \"#utility.yul\":10025:10214   */\n      pop\n      pop\n      jump\t// out\n        /* \"#utility.yul\":10220:10406   */\n    tag_204:\n        /* \"#utility.yul\":10280:10400   */\n    tag_330:\n        /* \"#utility.yul\":10297:10300   */\n      dup2\n        /* \"#utility.yul\":10290:10295   */\n      dup2\n        /* \"#utility.yul\":10287:10301   */\n      lt\n        /* \"#utility.yul\":10280:10400   */\n      iszero\n      tag_332\n      jumpi\n        /* \"#utility.yul\":10351:10390   */\n      tag_333\n        /* \"#utility.yul\":10388:10389   */\n      0x00\n        /* \"#utility.yul\":10381:10386   */\n      dup3\n        /* \"#utility.yul\":10351:10390   */\n      tag_203\n      jump\t// in\n    tag_333:\n        /* \"#utility.yul\":10324:10325   */\n      0x01\n        /* \"#utility.yul\":10317:10322   */\n      dup2\n        /* \"#utility.yul\":10313:10326   */\n      add\n        /* \"#utility.yul\":10304:10326   */\n      swap1\n      pop\n        /* \"#utility.yul\":10280:10400   */\n      jump(tag_330)\n    tag_332:\n        /* \"#utility.yul\":10220:10406   */\n      pop\n      pop\n      jump\t// out\n        /* \"#utility.yul\":10412:10953   */\n    tag_205:\n        /* \"#utility.yul\":10512:10514   */\n      0x1f\n        /* \"#utility.yul\":10507:10510   */\n      dup3\n        /* \"#utility.yul\":10504:10515   */\n      gt\n        /* \"#utility.yul\":10501:10946   */\n      iszero\n      tag_335\n      jumpi\n        /* \"#utility.yul\":10546:10583   */\n      tag_336\n        /* \"#utility.yul\":10577:10582   */\n      dup2\n        /* \"#utility.yul\":10546:10583   */\n      tag_194\n      jump\t// in\n    tag_336:\n        /* \"#utility.yul\":10629:10658   */\n      tag_337\n        /* \"#utility.yul\":10647:10657   */\n      dup5\n        /* \"#utility.yul\":10629:10658   */\n      tag_195\n      jump\t// in\n    tag_337:\n        /* \"#utility.yul\":10619:10627   */\n      dup2\n        /* \"#utility.yul\":10615:10659   */\n      add\n        /* \"#utility.yul\":10812:10814   */\n      0x20\n        /* \"#utility.yul\":10800:10810   */\n      dup6\n        /* \"#utility.yul\":10797:10815   */\n      lt\n        /* \"#utility.yul\":10794:10843   */\n      iszero\n      tag_338\n      jumpi\n        /* \"#utility.yul\":10833:10841   */\n      dup2\n        /* \"#utility.yul\":10818:10841   */\n      swap1\n      pop\n        /* \"#utility.yul\":10794:10843   */\n    tag_338:\n        /* \"#utility.yul\":10856:10936   */\n      tag_339\n        /* \"#utility.yul\":10912:10934   */\n      tag_340\n        /* \"#utility.yul\":10930:10933   */\n      dup6\n        /* \"#utility.yul\":10912:10934   */\n      tag_195\n      jump\t// in\n    tag_340:\n        /* \"#utility.yul\":10902:10910   */\n      dup4\n        /* \"#utility.yul\":10898:10935   */\n      add\n        /* \"#utility.yul\":10885:10896   */\n      dup3\n        /* \"#utility.yul\":10856:10936   */\n      tag_204\n      jump\t// in\n    tag_339:\n        /* \"#utility.yul\":10516:10946   */\n      pop\n      pop\n        /* \"#utility.yul\":10501:10946   */\n    tag_335:\n        /* \"#utility.yul\":10412:10953   */\n      pop\n      pop\n      pop\n      jump\t// out\n        /* \"#utility.yul\":10959:11076   */\n    tag_206:\n        /* \"#utility.yul\":11013:11021   */\n      0x00\n        /* \"#utility.yul\":11063:11068   */\n      dup3\n        /* \"#utility.yul\":11057:11061   */\n      dup3\n        /* \"#utility.yul\":11053:11069   */\n      shr\n        /* \"#utility.yul\":11032:11069   */\n      swap1\n      pop\n        /* \"#utility.yul\":10959:11076   */\n      swap3\n      swap2\n      pop\n      pop\n      jump\t// out\n        /* \"#utility.yul\":11082:11251   */\n    tag_207:\n        /* \"#utility.yul\":11126:11132   */\n      0x00\n        /* \"#utility.yul\":11159:11210   */\n      tag_343\n        /* \"#utility.yul\":11207:11208   */\n      0x00\n        /* \"#utility.yul\":11203:11209   */\n      not\n        /* \"#utility.yul\":11195:11200   */\n      dup5\n        /* \"#utility.yul\":11192:11193   */\n      0x08\n        /* \"#utility.yul\":11188:11201   */\n      mul\n        /* \"#utility.yul\":11159:11210   */\n      tag_206\n      jump\t// in\n    tag_343:\n        /* \"#utility.yul\":11155:11211   */\n      not\n        /* \"#utility.yul\":11240:11244   */\n      dup1\n        /* \"#utility.yul\":11234:11238   */\n      dup4\n        /* \"#utility.yul\":11230:11245   */\n      and\n        /* \"#utility.yul\":11220:11245   */\n      swap2\n      pop\n        /* \"#utility.yul\":11133:11251   */\n      pop\n        /* \"#utility.yul\":11082:11251   */\n      swap3\n      swap2\n      pop\n      pop\n      jump\t// out\n        /* \"#utility.yul\":11256:11551   */\n    tag_208:\n        /* \"#utility.yul\":11332:11336   */\n      0x00\n        /* \"#utility.yul\":11478:11507   */\n      tag_345\n        /* \"#utility.yul\":11503:11506   */\n      dup4\n        /* \"#utility.yul\":11497:11501   */\n      dup4\n        /* \"#utility.yul\":11478:11507   */\n      tag_207\n      jump\t// in\n    tag_345:\n        /* \"#utility.yul\":11470:11507   */\n      swap2\n      pop\n        /* \"#utility.yul\":11540:11543   */\n      dup3\n        /* \"#utility.yul\":11537:11538   */\n      0x02\n        /* \"#utility.yul\":11533:11544   */\n      mul\n        /* \"#utility.yul\":11527:11531   */\n      dup3\n        /* \"#utility.yul\":11524:11545   */\n      or\n        /* \"#utility.yul\":11516:11545   */\n      swap1\n      pop\n        /* \"#utility.yul\":11256:11551   */\n      swap3\n      swap2\n      pop\n      pop\n      jump\t// out\n        /* \"#utility.yul\":11556:12946   */\n    tag_86:\n        /* \"#utility.yul\":11671:11707   */\n      tag_347\n        /* \"#utility.yul\":11703:11706   */\n      dup3\n        /* \"#utility.yul\":11671:11707   */\n      tag_184\n      jump\t// in\n    tag_347:\n        /* \"#utility.yul\":11772:11790   */\n      0xffffffffffffffff\n        /* \"#utility.yul\":11764:11770   */\n      dup2\n        /* \"#utility.yul\":11761:11791   */\n      gt\n        /* \"#utility.yul\":11758:11814   */\n      iszero\n      tag_348\n      jumpi\n        /* \"#utility.yul\":11794:11812   */\n      tag_349\n      tag_192\n      jump\t// in\n    tag_349:\n        /* \"#utility.yul\":11758:11814   */\n    tag_348:\n        /* \"#utility.yul\":11838:11876   */\n      tag_350\n        /* \"#utility.yul\":11870:11874   */\n      dup3\n        /* \"#utility.yul\":11864:11875   */\n      sload\n        /* \"#utility.yul\":11838:11876   */\n      tag_122\n      jump\t// in\n    tag_350:\n        /* \"#utility.yul\":11923:11989   */\n      tag_351\n        /* \"#utility.yul\":11982:11988   */\n      dup3\n        /* \"#utility.yul\":11974:11980   */\n      dup3\n        /* \"#utility.yul\":11968:11972   */\n      dup6\n        /* \"#utility.yul\":11923:11989   */\n      tag_205\n      jump\t// in\n    tag_351:\n        /* \"#utility.yul\":12016:12017   */\n      0x00\n        /* \"#utility.yul\":12040:12044   */\n      0x20\n        /* \"#utility.yul\":12027:12044   */\n      swap1\n      pop\n        /* \"#utility.yul\":12072:12074   */\n      0x1f\n        /* \"#utility.yul\":12064:12070   */\n      dup4\n        /* \"#utility.yul\":12061:12075   */\n      gt\n        /* \"#utility.yul\":12089:12090   */\n      0x01\n        /* \"#utility.yul\":12084:12701   */\n      dup2\n      eq\n      tag_353\n      jumpi\n        /* \"#utility.yul\":12745:12746   */\n      0x00\n        /* \"#utility.yul\":12762:12768   */\n      dup5\n        /* \"#utility.yul\":12759:12836   */\n      iszero\n      tag_354\n      jumpi\n        /* \"#utility.yul\":12811:12820   */\n      dup3\n        /* \"#utility.yul\":12806:12809   */\n      dup8\n        /* \"#utility.yul\":12802:12821   */\n      add\n        /* \"#utility.yul\":12796:12822   */\n      mload\n        /* \"#utility.yul\":12787:12822   */\n      swap1\n      pop\n        /* \"#utility.yul\":12759:12836   */\n    tag_354:\n        /* \"#utility.yul\":12862:12929   */\n      tag_355\n        /* \"#utility.yul\":12922:12928   */\n      dup6\n        /* \"#utility.yul\":12915:12920   */\n      dup3\n        /* \"#utility.yul\":12862:12929   */\n      tag_208\n      jump\t// in\n    tag_355:\n        /* \"#utility.yul\":12856:12860   */\n      dup7\n        /* \"#utility.yul\":12849:12930   */\n      sstore\n        /* \"#utility.yul\":12718:12940   */\n      pop\n        /* \"#utility.yul\":12054:12940   */\n      jump(tag_352)\n        /* \"#utility.yul\":12084:12701   */\n    tag_353:\n        /* \"#utility.yul\":12136:12140   */\n      0x1f\n        /* \"#utility.yul\":12132:12141   */\n      not\n        /* \"#utility.yul\":12124:12130   */\n      dup5\n        /* \"#utility.yul\":12120:12142   */\n      and\n        /* \"#utility.yul\":12170:12206   */\n      tag_356\n        /* \"#utility.yul\":12201:12205   */\n      dup7\n        /* \"#utility.yul\":12170:12206   */\n      tag_194\n      jump\t// in\n    tag_356:\n        /* \"#utility.yul\":12228:12229   */\n      0x00\n        /* \"#utility.yul\":12242:12450   */\n    tag_357:\n        /* \"#utility.yul\":12256:12263   */\n      dup3\n        /* \"#utility.yul\":12253:12254   */\n      dup2\n        /* \"#utility.yul\":12250:12264   */\n      lt\n        /* \"#utility.yul\":12242:12450   */\n      iszero\n      tag_359\n      jumpi\n        /* \"#utility.yul\":12335:12344   */\n      dup5\n        /* \"#utility.yul\":12330:12333   */\n      dup10\n        /* \"#utility.yul\":12326:12345   */\n      add\n        /* \"#utility.yul\":12320:12346   */\n      mload\n        /* \"#utility.yul\":12312:12318   */\n      dup3\n        /* \"#utility.yul\":12305:12347   */\n      sstore\n        /* \"#utility.yul\":12386:12387   */\n      0x01\n        /* \"#utility.yul\":12378:12384   */\n      dup3\n        /* \"#utility.yul\":12374:12388   */\n      add\n        /* \"#utility.yul\":12364:12388   */\n      swap2\n      pop\n        /* \"#utility.yul\":12433:12435   */\n      0x20\n        /* \"#utility.yul\":12422:12431   */\n      dup6\n        /* \"#utility.yul\":12418:12436   */\n      add\n        /* \"#utility.yul\":12405:12436   */\n      swap5\n      pop\n        /* \"#utility.yul\":12279:12283   */\n      0x20\n        /* \"#utility.yul\":12276:12277   */\n      dup2\n        /* \"#utility.yul\":12272:12284   */\n      add\n        /* \"#utility.yul\":12267:12284   */\n      swap1\n      pop\n        /* \"#utility.yul\":12242:12450   */\n      jump(tag_357)\n    tag_359:\n        /* \"#utility.yul\":12478:12484   */\n      dup7\n        /* \"#utility.yul\":12469:12476   */\n      dup4\n        /* \"#utility.yul\":12466:12485   */\n      lt\n        /* \"#utility.yul\":12463:12642   */\n      iszero\n      tag_360\n      jumpi\n        /* \"#utility.yul\":12536:12545   */\n      dup5\n        /* \"#utility.yul\":12531:12534   */\n      dup10\n        /* \"#utility.yul\":12527:12546   */\n      add\n        /* \"#utility.yul\":12521:12547   */\n      mload\n        /* \"#utility.yul\":12579:12627   */\n      tag_361\n        /* \"#utility.yul\":12621:12625   */\n      0x1f\n        /* \"#utility.yul\":12613:12619   */\n      dup10\n        /* \"#utility.yul\":12609:12626   */\n      and\n        /* \"#utility.yul\":12598:12607   */\n      dup3\n        /* \"#utility.yul\":12579:12627   */\n      tag_207\n      jump\t// in\n    tag_361:\n        /* \"#utility.yul\":12571:12577   */\n      dup4\n        /* \"#utility.yul\":12564:12628   */\n      sstore\n        /* \"#utility.yul\":12486:12642   */\n      pop\n        /* \"#utility.yul\":12463:12642   */\n    tag_360:\n        /* \"#utility.yul\":12688:12689   */\n      0x01\n        /* \"#utility.yul\":12684:12685   */\n      0x02\n        /* \"#utility.yul\":12676:12682   */\n      dup9\n        /* \"#utility.yul\":12672:12686   */\n      mul\n        /* \"#utility.yul\":12668:12690   */\n      add\n        /* \"#utility.yul\":12662:12666   */\n      dup9\n        /* \"#utility.yul\":12655:12691   */\n      sstore\n        /* \"#utility.yul\":12091:12701   */\n      pop\n      pop\n      pop\n        /* \"#utility.yul\":12054:12940   */\n    tag_352:\n      pop\n        /* \"#utility.yul\":11646:12946   */\n      pop\n      pop\n      pop\n        /* \"#utility.yul\":11556:12946   */\n      pop\n      pop\n      jump\t// out\n        /* \"#utility.yul\":12952:13132   */\n    tag_209:\n        /* \"#utility.yul\":13000:13077   */\n      0x4e487b7100000000000000000000000000000000000000000000000000000000\n        /* \"#utility.yul\":12997:12998   */\n      0x00\n        /* \"#utility.yul\":12990:13078   */\n      mstore\n        /* \"#utility.yul\":13097:13101   */\n      0x11\n        /* \"#utility.yul\":13094:13095   */\n      0x04\n        /* \"#utility.yul\":13087:13102   */\n      mstore\n        /* \"#utility.yul\":13121:13125   */\n      0x24\n        /* \"#utility.yul\":13118:13119   */\n      0x00\n        /* \"#utility.yul\":13111:13126   */\n      revert\n        /* \"#utility.yul\":13138:13332   */\n    tag_88:\n        /* \"#utility.yul\":13178:13182   */\n      0x00\n        /* \"#utility.yul\":13198:13218   */\n      tag_364\n        /* \"#utility.yul\":13216:13217   */\n      dup3\n        /* \"#utility.yul\":13198:13218   */\n      tag_166\n      jump\t// in\n    tag_364:\n        /* \"#utility.yul\":13193:13218   */\n      swap2\n      pop\n        /* \"#utility.yul\":13232:13252   */\n      tag_365\n        /* \"#utility.yul\":13250:13251   */\n      dup4\n        /* \"#utility.yul\":13232:13252   */\n      tag_166\n      jump\t// in\n    tag_365:\n        /* \"#utility.yul\":13227:13252   */\n      swap3\n      pop\n        /* \"#utility.yul\":13276:13277   */\n      dup3\n        /* \"#utility.yul\":13273:13274   */\n      dup3\n        /* \"#utility.yul\":13269:13278   */\n      sub\n        /* \"#utility.yul\":13261:13278   */\n      swap1\n      pop\n        /* \"#utility.yul\":13300:13301   */\n      dup2\n        /* \"#utility.yul\":13294:13298   */\n      dup2\n        /* \"#utility.yul\":13291:13302   */\n      gt\n        /* \"#utility.yul\":13288:13325   */\n      iszero\n      tag_366\n      jumpi\n        /* \"#utility.yul\":13305:13323   */\n      tag_367\n      tag_209\n      jump\t// in\n    tag_367:\n        /* \"#utility.yul\":13288:13325   */\n    tag_366:\n        /* \"#utility.yul\":13138:13332   */\n      swap3\n      swap2\n      pop\n      pop\n      jump\t// out\n        /* \"#utility.yul\":13338:13503   */\n    tag_210:\n        /* \"#utility.yul\":13478:13495   */\n      0x747820646f65736e742065786973740000000000000000000000000000000000\n        /* \"#utility.yul\":13474:13475   */\n      0x00\n        /* \"#utility.yul\":13466:13472   */\n      dup3\n        /* \"#utility.yul\":13462:13476   */\n      add\n        /* \"#utility.yul\":13455:13496   */\n      mstore\n        /* \"#utility.yul\":13338:13503   */\n      pop\n      jump\t// out\n        /* \"#utility.yul\":13509:13875   */\n    tag_211:\n        /* \"#utility.yul\":13651:13654   */\n      0x00\n        /* \"#utility.yul\":13672:13739   */\n      tag_370\n        /* \"#utility.yul\":13736:13738   */\n      0x0f\n        /* \"#utility.yul\":13731:13734   */\n      dup4\n        /* \"#utility.yul\":13672:13739   */\n      tag_189\n      jump\t// in\n    tag_370:\n        /* \"#utility.yul\":13665:13739   */\n      swap2\n      pop\n        /* \"#utility.yul\":13748:13841   */\n      tag_371\n        /* \"#utility.yul\":13837:13840   */\n      dup3\n        /* \"#utility.yul\":13748:13841   */\n      tag_210\n      jump\t// in\n    tag_371:\n        /* \"#utility.yul\":13866:13868   */\n      0x20\n        /* \"#utility.yul\":13861:13864   */\n      dup3\n        /* \"#utility.yul\":13857:13869   */\n      add\n        /* \"#utility.yul\":13850:13869   */\n      swap1\n      pop\n        /* \"#utility.yul\":13509:13875   */\n      swap2\n      swap1\n      pop\n      jump\t// out\n        /* \"#utility.yul\":13881:14300   */\n    tag_96:\n        /* \"#utility.yul\":14047:14051   */\n      0x00\n        /* \"#utility.yul\":14085:14087   */\n      0x20\n        /* \"#utility.yul\":14074:14083   */\n      dup3\n        /* \"#utility.yul\":14070:14088   */\n      add\n        /* \"#utility.yul\":14062:14088   */\n      swap1\n      pop\n        /* \"#utility.yul\":14134:14143   */\n      dup2\n        /* \"#utility.yul\":14128:14132   */\n      dup2\n        /* \"#utility.yul\":14124:14144   */\n      sub\n        /* \"#utility.yul\":14120:14121   */\n      0x00\n        /* \"#utility.yul\":14109:14118   */\n      dup4\n        /* \"#utility.yul\":14105:14122   */\n      add\n        /* \"#utility.yul\":14098:14145   */\n      mstore\n        /* \"#utility.yul\":14162:14293   */\n      tag_373\n        /* \"#utility.yul\":14288:14292   */\n      dup2\n        /* \"#utility.yul\":14162:14293   */\n      tag_211\n      jump\t// in\n    tag_373:\n        /* \"#utility.yul\":14154:14293   */\n      swap1\n      pop\n        /* \"#utility.yul\":13881:14300   */\n      swap2\n      swap1\n      pop\n      jump\t// out\n        /* \"#utility.yul\":14306:14486   */\n    tag_100:\n        /* \"#utility.yul\":14354:14431   */\n      0x4e487b7100000000000000000000000000000000000000000000000000000000\n        /* \"#utility.yul\":14351:14352   */\n      0x00\n        /* \"#utility.yul\":14344:14432   */\n      mstore\n        /* \"#utility.yul\":14451:14455   */\n      0x32\n        /* \"#utility.yul\":14448:14449   */\n      0x04\n        /* \"#utility.yul\":14441:14456   */\n      mstore\n        /* \"#utility.yul\":14475:14479   */\n      0x24\n        /* \"#utility.yul\":14472:14473   */\n      0x00\n        /* \"#utility.yul\":14465:14480   */\n      revert\n        /* \"#utility.yul\":14492:14656   */\n    tag_212:\n        /* \"#utility.yul\":14632:14648   */\n      0x7478206973206578656375746564000000000000000000000000000000000000\n        /* \"#utility.yul\":14628:14629   */\n      0x00\n        /* \"#utility.yul\":14620:14626   */\n      dup3\n        /* \"#utility.yul\":14616:14630   */\n      add\n        /* \"#utility.yul\":14609:14649   */\n      mstore\n        /* \"#utility.yul\":14492:14656   */\n      pop\n      jump\t// out\n        /* \"#utility.yul\":14662:15028   */\n    tag_213:\n        /* \"#utility.yul\":14804:14807   */\n      0x00\n        /* \"#utility.yul\":14825:14892   */\n      tag_377\n        /* \"#utility.yul\":14889:14891   */\n      0x0e\n        /* \"#utility.yul\":14884:14887   */\n      dup4\n        /* \"#utility.yul\":14825:14892   */\n      tag_189\n      jump\t// in\n    tag_377:\n        /* \"#utility.yul\":14818:14892   */\n      swap2\n      pop\n        /* \"#utility.yul\":14901:14994   */\n      tag_378\n        /* \"#utility.yul\":14990:14993   */\n      dup3\n        /* \"#utility.yul\":14901:14994   */\n      tag_212\n      jump\t// in\n    tag_378:\n        /* \"#utility.yul\":15019:15021   */\n      0x20\n        /* \"#utility.yul\":15014:15017   */\n      dup3\n        /* \"#utility.yul\":15010:15022   */\n      add\n        /* \"#utility.yul\":15003:15022   */\n      swap1\n      pop\n        /* \"#utility.yul\":14662:15028   */\n      swap2\n      swap1\n      pop\n      jump\t// out\n        /* \"#utility.yul\":15034:15453   */\n    tag_104:\n        /* \"#utility.yul\":15200:15204   */\n      0x00\n        /* \"#utility.yul\":15238:15240   */\n      0x20\n        /* \"#utility.yul\":15227:15236   */\n      dup3\n        /* \"#utility.yul\":15223:15241   */\n      add\n        /* \"#utility.yul\":15215:15241   */\n      swap1\n      pop\n        /* \"#utility.yul\":15287:15296   */\n      dup2\n        /* \"#utility.yul\":15281:15285   */\n      dup2\n        /* \"#utility.yul\":15277:15297   */\n      sub\n        /* \"#utility.yul\":15273:15274   */\n      0x00\n        /* \"#utility.yul\":15262:15271   */\n      dup4\n        /* \"#utility.yul\":15258:15275   */\n      add\n        /* \"#utility.yul\":15251:15298   */\n      mstore\n        /* \"#utility.yul\":15315:15446   */\n      tag_380\n        /* \"#utility.yul\":15441:15445   */\n      dup2\n        /* \"#utility.yul\":15315:15446   */\n      tag_213\n      jump\t// in\n    tag_380:\n        /* \"#utility.yul\":15307:15446   */\n      swap1\n      pop\n        /* \"#utility.yul\":15034:15453   */\n      swap2\n      swap1\n      pop\n      jump\t// out\n        /* \"#utility.yul\":15459:15624   */\n    tag_214:\n        /* \"#utility.yul\":15599:15616   */\n      0x7478206e6f7420617070726f7665640000000000000000000000000000000000\n        /* \"#utility.yul\":15595:15596   */\n      0x00\n        /* \"#utility.yul\":15587:15593   */\n      dup3\n        /* \"#utility.yul\":15583:15597   */\n      add\n        /* \"#utility.yul\":15576:15617   */\n      mstore\n        /* \"#utility.yul\":15459:15624   */\n      pop\n      jump\t// out\n        /* \"#utility.yul\":15630:15996   */\n    tag_215:\n        /* \"#utility.yul\":15772:15775   */\n      0x00\n        /* \"#utility.yul\":15793:15860   */\n      tag_383\n        /* \"#utility.yul\":15857:15859   */\n      0x0f\n        /* \"#utility.yul\":15852:15855   */\n      dup4\n        /* \"#utility.yul\":15793:15860   */\n      tag_189\n      jump\t// in\n    tag_383:\n        /* \"#utility.yul\":15786:15860   */\n      swap2\n      pop\n        /* \"#utility.yul\":15869:15962   */\n      tag_384\n        /* \"#utility.yul\":15958:15961   */\n      dup3\n        /* \"#utility.yul\":15869:15962   */\n      tag_214\n      jump\t// in\n    tag_384:\n        /* \"#utility.yul\":15987:15989   */\n      0x20\n        /* \"#utility.yul\":15982:15985   */\n      dup3\n        /* \"#utility.yul\":15978:15990   */\n      add\n        /* \"#utility.yul\":15971:15990   */\n      swap1\n      pop\n        /* \"#utility.yul\":15630:15996   */\n      swap2\n      swap1\n      pop\n      jump\t// out\n        /* \"#utility.yul\":16002:16421   */\n    tag_108:\n        /* \"#utility.yul\":16168:16172   */\n      0x00\n        /* \"#utility.yul\":16206:16208   */\n      0x20\n        /* \"#utility.yul\":16195:16204   */\n      dup3\n        /* \"#utility.yul\":16191:16209   */\n      add\n        /* \"#utility.yul\":16183:16209   */\n      swap1\n      pop\n        /* \"#utility.yul\":16255:16264   */\n      dup2\n        /* \"#utility.yul\":16249:16253   */\n      dup2\n        /* \"#utility.yul\":16245:16265   */\n      sub\n        /* \"#utility.yul\":16241:16242   */\n      0x00\n        /* \"#utility.yul\":16230:16239   */\n      dup4\n        /* \"#utility.yul\":16226:16243   */\n      add\n        /* \"#utility.yul\":16219:16266   */\n      mstore\n        /* \"#utility.yul\":16283:16414   */\n      tag_386\n        /* \"#utility.yul\":16409:16413   */\n      dup2\n        /* \"#utility.yul\":16283:16414   */\n      tag_215\n      jump\t// in\n    tag_386:\n        /* \"#utility.yul\":16275:16414   */\n      swap1\n      pop\n        /* \"#utility.yul\":16002:16421   */\n      swap2\n      swap1\n      pop\n      jump\t// out\n        /* \"#utility.yul\":16427:16618   */\n    tag_118:\n        /* \"#utility.yul\":16467:16470   */\n      0x00\n        /* \"#utility.yul\":16486:16506   */\n      tag_388\n        /* \"#utility.yul\":16504:16505   */\n      dup3\n        /* \"#utility.yul\":16486:16506   */\n      tag_166\n      jump\t// in\n    tag_388:\n        /* \"#utility.yul\":16481:16506   */\n      swap2\n      pop\n        /* \"#utility.yul\":16520:16540   */\n      tag_389\n        /* \"#utility.yul\":16538:16539   */\n      dup4\n        /* \"#utility.yul\":16520:16540   */\n      tag_166\n      jump\t// in\n    tag_389:\n        /* \"#utility.yul\":16515:16540   */\n      swap3\n      pop\n        /* \"#utility.yul\":16563:16564   */\n      dup3\n        /* \"#utility.yul\":16560:16561   */\n      dup3\n        /* \"#utility.yul\":16556:16565   */\n      add\n        /* \"#utility.yul\":16549:16565   */\n      swap1\n      pop\n        /* \"#utility.yul\":16584:16587   */\n      dup1\n        /* \"#utility.yul\":16581:16582   */\n      dup3\n        /* \"#utility.yul\":16578:16588   */\n      gt\n        /* \"#utility.yul\":16575:16611   */\n      iszero\n      tag_390\n      jumpi\n        /* \"#utility.yul\":16591:16609   */\n      tag_391\n      tag_209\n      jump\t// in\n    tag_391:\n        /* \"#utility.yul\":16575:16611   */\n    tag_390:\n        /* \"#utility.yul\":16427:16618   */\n      swap3\n      swap2\n      pop\n      pop\n      jump\t// out\n        /* \"#utility.yul\":16624:16793   */\n    tag_216:\n        /* \"#utility.yul\":16764:16785   */\n      0x747820616c726561647920617070726f76656400000000000000000000000000\n        /* \"#utility.yul\":16760:16761   */\n      0x00\n        /* \"#utility.yul\":16752:16758   */\n      dup3\n        /* \"#utility.yul\":16748:16762   */\n      add\n        /* \"#utility.yul\":16741:16786   */\n      mstore\n        /* \"#utility.yul\":16624:16793   */\n      pop\n      jump\t// out\n        /* \"#utility.yul\":16799:17165   */\n    tag_217:\n        /* \"#utility.yul\":16941:16944   */\n      0x00\n        /* \"#utility.yul\":16962:17029   */\n      tag_394\n        /* \"#utility.yul\":17026:17028   */\n      0x13\n        /* \"#utility.yul\":17021:17024   */\n      dup4\n        /* \"#utility.yul\":16962:17029   */\n      tag_189\n      jump\t// in\n    tag_394:\n        /* \"#utility.yul\":16955:17029   */\n      swap2\n      pop\n        /* \"#utility.yul\":17038:17131   */\n      tag_395\n        /* \"#utility.yul\":17127:17130   */\n      dup3\n        /* \"#utility.yul\":17038:17131   */\n      tag_216\n      jump\t// in\n    tag_395:\n        /* \"#utility.yul\":17156:17158   */\n      0x20\n        /* \"#utility.yul\":17151:17154   */\n      dup3\n        /* \"#utility.yul\":17147:17159   */\n      add\n        /* \"#utility.yul\":17140:17159   */\n      swap1\n      pop\n        /* \"#utility.yul\":16799:17165   */\n      swap2\n      swap1\n      pop\n      jump\t// out\n        /* \"#utility.yul\":17171:17590   */\n    tag_136:\n        /* \"#utility.yul\":17337:17341   */\n      0x00\n        /* \"#utility.yul\":17375:17377   */\n      0x20\n        /* \"#utility.yul\":17364:17373   */\n      dup3\n        /* \"#utility.yul\":17360:17378   */\n      add\n        /* \"#utility.yul\":17352:17378   */\n      swap1\n      pop\n        /* \"#utility.yul\":17424:17433   */\n      dup2\n        /* \"#utility.yul\":17418:17422   */\n      dup2\n        /* \"#utility.yul\":17414:17434   */\n      sub\n        /* \"#utility.yul\":17410:17411   */\n      0x00\n        /* \"#utility.yul\":17399:17408   */\n      dup4\n        /* \"#utility.yul\":17395:17412   */\n      add\n        /* \"#utility.yul\":17388:17435   */\n      mstore\n        /* \"#utility.yul\":17452:17583   */\n      tag_397\n        /* \"#utility.yul\":17578:17582   */\n      dup2\n        /* \"#utility.yul\":17452:17583   */\n      tag_217\n      jump\t// in\n    tag_397:\n        /* \"#utility.yul\":17444:17583   */\n      swap1\n      pop\n        /* \"#utility.yul\":17171:17590   */\n      swap2\n      swap1\n      pop\n      jump\t// out\n        /* \"#utility.yul\":17596:17823   */\n    tag_218:\n        /* \"#utility.yul\":17736:17770   */\n      0x6e6f7420656e6f7567682070656f706c65206167726565207468697320747261\n        /* \"#utility.yul\":17732:17733   */\n      0x00\n        /* \"#utility.yul\":17724:17730   */\n      dup3\n        /* \"#utility.yul\":17720:17734   */\n      add\n        /* \"#utility.yul\":17713:17771   */\n      mstore\n        /* \"#utility.yul\":17805:17815   */\n      0x6e73616374696f6e000000000000000000000000000000000000000000000000\n        /* \"#utility.yul\":17800:17802   */\n      0x20\n        /* \"#utility.yul\":17792:17798   */\n      dup3\n        /* \"#utility.yul\":17788:17803   */\n      add\n        /* \"#utility.yul\":17781:17816   */\n      mstore\n        /* \"#utility.yul\":17596:17823   */\n      pop\n      jump\t// out\n        /* \"#utility.yul\":17829:18195   */\n    tag_219:\n        /* \"#utility.yul\":17971:17974   */\n      0x00\n        /* \"#utility.yul\":17992:18059   */\n      tag_400\n        /* \"#utility.yul\":18056:18058   */\n      0x28\n        /* \"#utility.yul\":18051:18054   */\n      dup4\n        /* \"#utility.yul\":17992:18059   */\n      tag_189\n      jump\t// in\n    tag_400:\n        /* \"#utility.yul\":17985:18059   */\n      swap2\n      pop\n        /* \"#utility.yul\":18068:18161   */\n      tag_401\n        /* \"#utility.yul\":18157:18160   */\n      dup3\n        /* \"#utility.yul\":18068:18161   */\n      tag_218\n      jump\t// in\n    tag_401:\n        /* \"#utility.yul\":18186:18188   */\n      0x40\n        /* \"#utility.yul\":18181:18184   */\n      dup3\n        /* \"#utility.yul\":18177:18189   */\n      add\n        /* \"#utility.yul\":18170:18189   */\n      swap1\n      pop\n        /* \"#utility.yul\":17829:18195   */\n      swap2\n      swap1\n      pop\n      jump\t// out\n        /* \"#utility.yul\":18201:18620   */\n    tag_160:\n        /* \"#utility.yul\":18367:18371   */\n      0x00\n        /* \"#utility.yul\":18405:18407   */\n      0x20\n        /* \"#utility.yul\":18394:18403   */\n      dup3\n        /* \"#utility.yul\":18390:18408   */\n      add\n        /* \"#utility.yul\":18382:18408   */\n      swap1\n      pop\n        /* \"#utility.yul\":18454:18463   */\n      dup2\n        /* \"#utility.yul\":18448:18452   */\n      dup2\n        /* \"#utility.yul\":18444:18464   */\n      sub\n        /* \"#utility.yul\":18440:18441   */\n      0x00\n        /* \"#utility.yul\":18429:18438   */\n      dup4\n        /* \"#utility.yul\":18425:18442   */\n      add\n        /* \"#utility.yul\":18418:18465   */\n      mstore\n        /* \"#utility.yul\":18482:18613   */\n      tag_403\n        /* \"#utility.yul\":18608:18612   */\n      dup2\n        /* \"#utility.yul\":18482:18613   */\n      tag_219\n      jump\t// in\n    tag_403:\n        /* \"#utility.yul\":18474:18613   */\n      swap1\n      pop\n        /* \"#utility.yul\":18201:18620   */\n      swap2\n      swap1\n      pop\n      jump\t// out\n\n    auxdata: 0xa2646970667358221220b1eaebacad0455ffa587e11a1d851db33699922fba90efb4923921465b1071fa64736f6c634300081b0033\n}\n",
				"bytecode": {
					"linkReferences": {},
					"object": "608060405234801561000f575f5ffd5b50604051611fb6380380611fb6833981810160405281019061003191906104a8565b5f825111610074576040517f08c379a000000000000000000000000000000000000000000000000000000000815260040161006b9061055c565b60405180910390fd5b5f8111801561008757505f805490508111155b6100c6576040517f08c379a00000000000000000000000000000000000000000000000000000000081526004016100bd906105c4565b60405180910390fd5b5f5f90505b82518110156102ab575f8382815181106100e8576100e76105e2565b5b602002602001015190505f73ffffffffffffffffffffffffffffffffffffffff168173ffffffffffffffffffffffffffffffffffffffff1603610160576040517f08c379a000000000000000000000000000000000000000000000000000000000815260040161015790610659565b60405180910390fd5b60015f8273ffffffffffffffffffffffffffffffffffffffff1673ffffffffffffffffffffffffffffffffffffffff1681526020019081526020015f205f9054906101000a900460ff16156101ea576040517f08c379a00000000000000000000000000000000000000000000000000000000081526004016101e1906106c1565b60405180910390fd5b6001805f8373ffffffffffffffffffffffffffffffffffffffff1673ffffffffffffffffffffffffffffffffffffffff1681526020019081526020015f205f6101000a81548160ff0219169083151502179055505f81908060018154018082558091505060019003905f5260205f20015f9091909190916101000a81548173ffffffffffffffffffffffffffffffffffffffff021916908373ffffffffffffffffffffffffffffffffffffffff1602179055505080806001019150506100cb565b508060028190555050506106df565b5f604051905090565b5f5ffd5b5f5ffd5b5f5ffd5b5f601f19601f8301169050919050565b7f4e487b71000000000000000000000000000000000000000000000000000000005f52604160045260245ffd5b610315826102cf565b810181811067ffffffffffffffff82111715610334576103336102df565b5b80604052505050565b5f6103466102ba565b9050610352828261030c565b919050565b5f67ffffffffffffffff821115610371576103706102df565b5b602082029050602081019050919050565b5f5ffd5b5f73ffffffffffffffffffffffffffffffffffffffff82169050919050565b5f6103af82610386565b9050919050565b6103bf816103a5565b81146103c9575f5ffd5b50565b5f815190506103da816103b6565b92915050565b5f6103f26103ed84610357565b61033d565b9050808382526020820190506020840283018581111561041557610414610382565b5b835b8181101561043e578061042a88826103cc565b845260208401935050602081019050610417565b5050509392505050565b5f82601f83011261045c5761045b6102cb565b5b815161046c8482602086016103e0565b91505092915050565b5f819050919050565b61048781610475565b8114610491575f5ffd5b50565b5f815190506104a28161047e565b92915050565b5f5f604083850312156104be576104bd6102c3565b5b5f83015167ffffffffffffffff8111156104db576104da6102c7565b5b6104e785828601610448565b92505060206104f885828601610494565b9150509250929050565b5f82825260208201905092915050565b7f6f776e65722072657175697265640000000000000000000000000000000000005f82015250565b5f610546600e83610502565b915061055182610512565b602082019050919050565b5f6020820190508181035f8301526105738161053a565b9050919050565b7f6976616c6964207265717569726564206e756d626572206f66206f776e6572735f82015250565b5f6105ae602083610502565b91506105b98261057a565b602082019050919050565b5f6020820190508181035f8301526105db816105a2565b9050919050565b7f4e487b71000000000000000000000000000000000000000000000000000000005f52603260045260245ffd5b7f696e76616c6964206f776e6572000000000000000000000000000000000000005f82015250565b5f610643600d83610502565b915061064e8261060f565b602082019050919050565b5f6020820190508181035f83015261067081610637565b9050919050565b7f6f776e6572206973206e6f7420756e69717565000000000000000000000000005f82015250565b5f6106ab601383610502565b91506106b682610677565b602082019050919050565b5f6020820190508181035f8301526106d88161069f565b9050919050565b6118ca806106ec5f395ff3fe60806040526004361061009f575f3560e01c80638253951a116100635780638253951a146101fe57806392493b281461023a5780639ace38c214610276578063b759f954146102b5578063dc8452cd146102dd578063fe0d94c114610307576100f4565b8063025e7c27146100f857806312065fe01461013457806314de327f1461015e57806320c5429b1461019a5780632f54bf6e146101c2576100f4565b366100f4573373ffffffffffffffffffffffffffffffffffffffff167fe1fffcc4923d04b559f4d29a8bfc6cda04eb5b0d3c460751c2402c5c5cc9109c346040516100ea9190610f15565b60405180910390a2005b5f5ffd5b348015610103575f5ffd5b5061011e60048036038101906101199190610f60565b61032f565b60405161012b9190610fca565b60405180910390f35b34801561013f575f5ffd5b50610148610369565b6040516101559190610f15565b60405180910390f35b348015610169575f5ffd5b50610184600480360381019061017f919061106e565b610370565b6040516101919190610f15565b60405180910390f35b3480156101a5575f5ffd5b506101c060048036038101906101bb9190610f60565b61057d565b005b3480156101cd575f5ffd5b506101e860048036038101906101e391906110df565b610803565b6040516101f59190611124565b60405180910390f35b348015610209575f5ffd5b50610224600480360381019061021f919061113d565b610820565b6040516102319190611124565b60405180910390f35b348015610245575f5ffd5b50610260600480360381019061025b9190610f60565b61084a565b60405161026d9190610f15565b60405180910390f35b348015610281575f5ffd5b5061029c60048036038101906102979190610f60565b610917565b6040516102ac94939291906111eb565b60405180910390f35b3480156102c0575f5ffd5b506102db60048036038101906102d69190610f60565b610a03565b005b3480156102e8575f5ffd5b506102f1610c8c565b6040516102fe9190610f15565b60405180910390f35b348015610312575f5ffd5b5061032d60048036038101906103289190610f60565b610c92565b005b5f818154811061033d575f80fd5b905f5260205f20015f915054906101000a900473ffffffffffffffffffffffffffffffffffffffff1681565b5f47905090565b5f60015f3373ffffffffffffffffffffffffffffffffffffffff1673ffffffffffffffffffffffffffffffffffffffff1681526020019081526020015f205f9054906101000a900460ff166103fa576040517f08c379a00000000000000000000000000000000000000000000000000000000081526004016103f19061128f565b60405180910390fd5b600360405180608001604052808773ffffffffffffffffffffffffffffffffffffffff16815260200186815260200185858080601f0160208091040260200160405190810160405280939291908181526020018383808284375f81840152601f19601f8201169050808301925050505050505081526020015f1515815250908060018154018082558091505060019003905f5260205f2090600402015f909190919091505f820151815f015f6101000a81548173ffffffffffffffffffffffffffffffffffffffff021916908373ffffffffffffffffffffffffffffffffffffffff16021790555060208201518160010155604082015181600201908161050191906114d7565b506060820151816003015f6101000a81548160ff0219169083151502179055505050600160038054905061053591906115d3565b7f08324b3d745b914e3abd4ffbfead91e3b78391a98c173202129215ab933adfbe60405160405180910390a2600160038054905061057391906115d3565b9050949350505050565b60015f3373ffffffffffffffffffffffffffffffffffffffff1673ffffffffffffffffffffffffffffffffffffffff1681526020019081526020015f205f9054906101000a900460ff16610606576040517f08c379a00000000000000000000000000000000000000000000000000000000081526004016105fd9061128f565b60405180910390fd5b80600380549050811061064e576040517f08c379a000000000000000000000000000000000000000000000000000000000815260040161064590611650565b60405180910390fd5b81600381815481106106635761066261166e565b5b905f5260205f2090600402016003015f9054906101000a900460ff16156106bf576040517f08c379a00000000000000000000000000000000000000000000000000000000081526004016106b6906116e5565b60405180910390fd5b60045f8481526020019081526020015f205f3373ffffffffffffffffffffffffffffffffffffffff1673ffffffffffffffffffffffffffffffffffffffff1681526020019081526020015f205f9054906101000a900460ff16610757576040517f08c379a000000000000000000000000000000000000000000000000000000000815260040161074e9061174d565b60405180910390fd5b5f60045f8581526020019081526020015f205f3373ffffffffffffffffffffffffffffffffffffffff1673ffffffffffffffffffffffffffffffffffffffff1681526020019081526020015f205f6101000a81548160ff021916908315150217905550823373ffffffffffffffffffffffffffffffffffffffff167fec9ab91322523c899ede7830ec9bfc992b5981cdcc27b91162fb23de5791117b60405160405180910390a3505050565b6001602052805f5260405f205f915054906101000a900460ff1681565b6004602052815f5260405f20602052805f5260405f205f915091509054906101000a900460ff1681565b5f5f5f90505b5f805490508110156109115760045f8481526020019081526020015f205f5f83815481106108815761088061166e565b5b905f5260205f20015f9054906101000a900473ffffffffffffffffffffffffffffffffffffffff1673ffffffffffffffffffffffffffffffffffffffff1673ffffffffffffffffffffffffffffffffffffffff1681526020019081526020015f205f9054906101000a900460ff161561090457600182610901919061176b565b91505b8080600101915050610850565b50919050565b60038181548110610926575f80fd5b905f5260205f2090600402015f91509050805f015f9054906101000a900473ffffffffffffffffffffffffffffffffffffffff169080600101549080600201805461097090611307565b80601f016020809104026020016040519081016040528092919081815260200182805461099c90611307565b80156109e75780601f106109be576101008083540402835291602001916109e7565b820191905f5260205f20905b8154815290600101906020018083116109ca57829003601f168201915b505050505090806003015f9054906101000a900460ff16905084565b60015f3373ffffffffffffffffffffffffffffffffffffffff1673ffffffffffffffffffffffffffffffffffffffff1681526020019081526020015f205f9054906101000a900460ff16610a8c576040517f08c379a0000000000000000000000000000000000000000000000000000000008152600401610a839061128f565b60405180910390fd5b806003805490508110610ad4576040517f08c379a0000000000000000000000000000000000000000000000000000000008152600401610acb90611650565b60405180910390fd5b8160045f8281526020019081526020015f205f3373ffffffffffffffffffffffffffffffffffffffff1673ffffffffffffffffffffffffffffffffffffffff1681526020019081526020015f205f9054906101000a900460ff16610b6d576040517f08c379a0000000000000000000000000000000000000000000000000000000008152600401610b64906117e8565b60405180910390fd5b8260038181548110610b8257610b8161166e565b5b905f5260205f2090600402016003015f9054906101000a900460ff1615610bde576040517f08c379a0000000000000000000000000000000000000000000000000000000008152600401610bd5906116e5565b60405180910390fd5b600160045f8681526020019081526020015f205f3373ffffffffffffffffffffffffffffffffffffffff1673ffffffffffffffffffffffffffffffffffffffff1681526020019081526020015f205f6101000a81548160ff021916908315150217905550833373ffffffffffffffffffffffffffffffffffffffff167f90ec57f18fa7b15c6b8d5e4d1deb90796c74b2ff23d4d0cecad0cb42a96b312860405160405180910390a350505050565b60025481565b60015f3373ffffffffffffffffffffffffffffffffffffffff1673ffffffffffffffffffffffffffffffffffffffff1681526020019081526020015f205f9054906101000a900460ff16610d1b576040517f08c379a0000000000000000000000000000000000000000000000000000000008152600401610d129061128f565b60405180910390fd5b806003805490508110610d63576040517f08c379a0000000000000000000000000000000000000000000000000000000008152600401610d5a90611650565b60405180910390fd5b8160038181548110610d7857610d7761166e565b5b905f5260205f2090600402016003015f9054906101000a900460ff1615610dd4576040517f08c379a0000000000000000000000000000000000000000000000000000000008152600401610dcb906116e5565b60405180910390fd5b600254610de08461084a565b1015610e21576040517f08c379a0000000000000000000000000000000000000000000000000000000008152600401610e1890611876565b60405180910390fd5b5f60038481548110610e3657610e3561166e565b5b905f5260205f20906004020190506001816003015f6101000a81548160ff021916908315150217905550805f015f9054906101000a900473ffffffffffffffffffffffffffffffffffffffff1673ffffffffffffffffffffffffffffffffffffffff166108fc826001015490811502906040515f60405180830381858888f19350505050158015610ec9573d5f5f3e3d5ffd5b50837fddb556f1d2c1ec821e910b019d3685b229db152a0ecd517ca7e24b8bd713928960405160405180910390a250505050565b5f819050919050565b610f0f81610efd565b82525050565b5f602082019050610f285f830184610f06565b92915050565b5f5ffd5b5f5ffd5b610f3f81610efd565b8114610f49575f5ffd5b50565b5f81359050610f5a81610f36565b92915050565b5f60208284031215610f7557610f74610f2e565b5b5f610f8284828501610f4c565b91505092915050565b5f73ffffffffffffffffffffffffffffffffffffffff82169050919050565b5f610fb482610f8b565b9050919050565b610fc481610faa565b82525050565b5f602082019050610fdd5f830184610fbb565b92915050565b610fec81610faa565b8114610ff6575f5ffd5b50565b5f8135905061100781610fe3565b92915050565b5f5ffd5b5f5ffd5b5f5ffd5b5f5f83601f84011261102e5761102d61100d565b5b8235905067ffffffffffffffff81111561104b5761104a611011565b5b60208301915083600182028301111561106757611066611015565b5b9250929050565b5f5f5f5f6060858703121561108657611085610f2e565b5b5f61109387828801610ff9565b94505060206110a487828801610f4c565b935050604085013567ffffffffffffffff8111156110c5576110c4610f32565b5b6110d187828801611019565b925092505092959194509250565b5f602082840312156110f4576110f3610f2e565b5b5f61110184828501610ff9565b91505092915050565b5f8115159050919050565b61111e8161110a565b82525050565b5f6020820190506111375f830184611115565b92915050565b5f5f6040838503121561115357611152610f2e565b5b5f61116085828601610f4c565b925050602061117185828601610ff9565b9150509250929050565b5f81519050919050565b5f82825260208201905092915050565b8281835e5f83830152505050565b5f601f19601f8301169050919050565b5f6111bd8261117b565b6111c78185611185565b93506111d7818560208601611195565b6111e0816111a3565b840191505092915050565b5f6080820190506111fe5f830187610fbb565b61120b6020830186610f06565b818103604083015261121d81856111b3565b905061122c6060830184611115565b95945050505050565b5f82825260208201905092915050565b7f6e6f74206f776e657200000000000000000000000000000000000000000000005f82015250565b5f611279600983611235565b915061128482611245565b602082019050919050565b5f6020820190508181035f8301526112a68161126d565b9050919050565b7f4e487b71000000000000000000000000000000000000000000000000000000005f52604160045260245ffd5b7f4e487b71000000000000000000000000000000000000000000000000000000005f52602260045260245ffd5b5f600282049050600182168061131e57607f821691505b602082108103611331576113306112da565b5b50919050565b5f819050815f5260205f209050919050565b5f6020601f8301049050919050565b5f82821b905092915050565b5f600883026113937fffffffffffffffffffffffffffffffffffffffffffffffffffffffffffffffff82611358565b61139d8683611358565b95508019841693508086168417925050509392505050565b5f819050919050565b5f6113d86113d36113ce84610efd565b6113b5565b610efd565b9050919050565b5f819050919050565b6113f1836113be565b6114056113fd826113df565b848454611364565b825550505050565b5f5f905090565b61141c61140d565b6114278184846113e8565b505050565b5b8181101561144a5761143f5f82611414565b60018101905061142d565b5050565b601f82111561148f5761146081611337565b61146984611349565b81016020851015611478578190505b61148c61148485611349565b83018261142c565b50505b505050565b5f82821c905092915050565b5f6114af5f1984600802611494565b1980831691505092915050565b5f6114c783836114a0565b9150826002028217905092915050565b6114e08261117b565b67ffffffffffffffff8111156114f9576114f86112ad565b5b6115038254611307565b61150e82828561144e565b5f60209050601f83116001811461153f575f841561152d578287015190505b61153785826114bc565b86555061159e565b601f19841661154d86611337565b5f5b828110156115745784890151825560018201915060208501945060208101905061154f565b86831015611591578489015161158d601f8916826114a0565b8355505b6001600288020188555050505b505050505050565b7f4e487b71000000000000000000000000000000000000000000000000000000005f52601160045260245ffd5b5f6115dd82610efd565b91506115e883610efd565b9250828203905081811115611600576115ff6115a6565b5b92915050565b7f747820646f65736e7420657869737400000000000000000000000000000000005f82015250565b5f61163a600f83611235565b915061164582611606565b602082019050919050565b5f6020820190508181035f8301526116678161162e565b9050919050565b7f4e487b71000000000000000000000000000000000000000000000000000000005f52603260045260245ffd5b7f74782069732065786563757465640000000000000000000000000000000000005f82015250565b5f6116cf600e83611235565b91506116da8261169b565b602082019050919050565b5f6020820190508181035f8301526116fc816116c3565b9050919050565b7f7478206e6f7420617070726f76656400000000000000000000000000000000005f82015250565b5f611737600f83611235565b915061174282611703565b602082019050919050565b5f6020820190508181035f8301526117648161172b565b9050919050565b5f61177582610efd565b915061178083610efd565b9250828201905080821115611798576117976115a6565b5b92915050565b7f747820616c726561647920617070726f766564000000000000000000000000005f82015250565b5f6117d2601383611235565b91506117dd8261179e565b602082019050919050565b5f6020820190508181035f8301526117ff816117c6565b9050919050565b7f6e6f7420656e6f7567682070656f706c652061677265652074686973207472615f8201527f6e73616374696f6e000000000000000000000000000000000000000000000000602082015250565b5f611860602883611235565b915061186b82611806565b604082019050919050565b5f6020820190508181035f83015261188d81611854565b905091905056fea2646970667358221220b1eaebacad0455ffa587e11a1d851db33699922fba90efb4923921465b1071fa64736f6c634300081b0033",
					"opcodes": "PUSH1 0x80 PUSH1 0x40 MSTORE CALLVALUE DUP1 ISZERO PUSH2 0xF JUMPI PUSH0 PUSH0 REVERT JUMPDEST POP PUSH1 0x40 MLOAD PUSH2 0x1FB6 CODESIZE SUB DUP1 PUSH2 0x1FB6 DUP4 CODECOPY DUP2 DUP2 ADD PUSH1 0x40 MSTORE DUP2 ADD SWAP1 PUSH2 0x31 SWAP2 SWAP1 PUSH2 0x4A8 JUMP JUMPDEST PUSH0 DUP3 MLOAD GT PUSH2 0x74 JUMPI PUSH1 0x40 MLOAD PUSH32 0x8C379A000000000000000000000000000000000000000000000000000000000 DUP2 MSTORE PUSH1 0x4 ADD PUSH2 0x6B SWAP1 PUSH2 0x55C JUMP JUMPDEST PUSH1 0x40 MLOAD DUP1 SWAP2 SUB SWAP1 REVERT JUMPDEST PUSH0 DUP2 GT DUP1 ISZERO PUSH2 0x87 JUMPI POP PUSH0 DUP1 SLOAD SWAP1 POP DUP2 GT ISZERO JUMPDEST PUSH2 0xC6 JUMPI PUSH1 0x40 MLOAD PUSH32 0x8C379A000000000000000000000000000000000000000000000000000000000 DUP2 MSTORE PUSH1 0x4 ADD PUSH2 0xBD SWAP1 PUSH2 0x5C4 JUMP JUMPDEST PUSH1 0x40 MLOAD DUP1 SWAP2 SUB SWAP1 REVERT JUMPDEST PUSH0 PUSH0 SWAP1 POP JUMPDEST DUP3 MLOAD DUP2 LT ISZERO PUSH2 0x2AB JUMPI PUSH0 DUP4 DUP3 DUP2 MLOAD DUP2 LT PUSH2 0xE8 JUMPI PUSH2 0xE7 PUSH2 0x5E2 JUMP JUMPDEST JUMPDEST PUSH1 0x20 MUL PUSH1 0x20 ADD ADD MLOAD SWAP1 POP PUSH0 PUSH20 0xFFFFFFFFFFFFFFFFFFFFFFFFFFFFFFFFFFFFFFFF AND DUP2 PUSH20 0xFFFFFFFFFFFFFFFFFFFFFFFFFFFFFFFFFFFFFFFF AND SUB PUSH2 0x160 JUMPI PUSH1 0x40 MLOAD PUSH32 0x8C379A000000000000000000000000000000000000000000000000000000000 DUP2 MSTORE PUSH1 0x4 ADD PUSH2 0x157 SWAP1 PUSH2 0x659 JUMP JUMPDEST PUSH1 0x40 MLOAD DUP1 SWAP2 SUB SWAP1 REVERT JUMPDEST PUSH1 0x1 PUSH0 DUP3 PUSH20 0xFFFFFFFFFFFFFFFFFFFFFFFFFFFFFFFFFFFFFFFF AND PUSH20 0xFFFFFFFFFFFFFFFFFFFFFFFFFFFFFFFFFFFFFFFF AND DUP2 MSTORE PUSH1 0x20 ADD SWAP1 DUP2 MSTORE PUSH1 0x20 ADD PUSH0 KECCAK256 PUSH0 SWAP1 SLOAD SWAP1 PUSH2 0x100 EXP SWAP1 DIV PUSH1 0xFF AND ISZERO PUSH2 0x1EA JUMPI PUSH1 0x40 MLOAD PUSH32 0x8C379A000000000000000000000000000000000000000000000000000000000 DUP2 MSTORE PUSH1 0x4 ADD PUSH2 0x1E1 SWAP1 PUSH2 0x6C1 JUMP JUMPDEST PUSH1 0x40 MLOAD DUP1 SWAP2 SUB SWAP1 REVERT JUMPDEST PUSH1 0x1 DUP1 PUSH0 DUP4 PUSH20 0xFFFFFFFFFFFFFFFFFFFFFFFFFFFFFFFFFFFFFFFF AND PUSH20 0xFFFFFFFFFFFFFFFFFFFFFFFFFFFFFFFFFFFFFFFF AND DUP2 MSTORE PUSH1 0x20 ADD SWAP1 DUP2 MSTORE PUSH1 0x20 ADD PUSH0 KECCAK256 PUSH0 PUSH2 0x100 EXP DUP2 SLOAD DUP2 PUSH1 0xFF MUL NOT AND SWAP1 DUP4 ISZERO ISZERO MUL OR SWAP1 SSTORE POP PUSH0 DUP2 SWAP1 DUP1 PUSH1 0x1 DUP2 SLOAD ADD DUP1 DUP3 SSTORE DUP1 SWAP2 POP POP PUSH1 0x1 SWAP1 SUB SWAP1 PUSH0 MSTORE PUSH1 0x20 PUSH0 KECCAK256 ADD PUSH0 SWAP1 SWAP2 SWAP1 SWAP2 SWAP1 SWAP2 PUSH2 0x100 EXP DUP2 SLOAD DUP2 PUSH20 0xFFFFFFFFFFFFFFFFFFFFFFFFFFFFFFFFFFFFFFFF MUL NOT AND SWAP1 DUP4 PUSH20 0xFFFFFFFFFFFFFFFFFFFFFFFFFFFFFFFFFFFFFFFF AND MUL OR SWAP1 SSTORE POP POP DUP1 DUP1 PUSH1 0x1 ADD SWAP2 POP POP PUSH2 0xCB JUMP JUMPDEST POP DUP1 PUSH1 0x2 DUP2 SWAP1 SSTORE POP POP POP PUSH2 0x6DF JUMP JUMPDEST PUSH0 PUSH1 0x40 MLOAD SWAP1 POP SWAP1 JUMP JUMPDEST PUSH0 PUSH0 REVERT JUMPDEST PUSH0 PUSH0 REVERT JUMPDEST PUSH0 PUSH0 REVERT JUMPDEST PUSH0 PUSH1 0x1F NOT PUSH1 0x1F DUP4 ADD AND SWAP1 POP SWAP2 SWAP1 POP JUMP JUMPDEST PUSH32 0x4E487B7100000000000000000000000000000000000000000000000000000000 PUSH0 MSTORE PUSH1 0x41 PUSH1 0x4 MSTORE PUSH1 0x24 PUSH0 REVERT JUMPDEST PUSH2 0x315 DUP3 PUSH2 0x2CF JUMP JUMPDEST DUP2 ADD DUP2 DUP2 LT PUSH8 0xFFFFFFFFFFFFFFFF DUP3 GT OR ISZERO PUSH2 0x334 JUMPI PUSH2 0x333 PUSH2 0x2DF JUMP JUMPDEST JUMPDEST DUP1 PUSH1 0x40 MSTORE POP POP POP JUMP JUMPDEST PUSH0 PUSH2 0x346 PUSH2 0x2BA JUMP JUMPDEST SWAP1 POP PUSH2 0x352 DUP3 DUP3 PUSH2 0x30C JUMP JUMPDEST SWAP2 SWAP1 POP JUMP JUMPDEST PUSH0 PUSH8 0xFFFFFFFFFFFFFFFF DUP3 GT ISZERO PUSH2 0x371 JUMPI PUSH2 0x370 PUSH2 0x2DF JUMP JUMPDEST JUMPDEST PUSH1 0x20 DUP3 MUL SWAP1 POP PUSH1 0x20 DUP2 ADD SWAP1 POP SWAP2 SWAP1 POP JUMP JUMPDEST PUSH0 PUSH0 REVERT JUMPDEST PUSH0 PUSH20 0xFFFFFFFFFFFFFFFFFFFFFFFFFFFFFFFFFFFFFFFF DUP3 AND SWAP1 POP SWAP2 SWAP1 POP JUMP JUMPDEST PUSH0 PUSH2 0x3AF DUP3 PUSH2 0x386 JUMP JUMPDEST SWAP1 POP SWAP2 SWAP1 POP JUMP JUMPDEST PUSH2 0x3BF DUP2 PUSH2 0x3A5 JUMP JUMPDEST DUP2 EQ PUSH2 0x3C9 JUMPI PUSH0 PUSH0 REVERT JUMPDEST POP JUMP JUMPDEST PUSH0 DUP2 MLOAD SWAP1 POP PUSH2 0x3DA DUP2 PUSH2 0x3B6 JUMP JUMPDEST SWAP3 SWAP2 POP POP JUMP JUMPDEST PUSH0 PUSH2 0x3F2 PUSH2 0x3ED DUP5 PUSH2 0x357 JUMP JUMPDEST PUSH2 0x33D JUMP JUMPDEST SWAP1 POP DUP1 DUP4 DUP3 MSTORE PUSH1 0x20 DUP3 ADD SWAP1 POP PUSH1 0x20 DUP5 MUL DUP4 ADD DUP6 DUP2 GT ISZERO PUSH2 0x415 JUMPI PUSH2 0x414 PUSH2 0x382 JUMP JUMPDEST JUMPDEST DUP4 JUMPDEST DUP2 DUP2 LT ISZERO PUSH2 0x43E JUMPI DUP1 PUSH2 0x42A DUP9 DUP3 PUSH2 0x3CC JUMP JUMPDEST DUP5 MSTORE PUSH1 0x20 DUP5 ADD SWAP4 POP POP PUSH1 0x20 DUP2 ADD SWAP1 POP PUSH2 0x417 JUMP JUMPDEST POP POP POP SWAP4 SWAP3 POP POP POP JUMP JUMPDEST PUSH0 DUP3 PUSH1 0x1F DUP4 ADD SLT PUSH2 0x45C JUMPI PUSH2 0x45B PUSH2 0x2CB JUMP JUMPDEST JUMPDEST DUP2 MLOAD PUSH2 0x46C DUP5 DUP3 PUSH1 0x20 DUP7 ADD PUSH2 0x3E0 JUMP JUMPDEST SWAP2 POP POP SWAP3 SWAP2 POP POP JUMP JUMPDEST PUSH0 DUP2 SWAP1 POP SWAP2 SWAP1 POP JUMP JUMPDEST PUSH2 0x487 DUP2 PUSH2 0x475 JUMP JUMPDEST DUP2 EQ PUSH2 0x491 JUMPI PUSH0 PUSH0 REVERT JUMPDEST POP JUMP JUMPDEST PUSH0 DUP2 MLOAD SWAP1 POP PUSH2 0x4A2 DUP2 PUSH2 0x47E JUMP JUMPDEST SWAP3 SWAP2 POP POP JUMP JUMPDEST PUSH0 PUSH0 PUSH1 0x40 DUP4 DUP6 SUB SLT ISZERO PUSH2 0x4BE JUMPI PUSH2 0x4BD PUSH2 0x2C3 JUMP JUMPDEST JUMPDEST PUSH0 DUP4 ADD MLOAD PUSH8 0xFFFFFFFFFFFFFFFF DUP2 GT ISZERO PUSH2 0x4DB JUMPI PUSH2 0x4DA PUSH2 0x2C7 JUMP JUMPDEST JUMPDEST PUSH2 0x4E7 DUP6 DUP3 DUP7 ADD PUSH2 0x448 JUMP JUMPDEST SWAP3 POP POP PUSH1 0x20 PUSH2 0x4F8 DUP6 DUP3 DUP7 ADD PUSH2 0x494 JUMP JUMPDEST SWAP2 POP POP SWAP3 POP SWAP3 SWAP1 POP JUMP JUMPDEST PUSH0 DUP3 DUP3 MSTORE PUSH1 0x20 DUP3 ADD SWAP1 POP SWAP3 SWAP2 POP POP JUMP JUMPDEST PUSH32 0x6F776E6572207265717569726564000000000000000000000000000000000000 PUSH0 DUP3 ADD MSTORE POP JUMP JUMPDEST PUSH0 PUSH2 0x546 PUSH1 0xE DUP4 PUSH2 0x502 JUMP JUMPDEST SWAP2 POP PUSH2 0x551 DUP3 PUSH2 0x512 JUMP JUMPDEST PUSH1 0x20 DUP3 ADD SWAP1 POP SWAP2 SWAP1 POP JUMP JUMPDEST PUSH0 PUSH1 0x20 DUP3 ADD SWAP1 POP DUP2 DUP2 SUB PUSH0 DUP4 ADD MSTORE PUSH2 0x573 DUP2 PUSH2 0x53A JUMP JUMPDEST SWAP1 POP SWAP2 SWAP1 POP JUMP JUMPDEST PUSH32 0x6976616C6964207265717569726564206E756D626572206F66206F776E657273 PUSH0 DUP3 ADD MSTORE POP JUMP JUMPDEST PUSH0 PUSH2 0x5AE PUSH1 0x20 DUP4 PUSH2 0x502 JUMP JUMPDEST SWAP2 POP PUSH2 0x5B9 DUP3 PUSH2 0x57A JUMP JUMPDEST PUSH1 0x20 DUP3 ADD SWAP1 POP SWAP2 SWAP1 POP JUMP JUMPDEST PUSH0 PUSH1 0x20 DUP3 ADD SWAP1 POP DUP2 DUP2 SUB PUSH0 DUP4 ADD MSTORE PUSH2 0x5DB DUP2 PUSH2 0x5A2 JUMP JUMPDEST SWAP1 POP SWAP2 SWAP1 POP JUMP JUMPDEST PUSH32 0x4E487B7100000000000000000000000000000000000000000000000000000000 PUSH0 MSTORE PUSH1 0x32 PUSH1 0x4 MSTORE PUSH1 0x24 PUSH0 REVERT JUMPDEST PUSH32 0x696E76616C6964206F776E657200000000000000000000000000000000000000 PUSH0 DUP3 ADD MSTORE POP JUMP JUMPDEST PUSH0 PUSH2 0x643 PUSH1 0xD DUP4 PUSH2 0x502 JUMP JUMPDEST SWAP2 POP PUSH2 0x64E DUP3 PUSH2 0x60F JUMP JUMPDEST PUSH1 0x20 DUP3 ADD SWAP1 POP SWAP2 SWAP1 POP JUMP JUMPDEST PUSH0 PUSH1 0x20 DUP3 ADD SWAP1 POP DUP2 DUP2 SUB PUSH0 DUP4 ADD MSTORE PUSH2 0x670 DUP2 PUSH2 0x637 JUMP JUMPDEST SWAP1 POP SWAP2 SWAP1 POP JUMP JUMPDEST PUSH32 0x6F776E6572206973206E6F7420756E6971756500000000000000000000000000 PUSH0 DUP3 ADD MSTORE POP JUMP JUMPDEST PUSH0 PUSH2 0x6AB PUSH1 0x13 DUP4 PUSH2 0x502 JUMP JUMPDEST SWAP2 POP PUSH2 0x6B6 DUP3 PUSH2 0x677 JUMP JUMPDEST PUSH1 0x20 DUP3 ADD SWAP1 POP SWAP2 SWAP1 POP JUMP JUMPDEST PUSH0 PUSH1 0x20 DUP3 ADD SWAP1 POP DUP2 DUP2 SUB PUSH0 DUP4 ADD MSTORE PUSH2 0x6D8 DUP2 PUSH2 0x69F JUMP JUMPDEST SWAP1 POP SWAP2 SWAP1 POP JUMP JUMPDEST PUSH2 0x18CA DUP1 PUSH2 0x6EC PUSH0 CODECOPY PUSH0 RETURN INVALID PUSH1 0x80 PUSH1 0x40 MSTORE PUSH1 0x4 CALLDATASIZE LT PUSH2 0x9F JUMPI PUSH0 CALLDATALOAD PUSH1 0xE0 SHR DUP1 PUSH4 0x8253951A GT PUSH2 0x63 JUMPI DUP1 PUSH4 0x8253951A EQ PUSH2 0x1FE JUMPI DUP1 PUSH4 0x92493B28 EQ PUSH2 0x23A JUMPI DUP1 PUSH4 0x9ACE38C2 EQ PUSH2 0x276 JUMPI DUP1 PUSH4 0xB759F954 EQ PUSH2 0x2B5 JUMPI DUP1 PUSH4 0xDC8452CD EQ PUSH2 0x2DD JUMPI DUP1 PUSH4 0xFE0D94C1 EQ PUSH2 0x307 JUMPI PUSH2 0xF4 JUMP JUMPDEST DUP1 PUSH4 0x25E7C27 EQ PUSH2 0xF8 JUMPI DUP1 PUSH4 0x12065FE0 EQ PUSH2 0x134 JUMPI DUP1 PUSH4 0x14DE327F EQ PUSH2 0x15E JUMPI DUP1 PUSH4 0x20C5429B EQ PUSH2 0x19A JUMPI DUP1 PUSH4 0x2F54BF6E EQ PUSH2 0x1C2 JUMPI PUSH2 0xF4 JUMP JUMPDEST CALLDATASIZE PUSH2 0xF4 JUMPI CALLER PUSH20 0xFFFFFFFFFFFFFFFFFFFFFFFFFFFFFFFFFFFFFFFF AND PUSH32 0xE1FFFCC4923D04B559F4D29A8BFC6CDA04EB5B0D3C460751C2402C5C5CC9109C CALLVALUE PUSH1 0x40 MLOAD PUSH2 0xEA SWAP2 SWAP1 PUSH2 0xF15 JUMP JUMPDEST PUSH1 0x40 MLOAD DUP1 SWAP2 SUB SWAP1 LOG2 STOP JUMPDEST PUSH0 PUSH0 REVERT JUMPDEST CALLVALUE DUP1 ISZERO PUSH2 0x103 JUMPI PUSH0 PUSH0 REVERT JUMPDEST POP PUSH2 0x11E PUSH1 0x4 DUP1 CALLDATASIZE SUB DUP2 ADD SWAP1 PUSH2 0x119 SWAP2 SWAP1 PUSH2 0xF60 JUMP JUMPDEST PUSH2 0x32F JUMP JUMPDEST PUSH1 0x40 MLOAD PUSH2 0x12B SWAP2 SWAP1 PUSH2 0xFCA JUMP JUMPDEST PUSH1 0x40 MLOAD DUP1 SWAP2 SUB SWAP1 RETURN JUMPDEST CALLVALUE DUP1 ISZERO PUSH2 0x13F JUMPI PUSH0 PUSH0 REVERT JUMPDEST POP PUSH2 0x148 PUSH2 0x369 JUMP JUMPDEST PUSH1 0x40 MLOAD PUSH2 0x155 SWAP2 SWAP1 PUSH2 0xF15 JUMP JUMPDEST PUSH1 0x40 MLOAD DUP1 SWAP2 SUB SWAP1 RETURN JUMPDEST CALLVALUE DUP1 ISZERO PUSH2 0x169 JUMPI PUSH0 PUSH0 REVERT JUMPDEST POP PUSH2 0x184 PUSH1 0x4 DUP1 CALLDATASIZE SUB DUP2 ADD SWAP1 PUSH2 0x17F SWAP2 SWAP1 PUSH2 0x106E JUMP JUMPDEST PUSH2 0x370 JUMP JUMPDEST PUSH1 0x40 MLOAD PUSH2 0x191 SWAP2 SWAP1 PUSH2 0xF15 JUMP JUMPDEST PUSH1 0x40 MLOAD DUP1 SWAP2 SUB SWAP1 RETURN JUMPDEST CALLVALUE DUP1 ISZERO PUSH2 0x1A5 JUMPI PUSH0 PUSH0 REVERT JUMPDEST POP PUSH2 0x1C0 PUSH1 0x4 DUP1 CALLDATASIZE SUB DUP2 ADD SWAP1 PUSH2 0x1BB SWAP2 SWAP1 PUSH2 0xF60 JUMP JUMPDEST PUSH2 0x57D JUMP JUMPDEST STOP JUMPDEST CALLVALUE DUP1 ISZERO PUSH2 0x1CD JUMPI PUSH0 PUSH0 REVERT JUMPDEST POP PUSH2 0x1E8 PUSH1 0x4 DUP1 CALLDATASIZE SUB DUP2 ADD SWAP1 PUSH2 0x1E3 SWAP2 SWAP1 PUSH2 0x10DF JUMP JUMPDEST PUSH2 0x803 JUMP JUMPDEST PUSH1 0x40 MLOAD PUSH2 0x1F5 SWAP2 SWAP1 PUSH2 0x1124 JUMP JUMPDEST PUSH1 0x40 MLOAD DUP1 SWAP2 SUB SWAP1 RETURN JUMPDEST CALLVALUE DUP1 ISZERO PUSH2 0x209 JUMPI PUSH0 PUSH0 REVERT JUMPDEST POP PUSH2 0x224 PUSH1 0x4 DUP1 CALLDATASIZE SUB DUP2 ADD SWAP1 PUSH2 0x21F SWAP2 SWAP1 PUSH2 0x113D JUMP JUMPDEST PUSH2 0x820 JUMP JUMPDEST PUSH1 0x40 MLOAD PUSH2 0x231 SWAP2 SWAP1 PUSH2 0x1124 JUMP JUMPDEST PUSH1 0x40 MLOAD DUP1 SWAP2 SUB SWAP1 RETURN JUMPDEST CALLVALUE DUP1 ISZERO PUSH2 0x245 JUMPI PUSH0 PUSH0 REVERT JUMPDEST POP PUSH2 0x260 PUSH1 0x4 DUP1 CALLDATASIZE SUB DUP2 ADD SWAP1 PUSH2 0x25B SWAP2 SWAP1 PUSH2 0xF60 JUMP JUMPDEST PUSH2 0x84A JUMP JUMPDEST PUSH1 0x40 MLOAD PUSH2 0x26D SWAP2 SWAP1 PUSH2 0xF15 JUMP JUMPDEST PUSH1 0x40 MLOAD DUP1 SWAP2 SUB SWAP1 RETURN JUMPDEST CALLVALUE DUP1 ISZERO PUSH2 0x281 JUMPI PUSH0 PUSH0 REVERT JUMPDEST POP PUSH2 0x29C PUSH1 0x4 DUP1 CALLDATASIZE SUB DUP2 ADD SWAP1 PUSH2 0x297 SWAP2 SWAP1 PUSH2 0xF60 JUMP JUMPDEST PUSH2 0x917 JUMP JUMPDEST PUSH1 0x40 MLOAD PUSH2 0x2AC SWAP5 SWAP4 SWAP3 SWAP2 SWAP1 PUSH2 0x11EB JUMP JUMPDEST PUSH1 0x40 MLOAD DUP1 SWAP2 SUB SWAP1 RETURN JUMPDEST CALLVALUE DUP1 ISZERO PUSH2 0x2C0 JUMPI PUSH0 PUSH0 REVERT JUMPDEST POP PUSH2 0x2DB PUSH1 0x4 DUP1 CALLDATASIZE SUB DUP2 ADD SWAP1 PUSH2 0x2D6 SWAP2 SWAP1 PUSH2 0xF60 JUMP JUMPDEST PUSH2 0xA03 JUMP JUMPDEST STOP JUMPDEST CALLVALUE DUP1 ISZERO PUSH2 0x2E8 JUMPI PUSH0 PUSH0 REVERT JUMPDEST POP PUSH2 0x2F1 PUSH2 0xC8C JUMP JUMPDEST PUSH1 0x40 MLOAD PUSH2 0x2FE SWAP2 SWAP1 PUSH2 0xF15 JUMP JUMPDEST PUSH1 0x40 MLOAD DUP1 SWAP2 SUB SWAP1 RETURN JUMPDEST CALLVALUE DUP1 ISZERO PUSH2 0x312 JUMPI PUSH0 PUSH0 REVERT JUMPDEST POP PUSH2 0x32D PUSH1 0x4 DUP1 CALLDATASIZE SUB DUP2 ADD SWAP1 PUSH2 0x328 SWAP2 SWAP1 PUSH2 0xF60 JUMP JUMPDEST PUSH2 0xC92 JUMP JUMPDEST STOP JUMPDEST PUSH0 DUP2 DUP2 SLOAD DUP2 LT PUSH2 0x33D JUMPI PUSH0 DUP1 REVERT JUMPDEST SWAP1 PUSH0 MSTORE PUSH1 0x20 PUSH0 KECCAK256 ADD PUSH0 SWAP2 POP SLOAD SWAP1 PUSH2 0x100 EXP SWAP1 DIV PUSH20 0xFFFFFFFFFFFFFFFFFFFFFFFFFFFFFFFFFFFFFFFF AND DUP2 JUMP JUMPDEST PUSH0 SELFBALANCE SWAP1 POP SWAP1 JUMP JUMPDEST PUSH0 PUSH1 0x1 PUSH0 CALLER PUSH20 0xFFFFFFFFFFFFFFFFFFFFFFFFFFFFFFFFFFFFFFFF AND PUSH20 0xFFFFFFFFFFFFFFFFFFFFFFFFFFFFFFFFFFFFFFFF AND DUP2 MSTORE PUSH1 0x20 ADD SWAP1 DUP2 MSTORE PUSH1 0x20 ADD PUSH0 KECCAK256 PUSH0 SWAP1 SLOAD SWAP1 PUSH2 0x100 EXP SWAP1 DIV PUSH1 0xFF AND PUSH2 0x3FA JUMPI PUSH1 0x40 MLOAD PUSH32 0x8C379A000000000000000000000000000000000000000000000000000000000 DUP2 MSTORE PUSH1 0x4 ADD PUSH2 0x3F1 SWAP1 PUSH2 0x128F JUMP JUMPDEST PUSH1 0x40 MLOAD DUP1 SWAP2 SUB SWAP1 REVERT JUMPDEST PUSH1 0x3 PUSH1 0x40 MLOAD DUP1 PUSH1 0x80 ADD PUSH1 0x40 MSTORE DUP1 DUP8 PUSH20 0xFFFFFFFFFFFFFFFFFFFFFFFFFFFFFFFFFFFFFFFF AND DUP2 MSTORE PUSH1 0x20 ADD DUP7 DUP2 MSTORE PUSH1 0x20 ADD DUP6 DUP6 DUP1 DUP1 PUSH1 0x1F ADD PUSH1 0x20 DUP1 SWAP2 DIV MUL PUSH1 0x20 ADD PUSH1 0x40 MLOAD SWAP1 DUP2 ADD PUSH1 0x40 MSTORE DUP1 SWAP4 SWAP3 SWAP2 SWAP1 DUP2 DUP2 MSTORE PUSH1 0x20 ADD DUP4 DUP4 DUP1 DUP3 DUP5 CALLDATACOPY PUSH0 DUP2 DUP5 ADD MSTORE PUSH1 0x1F NOT PUSH1 0x1F DUP3 ADD AND SWAP1 POP DUP1 DUP4 ADD SWAP3 POP POP POP POP POP POP POP DUP2 MSTORE PUSH1 0x20 ADD PUSH0 ISZERO ISZERO DUP2 MSTORE POP SWAP1 DUP1 PUSH1 0x1 DUP2 SLOAD ADD DUP1 DUP3 SSTORE DUP1 SWAP2 POP POP PUSH1 0x1 SWAP1 SUB SWAP1 PUSH0 MSTORE PUSH1 0x20 PUSH0 KECCAK256 SWAP1 PUSH1 0x4 MUL ADD PUSH0 SWAP1 SWAP2 SWAP1 SWAP2 SWAP1 SWAP2 POP PUSH0 DUP3 ADD MLOAD DUP2 PUSH0 ADD PUSH0 PUSH2 0x100 EXP DUP2 SLOAD DUP2 PUSH20 0xFFFFFFFFFFFFFFFFFFFFFFFFFFFFFFFFFFFFFFFF MUL NOT AND SWAP1 DUP4 PUSH20 0xFFFFFFFFFFFFFFFFFFFFFFFFFFFFFFFFFFFFFFFF AND MUL OR SWAP1 SSTORE POP PUSH1 0x20 DUP3 ADD MLOAD DUP2 PUSH1 0x1 ADD SSTORE PUSH1 0x40 DUP3 ADD MLOAD DUP2 PUSH1 0x2 ADD SWAP1 DUP2 PUSH2 0x501 SWAP2 SWAP1 PUSH2 0x14D7 JUMP JUMPDEST POP PUSH1 0x60 DUP3 ADD MLOAD DUP2 PUSH1 0x3 ADD PUSH0 PUSH2 0x100 EXP DUP2 SLOAD DUP2 PUSH1 0xFF MUL NOT AND SWAP1 DUP4 ISZERO ISZERO MUL OR SWAP1 SSTORE POP POP POP PUSH1 0x1 PUSH1 0x3 DUP1 SLOAD SWAP1 POP PUSH2 0x535 SWAP2 SWAP1 PUSH2 0x15D3 JUMP JUMPDEST PUSH32 0x8324B3D745B914E3ABD4FFBFEAD91E3B78391A98C173202129215AB933ADFBE PUSH1 0x40 MLOAD PUSH1 0x40 MLOAD DUP1 SWAP2 SUB SWAP1 LOG2 PUSH1 0x1 PUSH1 0x3 DUP1 SLOAD SWAP1 POP PUSH2 0x573 SWAP2 SWAP1 PUSH2 0x15D3 JUMP JUMPDEST SWAP1 POP SWAP5 SWAP4 POP POP POP POP JUMP JUMPDEST PUSH1 0x1 PUSH0 CALLER PUSH20 0xFFFFFFFFFFFFFFFFFFFFFFFFFFFFFFFFFFFFFFFF AND PUSH20 0xFFFFFFFFFFFFFFFFFFFFFFFFFFFFFFFFFFFFFFFF AND DUP2 MSTORE PUSH1 0x20 ADD SWAP1 DUP2 MSTORE PUSH1 0x20 ADD PUSH0 KECCAK256 PUSH0 SWAP1 SLOAD SWAP1 PUSH2 0x100 EXP SWAP1 DIV PUSH1 0xFF AND PUSH2 0x606 JUMPI PUSH1 0x40 MLOAD PUSH32 0x8C379A000000000000000000000000000000000000000000000000000000000 DUP2 MSTORE PUSH1 0x4 ADD PUSH2 0x5FD SWAP1 PUSH2 0x128F JUMP JUMPDEST PUSH1 0x40 MLOAD DUP1 SWAP2 SUB SWAP1 REVERT JUMPDEST DUP1 PUSH1 0x3 DUP1 SLOAD SWAP1 POP DUP2 LT PUSH2 0x64E JUMPI PUSH1 0x40 MLOAD PUSH32 0x8C379A000000000000000000000000000000000000000000000000000000000 DUP2 MSTORE PUSH1 0x4 ADD PUSH2 0x645 SWAP1 PUSH2 0x1650 JUMP JUMPDEST PUSH1 0x40 MLOAD DUP1 SWAP2 SUB SWAP1 REVERT JUMPDEST DUP2 PUSH1 0x3 DUP2 DUP2 SLOAD DUP2 LT PUSH2 0x663 JUMPI PUSH2 0x662 PUSH2 0x166E JUMP JUMPDEST JUMPDEST SWAP1 PUSH0 MSTORE PUSH1 0x20 PUSH0 KECCAK256 SWAP1 PUSH1 0x4 MUL ADD PUSH1 0x3 ADD PUSH0 SWAP1 SLOAD SWAP1 PUSH2 0x100 EXP SWAP1 DIV PUSH1 0xFF AND ISZERO PUSH2 0x6BF JUMPI PUSH1 0x40 MLOAD PUSH32 0x8C379A000000000000000000000000000000000000000000000000000000000 DUP2 MSTORE PUSH1 0x4 ADD PUSH2 0x6B6 SWAP1 PUSH2 0x16E5 JUMP JUMPDEST PUSH1 0x40 MLOAD DUP1 SWAP2 SUB SWAP1 REVERT JUMPDEST PUSH1 0x4 PUSH0 DUP5 DUP2 MSTORE PUSH1 0x20 ADD SWAP1 DUP2 MSTORE PUSH1 0x20 ADD PUSH0 KECCAK256 PUSH0 CALLER PUSH20 0xFFFFFFFFFFFFFFFFFFFFFFFFFFFFFFFFFFFFFFFF AND PUSH20 0xFFFFFFFFFFFFFFFFFFFFFFFFFFFFFFFFFFFFFFFF AND DUP2 MSTORE PUSH1 0x20 ADD SWAP1 DUP2 MSTORE PUSH1 0x20 ADD PUSH0 KECCAK256 PUSH0 SWAP1 SLOAD SWAP1 PUSH2 0x100 EXP SWAP1 DIV PUSH1 0xFF AND PUSH2 0x757 JUMPI PUSH1 0x40 MLOAD PUSH32 0x8C379A000000000000000000000000000000000000000000000000000000000 DUP2 MSTORE PUSH1 0x4 ADD PUSH2 0x74E SWAP1 PUSH2 0x174D JUMP JUMPDEST PUSH1 0x40 MLOAD DUP1 SWAP2 SUB SWAP1 REVERT JUMPDEST PUSH0 PUSH1 0x4 PUSH0 DUP6 DUP2 MSTORE PUSH1 0x20 ADD SWAP1 DUP2 MSTORE PUSH1 0x20 ADD PUSH0 KECCAK256 PUSH0 CALLER PUSH20 0xFFFFFFFFFFFFFFFFFFFFFFFFFFFFFFFFFFFFFFFF AND PUSH20 0xFFFFFFFFFFFFFFFFFFFFFFFFFFFFFFFFFFFFFFFF AND DUP2 MSTORE PUSH1 0x20 ADD SWAP1 DUP2 MSTORE PUSH1 0x20 ADD PUSH0 KECCAK256 PUSH0 PUSH2 0x100 EXP DUP2 SLOAD DUP2 PUSH1 0xFF MUL NOT AND SWAP1 DUP4 ISZERO ISZERO MUL OR SWAP1 SSTORE POP DUP3 CALLER PUSH20 0xFFFFFFFFFFFFFFFFFFFFFFFFFFFFFFFFFFFFFFFF AND PUSH32 0xEC9AB91322523C899EDE7830EC9BFC992B5981CDCC27B91162FB23DE5791117B PUSH1 0x40 MLOAD PUSH1 0x40 MLOAD DUP1 SWAP2 SUB SWAP1 LOG3 POP POP POP JUMP JUMPDEST PUSH1 0x1 PUSH1 0x20 MSTORE DUP1 PUSH0 MSTORE PUSH1 0x40 PUSH0 KECCAK256 PUSH0 SWAP2 POP SLOAD SWAP1 PUSH2 0x100 EXP SWAP1 DIV PUSH1 0xFF AND DUP2 JUMP JUMPDEST PUSH1 0x4 PUSH1 0x20 MSTORE DUP2 PUSH0 MSTORE PUSH1 0x40 PUSH0 KECCAK256 PUSH1 0x20 MSTORE DUP1 PUSH0 MSTORE PUSH1 0x40 PUSH0 KECCAK256 PUSH0 SWAP2 POP SWAP2 POP SWAP1 SLOAD SWAP1 PUSH2 0x100 EXP SWAP1 DIV PUSH1 0xFF AND DUP2 JUMP JUMPDEST PUSH0 PUSH0 PUSH0 SWAP1 POP JUMPDEST PUSH0 DUP1 SLOAD SWAP1 POP DUP2 LT ISZERO PUSH2 0x911 JUMPI PUSH1 0x4 PUSH0 DUP5 DUP2 MSTORE PUSH1 0x20 ADD SWAP1 DUP2 MSTORE PUSH1 0x20 ADD PUSH0 KECCAK256 PUSH0 PUSH0 DUP4 DUP2 SLOAD DUP2 LT PUSH2 0x881 JUMPI PUSH2 0x880 PUSH2 0x166E JUMP JUMPDEST JUMPDEST SWAP1 PUSH0 MSTORE PUSH1 0x20 PUSH0 KECCAK256 ADD PUSH0 SWAP1 SLOAD SWAP1 PUSH2 0x100 EXP SWAP1 DIV PUSH20 0xFFFFFFFFFFFFFFFFFFFFFFFFFFFFFFFFFFFFFFFF AND PUSH20 0xFFFFFFFFFFFFFFFFFFFFFFFFFFFFFFFFFFFFFFFF AND PUSH20 0xFFFFFFFFFFFFFFFFFFFFFFFFFFFFFFFFFFFFFFFF AND DUP2 MSTORE PUSH1 0x20 ADD SWAP1 DUP2 MSTORE PUSH1 0x20 ADD PUSH0 KECCAK256 PUSH0 SWAP1 SLOAD SWAP1 PUSH2 0x100 EXP SWAP1 DIV PUSH1 0xFF AND ISZERO PUSH2 0x904 JUMPI PUSH1 0x1 DUP3 PUSH2 0x901 SWAP2 SWAP1 PUSH2 0x176B JUMP JUMPDEST SWAP2 POP JUMPDEST DUP1 DUP1 PUSH1 0x1 ADD SWAP2 POP POP PUSH2 0x850 JUMP JUMPDEST POP SWAP2 SWAP1 POP JUMP JUMPDEST PUSH1 0x3 DUP2 DUP2 SLOAD DUP2 LT PUSH2 0x926 JUMPI PUSH0 DUP1 REVERT JUMPDEST SWAP1 PUSH0 MSTORE PUSH1 0x20 PUSH0 KECCAK256 SWAP1 PUSH1 0x4 MUL ADD PUSH0 SWAP2 POP SWAP1 POP DUP1 PUSH0 ADD PUSH0 SWAP1 SLOAD SWAP1 PUSH2 0x100 EXP SWAP1 DIV PUSH20 0xFFFFFFFFFFFFFFFFFFFFFFFFFFFFFFFFFFFFFFFF AND SWAP1 DUP1 PUSH1 0x1 ADD SLOAD SWAP1 DUP1 PUSH1 0x2 ADD DUP1 SLOAD PUSH2 0x970 SWAP1 PUSH2 0x1307 JUMP JUMPDEST DUP1 PUSH1 0x1F ADD PUSH1 0x20 DUP1 SWAP2 DIV MUL PUSH1 0x20 ADD PUSH1 0x40 MLOAD SWAP1 DUP2 ADD PUSH1 0x40 MSTORE DUP1 SWAP3 SWAP2 SWAP1 DUP2 DUP2 MSTORE PUSH1 0x20 ADD DUP3 DUP1 SLOAD PUSH2 0x99C SWAP1 PUSH2 0x1307 JUMP JUMPDEST DUP1 ISZERO PUSH2 0x9E7 JUMPI DUP1 PUSH1 0x1F LT PUSH2 0x9BE JUMPI PUSH2 0x100 DUP1 DUP4 SLOAD DIV MUL DUP4 MSTORE SWAP2 PUSH1 0x20 ADD SWAP2 PUSH2 0x9E7 JUMP JUMPDEST DUP3 ADD SWAP2 SWAP1 PUSH0 MSTORE PUSH1 0x20 PUSH0 KECCAK256 SWAP1 JUMPDEST DUP2 SLOAD DUP2 MSTORE SWAP1 PUSH1 0x1 ADD SWAP1 PUSH1 0x20 ADD DUP1 DUP4 GT PUSH2 0x9CA JUMPI DUP3 SWAP1 SUB PUSH1 0x1F AND DUP3 ADD SWAP2 JUMPDEST POP POP POP POP POP SWAP1 DUP1 PUSH1 0x3 ADD PUSH0 SWAP1 SLOAD SWAP1 PUSH2 0x100 EXP SWAP1 DIV PUSH1 0xFF AND SWAP1 POP DUP5 JUMP JUMPDEST PUSH1 0x1 PUSH0 CALLER PUSH20 0xFFFFFFFFFFFFFFFFFFFFFFFFFFFFFFFFFFFFFFFF AND PUSH20 0xFFFFFFFFFFFFFFFFFFFFFFFFFFFFFFFFFFFFFFFF AND DUP2 MSTORE PUSH1 0x20 ADD SWAP1 DUP2 MSTORE PUSH1 0x20 ADD PUSH0 KECCAK256 PUSH0 SWAP1 SLOAD SWAP1 PUSH2 0x100 EXP SWAP1 DIV PUSH1 0xFF AND PUSH2 0xA8C JUMPI PUSH1 0x40 MLOAD PUSH32 0x8C379A000000000000000000000000000000000000000000000000000000000 DUP2 MSTORE PUSH1 0x4 ADD PUSH2 0xA83 SWAP1 PUSH2 0x128F JUMP JUMPDEST PUSH1 0x40 MLOAD DUP1 SWAP2 SUB SWAP1 REVERT JUMPDEST DUP1 PUSH1 0x3 DUP1 SLOAD SWAP1 POP DUP2 LT PUSH2 0xAD4 JUMPI PUSH1 0x40 MLOAD PUSH32 0x8C379A000000000000000000000000000000000000000000000000000000000 DUP2 MSTORE PUSH1 0x4 ADD PUSH2 0xACB SWAP1 PUSH2 0x1650 JUMP JUMPDEST PUSH1 0x40 MLOAD DUP1 SWAP2 SUB SWAP1 REVERT JUMPDEST DUP2 PUSH1 0x4 PUSH0 DUP3 DUP2 MSTORE PUSH1 0x20 ADD SWAP1 DUP2 MSTORE PUSH1 0x20 ADD PUSH0 KECCAK256 PUSH0 CALLER PUSH20 0xFFFFFFFFFFFFFFFFFFFFFFFFFFFFFFFFFFFFFFFF AND PUSH20 0xFFFFFFFFFFFFFFFFFFFFFFFFFFFFFFFFFFFFFFFF AND DUP2 MSTORE PUSH1 0x20 ADD SWAP1 DUP2 MSTORE PUSH1 0x20 ADD PUSH0 KECCAK256 PUSH0 SWAP1 SLOAD SWAP1 PUSH2 0x100 EXP SWAP1 DIV PUSH1 0xFF AND PUSH2 0xB6D JUMPI PUSH1 0x40 MLOAD PUSH32 0x8C379A000000000000000000000000000000000000000000000000000000000 DUP2 MSTORE PUSH1 0x4 ADD PUSH2 0xB64 SWAP1 PUSH2 0x17E8 JUMP JUMPDEST PUSH1 0x40 MLOAD DUP1 SWAP2 SUB SWAP1 REVERT JUMPDEST DUP3 PUSH1 0x3 DUP2 DUP2 SLOAD DUP2 LT PUSH2 0xB82 JUMPI PUSH2 0xB81 PUSH2 0x166E JUMP JUMPDEST JUMPDEST SWAP1 PUSH0 MSTORE PUSH1 0x20 PUSH0 KECCAK256 SWAP1 PUSH1 0x4 MUL ADD PUSH1 0x3 ADD PUSH0 SWAP1 SLOAD SWAP1 PUSH2 0x100 EXP SWAP1 DIV PUSH1 0xFF AND ISZERO PUSH2 0xBDE JUMPI PUSH1 0x40 MLOAD PUSH32 0x8C379A000000000000000000000000000000000000000000000000000000000 DUP2 MSTORE PUSH1 0x4 ADD PUSH2 0xBD5 SWAP1 PUSH2 0x16E5 JUMP JUMPDEST PUSH1 0x40 MLOAD DUP1 SWAP2 SUB SWAP1 REVERT JUMPDEST PUSH1 0x1 PUSH1 0x4 PUSH0 DUP7 DUP2 MSTORE PUSH1 0x20 ADD SWAP1 DUP2 MSTORE PUSH1 0x20 ADD PUSH0 KECCAK256 PUSH0 CALLER PUSH20 0xFFFFFFFFFFFFFFFFFFFFFFFFFFFFFFFFFFFFFFFF AND PUSH20 0xFFFFFFFFFFFFFFFFFFFFFFFFFFFFFFFFFFFFFFFF AND DUP2 MSTORE PUSH1 0x20 ADD SWAP1 DUP2 MSTORE PUSH1 0x20 ADD PUSH0 KECCAK256 PUSH0 PUSH2 0x100 EXP DUP2 SLOAD DUP2 PUSH1 0xFF MUL NOT AND SWAP1 DUP4 ISZERO ISZERO MUL OR SWAP1 SSTORE POP DUP4 CALLER PUSH20 0xFFFFFFFFFFFFFFFFFFFFFFFFFFFFFFFFFFFFFFFF AND PUSH32 0x90EC57F18FA7B15C6B8D5E4D1DEB90796C74B2FF23D4D0CECAD0CB42A96B3128 PUSH1 0x40 MLOAD PUSH1 0x40 MLOAD DUP1 SWAP2 SUB SWAP1 LOG3 POP POP POP POP JUMP JUMPDEST PUSH1 0x2 SLOAD DUP2 JUMP JUMPDEST PUSH1 0x1 PUSH0 CALLER PUSH20 0xFFFFFFFFFFFFFFFFFFFFFFFFFFFFFFFFFFFFFFFF AND PUSH20 0xFFFFFFFFFFFFFFFFFFFFFFFFFFFFFFFFFFFFFFFF AND DUP2 MSTORE PUSH1 0x20 ADD SWAP1 DUP2 MSTORE PUSH1 0x20 ADD PUSH0 KECCAK256 PUSH0 SWAP1 SLOAD SWAP1 PUSH2 0x100 EXP SWAP1 DIV PUSH1 0xFF AND PUSH2 0xD1B JUMPI PUSH1 0x40 MLOAD PUSH32 0x8C379A000000000000000000000000000000000000000000000000000000000 DUP2 MSTORE PUSH1 0x4 ADD PUSH2 0xD12 SWAP1 PUSH2 0x128F JUMP JUMPDEST PUSH1 0x40 MLOAD DUP1 SWAP2 SUB SWAP1 REVERT JUMPDEST DUP1 PUSH1 0x3 DUP1 SLOAD SWAP1 POP DUP2 LT PUSH2 0xD63 JUMPI PUSH1 0x40 MLOAD PUSH32 0x8C379A000000000000000000000000000000000000000000000000000000000 DUP2 MSTORE PUSH1 0x4 ADD PUSH2 0xD5A SWAP1 PUSH2 0x1650 JUMP JUMPDEST PUSH1 0x40 MLOAD DUP1 SWAP2 SUB SWAP1 REVERT JUMPDEST DUP2 PUSH1 0x3 DUP2 DUP2 SLOAD DUP2 LT PUSH2 0xD78 JUMPI PUSH2 0xD77 PUSH2 0x166E JUMP JUMPDEST JUMPDEST SWAP1 PUSH0 MSTORE PUSH1 0x20 PUSH0 KECCAK256 SWAP1 PUSH1 0x4 MUL ADD PUSH1 0x3 ADD PUSH0 SWAP1 SLOAD SWAP1 PUSH2 0x100 EXP SWAP1 DIV PUSH1 0xFF AND ISZERO PUSH2 0xDD4 JUMPI PUSH1 0x40 MLOAD PUSH32 0x8C379A000000000000000000000000000000000000000000000000000000000 DUP2 MSTORE PUSH1 0x4 ADD PUSH2 0xDCB SWAP1 PUSH2 0x16E5 JUMP JUMPDEST PUSH1 0x40 MLOAD DUP1 SWAP2 SUB SWAP1 REVERT JUMPDEST PUSH1 0x2 SLOAD PUSH2 0xDE0 DUP5 PUSH2 0x84A JUMP JUMPDEST LT ISZERO PUSH2 0xE21 JUMPI PUSH1 0x40 MLOAD PUSH32 0x8C379A000000000000000000000000000000000000000000000000000000000 DUP2 MSTORE PUSH1 0x4 ADD PUSH2 0xE18 SWAP1 PUSH2 0x1876 JUMP JUMPDEST PUSH1 0x40 MLOAD DUP1 SWAP2 SUB SWAP1 REVERT JUMPDEST PUSH0 PUSH1 0x3 DUP5 DUP2 SLOAD DUP2 LT PUSH2 0xE36 JUMPI PUSH2 0xE35 PUSH2 0x166E JUMP JUMPDEST JUMPDEST SWAP1 PUSH0 MSTORE PUSH1 0x20 PUSH0 KECCAK256 SWAP1 PUSH1 0x4 MUL ADD SWAP1 POP PUSH1 0x1 DUP2 PUSH1 0x3 ADD PUSH0 PUSH2 0x100 EXP DUP2 SLOAD DUP2 PUSH1 0xFF MUL NOT AND SWAP1 DUP4 ISZERO ISZERO MUL OR SWAP1 SSTORE POP DUP1 PUSH0 ADD PUSH0 SWAP1 SLOAD SWAP1 PUSH2 0x100 EXP SWAP1 DIV PUSH20 0xFFFFFFFFFFFFFFFFFFFFFFFFFFFFFFFFFFFFFFFF AND PUSH20 0xFFFFFFFFFFFFFFFFFFFFFFFFFFFFFFFFFFFFFFFF AND PUSH2 0x8FC DUP3 PUSH1 0x1 ADD SLOAD SWAP1 DUP2 ISZERO MUL SWAP1 PUSH1 0x40 MLOAD PUSH0 PUSH1 0x40 MLOAD DUP1 DUP4 SUB DUP2 DUP6 DUP9 DUP9 CALL SWAP4 POP POP POP POP ISZERO DUP1 ISZERO PUSH2 0xEC9 JUMPI RETURNDATASIZE PUSH0 PUSH0 RETURNDATACOPY RETURNDATASIZE PUSH0 REVERT JUMPDEST POP DUP4 PUSH32 0xDDB556F1D2C1EC821E910B019D3685B229DB152A0ECD517CA7E24B8BD7139289 PUSH1 0x40 MLOAD PUSH1 0x40 MLOAD DUP1 SWAP2 SUB SWAP1 LOG2 POP POP POP POP JUMP JUMPDEST PUSH0 DUP2 SWAP1 POP SWAP2 SWAP1 POP JUMP JUMPDEST PUSH2 0xF0F DUP2 PUSH2 0xEFD JUMP JUMPDEST DUP3 MSTORE POP POP JUMP JUMPDEST PUSH0 PUSH1 0x20 DUP3 ADD SWAP1 POP PUSH2 0xF28 PUSH0 DUP4 ADD DUP5 PUSH2 0xF06 JUMP JUMPDEST SWAP3 SWAP2 POP POP JUMP JUMPDEST PUSH0 PUSH0 REVERT JUMPDEST PUSH0 PUSH0 REVERT JUMPDEST PUSH2 0xF3F DUP2 PUSH2 0xEFD JUMP JUMPDEST DUP2 EQ PUSH2 0xF49 JUMPI PUSH0 PUSH0 REVERT JUMPDEST POP JUMP JUMPDEST PUSH0 DUP2 CALLDATALOAD SWAP1 POP PUSH2 0xF5A DUP2 PUSH2 0xF36 JUMP JUMPDEST SWAP3 SWAP2 POP POP JUMP JUMPDEST PUSH0 PUSH1 0x20 DUP3 DUP5 SUB SLT ISZERO PUSH2 0xF75 JUMPI PUSH2 0xF74 PUSH2 0xF2E JUMP JUMPDEST JUMPDEST PUSH0 PUSH2 0xF82 DUP5 DUP3 DUP6 ADD PUSH2 0xF4C JUMP JUMPDEST SWAP2 POP POP SWAP3 SWAP2 POP POP JUMP JUMPDEST PUSH0 PUSH20 0xFFFFFFFFFFFFFFFFFFFFFFFFFFFFFFFFFFFFFFFF DUP3 AND SWAP1 POP SWAP2 SWAP1 POP JUMP JUMPDEST PUSH0 PUSH2 0xFB4 DUP3 PUSH2 0xF8B JUMP JUMPDEST SWAP1 POP SWAP2 SWAP1 POP JUMP JUMPDEST PUSH2 0xFC4 DUP2 PUSH2 0xFAA JUMP JUMPDEST DUP3 MSTORE POP POP JUMP JUMPDEST PUSH0 PUSH1 0x20 DUP3 ADD SWAP1 POP PUSH2 0xFDD PUSH0 DUP4 ADD DUP5 PUSH2 0xFBB JUMP JUMPDEST SWAP3 SWAP2 POP POP JUMP JUMPDEST PUSH2 0xFEC DUP2 PUSH2 0xFAA JUMP JUMPDEST DUP2 EQ PUSH2 0xFF6 JUMPI PUSH0 PUSH0 REVERT JUMPDEST POP JUMP JUMPDEST PUSH0 DUP2 CALLDATALOAD SWAP1 POP PUSH2 0x1007 DUP2 PUSH2 0xFE3 JUMP JUMPDEST SWAP3 SWAP2 POP POP JUMP JUMPDEST PUSH0 PUSH0 REVERT JUMPDEST PUSH0 PUSH0 REVERT JUMPDEST PUSH0 PUSH0 REVERT JUMPDEST PUSH0 PUSH0 DUP4 PUSH1 0x1F DUP5 ADD SLT PUSH2 0x102E JUMPI PUSH2 0x102D PUSH2 0x100D JUMP JUMPDEST JUMPDEST DUP3 CALLDATALOAD SWAP1 POP PUSH8 0xFFFFFFFFFFFFFFFF DUP2 GT ISZERO PUSH2 0x104B JUMPI PUSH2 0x104A PUSH2 0x1011 JUMP JUMPDEST JUMPDEST PUSH1 0x20 DUP4 ADD SWAP2 POP DUP4 PUSH1 0x1 DUP3 MUL DUP4 ADD GT ISZERO PUSH2 0x1067 JUMPI PUSH2 0x1066 PUSH2 0x1015 JUMP JUMPDEST JUMPDEST SWAP3 POP SWAP3 SWAP1 POP JUMP JUMPDEST PUSH0 PUSH0 PUSH0 PUSH0 PUSH1 0x60 DUP6 DUP8 SUB SLT ISZERO PUSH2 0x1086 JUMPI PUSH2 0x1085 PUSH2 0xF2E JUMP JUMPDEST JUMPDEST PUSH0 PUSH2 0x1093 DUP8 DUP3 DUP9 ADD PUSH2 0xFF9 JUMP JUMPDEST SWAP5 POP POP PUSH1 0x20 PUSH2 0x10A4 DUP8 DUP3 DUP9 ADD PUSH2 0xF4C JUMP JUMPDEST SWAP4 POP POP PUSH1 0x40 DUP6 ADD CALLDATALOAD PUSH8 0xFFFFFFFFFFFFFFFF DUP2 GT ISZERO PUSH2 0x10C5 JUMPI PUSH2 0x10C4 PUSH2 0xF32 JUMP JUMPDEST JUMPDEST PUSH2 0x10D1 DUP8 DUP3 DUP9 ADD PUSH2 0x1019 JUMP JUMPDEST SWAP3 POP SWAP3 POP POP SWAP3 SWAP6 SWAP2 SWAP5 POP SWAP3 POP JUMP JUMPDEST PUSH0 PUSH1 0x20 DUP3 DUP5 SUB SLT ISZERO PUSH2 0x10F4 JUMPI PUSH2 0x10F3 PUSH2 0xF2E JUMP JUMPDEST JUMPDEST PUSH0 PUSH2 0x1101 DUP5 DUP3 DUP6 ADD PUSH2 0xFF9 JUMP JUMPDEST SWAP2 POP POP SWAP3 SWAP2 POP POP JUMP JUMPDEST PUSH0 DUP2 ISZERO ISZERO SWAP1 POP SWAP2 SWAP1 POP JUMP JUMPDEST PUSH2 0x111E DUP2 PUSH2 0x110A JUMP JUMPDEST DUP3 MSTORE POP POP JUMP JUMPDEST PUSH0 PUSH1 0x20 DUP3 ADD SWAP1 POP PUSH2 0x1137 PUSH0 DUP4 ADD DUP5 PUSH2 0x1115 JUMP JUMPDEST SWAP3 SWAP2 POP POP JUMP JUMPDEST PUSH0 PUSH0 PUSH1 0x40 DUP4 DUP6 SUB SLT ISZERO PUSH2 0x1153 JUMPI PUSH2 0x1152 PUSH2 0xF2E JUMP JUMPDEST JUMPDEST PUSH0 PUSH2 0x1160 DUP6 DUP3 DUP7 ADD PUSH2 0xF4C JUMP JUMPDEST SWAP3 POP POP PUSH1 0x20 PUSH2 0x1171 DUP6 DUP3 DUP7 ADD PUSH2 0xFF9 JUMP JUMPDEST SWAP2 POP POP SWAP3 POP SWAP3 SWAP1 POP JUMP JUMPDEST PUSH0 DUP2 MLOAD SWAP1 POP SWAP2 SWAP1 POP JUMP JUMPDEST PUSH0 DUP3 DUP3 MSTORE PUSH1 0x20 DUP3 ADD SWAP1 POP SWAP3 SWAP2 POP POP JUMP JUMPDEST DUP3 DUP2 DUP4 MCOPY PUSH0 DUP4 DUP4 ADD MSTORE POP POP POP JUMP JUMPDEST PUSH0 PUSH1 0x1F NOT PUSH1 0x1F DUP4 ADD AND SWAP1 POP SWAP2 SWAP1 POP JUMP JUMPDEST PUSH0 PUSH2 0x11BD DUP3 PUSH2 0x117B JUMP JUMPDEST PUSH2 0x11C7 DUP2 DUP6 PUSH2 0x1185 JUMP JUMPDEST SWAP4 POP PUSH2 0x11D7 DUP2 DUP6 PUSH1 0x20 DUP7 ADD PUSH2 0x1195 JUMP JUMPDEST PUSH2 0x11E0 DUP2 PUSH2 0x11A3 JUMP JUMPDEST DUP5 ADD SWAP2 POP POP SWAP3 SWAP2 POP POP JUMP JUMPDEST PUSH0 PUSH1 0x80 DUP3 ADD SWAP1 POP PUSH2 0x11FE PUSH0 DUP4 ADD DUP8 PUSH2 0xFBB JUMP JUMPDEST PUSH2 0x120B PUSH1 0x20 DUP4 ADD DUP7 PUSH2 0xF06 JUMP JUMPDEST DUP2 DUP2 SUB PUSH1 0x40 DUP4 ADD MSTORE PUSH2 0x121D DUP2 DUP6 PUSH2 0x11B3 JUMP JUMPDEST SWAP1 POP PUSH2 0x122C PUSH1 0x60 DUP4 ADD DUP5 PUSH2 0x1115 JUMP JUMPDEST SWAP6 SWAP5 POP POP POP POP POP JUMP JUMPDEST PUSH0 DUP3 DUP3 MSTORE PUSH1 0x20 DUP3 ADD SWAP1 POP SWAP3 SWAP2 POP POP JUMP JUMPDEST PUSH32 0x6E6F74206F776E65720000000000000000000000000000000000000000000000 PUSH0 DUP3 ADD MSTORE POP JUMP JUMPDEST PUSH0 PUSH2 0x1279 PUSH1 0x9 DUP4 PUSH2 0x1235 JUMP JUMPDEST SWAP2 POP PUSH2 0x1284 DUP3 PUSH2 0x1245 JUMP JUMPDEST PUSH1 0x20 DUP3 ADD SWAP1 POP SWAP2 SWAP1 POP JUMP JUMPDEST PUSH0 PUSH1 0x20 DUP3 ADD SWAP1 POP DUP2 DUP2 SUB PUSH0 DUP4 ADD MSTORE PUSH2 0x12A6 DUP2 PUSH2 0x126D JUMP JUMPDEST SWAP1 POP SWAP2 SWAP1 POP JUMP JUMPDEST PUSH32 0x4E487B7100000000000000000000000000000000000000000000000000000000 PUSH0 MSTORE PUSH1 0x41 PUSH1 0x4 MSTORE PUSH1 0x24 PUSH0 REVERT JUMPDEST PUSH32 0x4E487B7100000000000000000000000000000000000000000000000000000000 PUSH0 MSTORE PUSH1 0x22 PUSH1 0x4 MSTORE PUSH1 0x24 PUSH0 REVERT JUMPDEST PUSH0 PUSH1 0x2 DUP3 DIV SWAP1 POP PUSH1 0x1 DUP3 AND DUP1 PUSH2 0x131E JUMPI PUSH1 0x7F DUP3 AND SWAP2 POP JUMPDEST PUSH1 0x20 DUP3 LT DUP2 SUB PUSH2 0x1331 JUMPI PUSH2 0x1330 PUSH2 0x12DA JUMP JUMPDEST JUMPDEST POP SWAP2 SWAP1 POP JUMP JUMPDEST PUSH0 DUP2 SWAP1 POP DUP2 PUSH0 MSTORE PUSH1 0x20 PUSH0 KECCAK256 SWAP1 POP SWAP2 SWAP1 POP JUMP JUMPDEST PUSH0 PUSH1 0x20 PUSH1 0x1F DUP4 ADD DIV SWAP1 POP SWAP2 SWAP1 POP JUMP JUMPDEST PUSH0 DUP3 DUP3 SHL SWAP1 POP SWAP3 SWAP2 POP POP JUMP JUMPDEST PUSH0 PUSH1 0x8 DUP4 MUL PUSH2 0x1393 PUSH32 0xFFFFFFFFFFFFFFFFFFFFFFFFFFFFFFFFFFFFFFFFFFFFFFFFFFFFFFFFFFFFFFFF DUP3 PUSH2 0x1358 JUMP JUMPDEST PUSH2 0x139D DUP7 DUP4 PUSH2 0x1358 JUMP JUMPDEST SWAP6 POP DUP1 NOT DUP5 AND SWAP4 POP DUP1 DUP7 AND DUP5 OR SWAP3 POP POP POP SWAP4 SWAP3 POP POP POP JUMP JUMPDEST PUSH0 DUP2 SWAP1 POP SWAP2 SWAP1 POP JUMP JUMPDEST PUSH0 PUSH2 0x13D8 PUSH2 0x13D3 PUSH2 0x13CE DUP5 PUSH2 0xEFD JUMP JUMPDEST PUSH2 0x13B5 JUMP JUMPDEST PUSH2 0xEFD JUMP JUMPDEST SWAP1 POP SWAP2 SWAP1 POP JUMP JUMPDEST PUSH0 DUP2 SWAP1 POP SWAP2 SWAP1 POP JUMP JUMPDEST PUSH2 0x13F1 DUP4 PUSH2 0x13BE JUMP JUMPDEST PUSH2 0x1405 PUSH2 0x13FD DUP3 PUSH2 0x13DF JUMP JUMPDEST DUP5 DUP5 SLOAD PUSH2 0x1364 JUMP JUMPDEST DUP3 SSTORE POP POP POP POP JUMP JUMPDEST PUSH0 PUSH0 SWAP1 POP SWAP1 JUMP JUMPDEST PUSH2 0x141C PUSH2 0x140D JUMP JUMPDEST PUSH2 0x1427 DUP2 DUP5 DUP5 PUSH2 0x13E8 JUMP JUMPDEST POP POP POP JUMP JUMPDEST JUMPDEST DUP2 DUP2 LT ISZERO PUSH2 0x144A JUMPI PUSH2 0x143F PUSH0 DUP3 PUSH2 0x1414 JUMP JUMPDEST PUSH1 0x1 DUP2 ADD SWAP1 POP PUSH2 0x142D JUMP JUMPDEST POP POP JUMP JUMPDEST PUSH1 0x1F DUP3 GT ISZERO PUSH2 0x148F JUMPI PUSH2 0x1460 DUP2 PUSH2 0x1337 JUMP JUMPDEST PUSH2 0x1469 DUP5 PUSH2 0x1349 JUMP JUMPDEST DUP2 ADD PUSH1 0x20 DUP6 LT ISZERO PUSH2 0x1478 JUMPI DUP2 SWAP1 POP JUMPDEST PUSH2 0x148C PUSH2 0x1484 DUP6 PUSH2 0x1349 JUMP JUMPDEST DUP4 ADD DUP3 PUSH2 0x142C JUMP JUMPDEST POP POP JUMPDEST POP POP POP JUMP JUMPDEST PUSH0 DUP3 DUP3 SHR SWAP1 POP SWAP3 SWAP2 POP POP JUMP JUMPDEST PUSH0 PUSH2 0x14AF PUSH0 NOT DUP5 PUSH1 0x8 MUL PUSH2 0x1494 JUMP JUMPDEST NOT DUP1 DUP4 AND SWAP2 POP POP SWAP3 SWAP2 POP POP JUMP JUMPDEST PUSH0 PUSH2 0x14C7 DUP4 DUP4 PUSH2 0x14A0 JUMP JUMPDEST SWAP2 POP DUP3 PUSH1 0x2 MUL DUP3 OR SWAP1 POP SWAP3 SWAP2 POP POP JUMP JUMPDEST PUSH2 0x14E0 DUP3 PUSH2 0x117B JUMP JUMPDEST PUSH8 0xFFFFFFFFFFFFFFFF DUP2 GT ISZERO PUSH2 0x14F9 JUMPI PUSH2 0x14F8 PUSH2 0x12AD JUMP JUMPDEST JUMPDEST PUSH2 0x1503 DUP3 SLOAD PUSH2 0x1307 JUMP JUMPDEST PUSH2 0x150E DUP3 DUP3 DUP6 PUSH2 0x144E JUMP JUMPDEST PUSH0 PUSH1 0x20 SWAP1 POP PUSH1 0x1F DUP4 GT PUSH1 0x1 DUP2 EQ PUSH2 0x153F JUMPI PUSH0 DUP5 ISZERO PUSH2 0x152D JUMPI DUP3 DUP8 ADD MLOAD SWAP1 POP JUMPDEST PUSH2 0x1537 DUP6 DUP3 PUSH2 0x14BC JUMP JUMPDEST DUP7 SSTORE POP PUSH2 0x159E JUMP JUMPDEST PUSH1 0x1F NOT DUP5 AND PUSH2 0x154D DUP7 PUSH2 0x1337 JUMP JUMPDEST PUSH0 JUMPDEST DUP3 DUP2 LT ISZERO PUSH2 0x1574 JUMPI DUP5 DUP10 ADD MLOAD DUP3 SSTORE PUSH1 0x1 DUP3 ADD SWAP2 POP PUSH1 0x20 DUP6 ADD SWAP5 POP PUSH1 0x20 DUP2 ADD SWAP1 POP PUSH2 0x154F JUMP JUMPDEST DUP7 DUP4 LT ISZERO PUSH2 0x1591 JUMPI DUP5 DUP10 ADD MLOAD PUSH2 0x158D PUSH1 0x1F DUP10 AND DUP3 PUSH2 0x14A0 JUMP JUMPDEST DUP4 SSTORE POP JUMPDEST PUSH1 0x1 PUSH1 0x2 DUP9 MUL ADD DUP9 SSTORE POP POP POP JUMPDEST POP POP POP POP POP POP JUMP JUMPDEST PUSH32 0x4E487B7100000000000000000000000000000000000000000000000000000000 PUSH0 MSTORE PUSH1 0x11 PUSH1 0x4 MSTORE PUSH1 0x24 PUSH0 REVERT JUMPDEST PUSH0 PUSH2 0x15DD DUP3 PUSH2 0xEFD JUMP JUMPDEST SWAP2 POP PUSH2 0x15E8 DUP4 PUSH2 0xEFD JUMP JUMPDEST SWAP3 POP DUP3 DUP3 SUB SWAP1 POP DUP2 DUP2 GT ISZERO PUSH2 0x1600 JUMPI PUSH2 0x15FF PUSH2 0x15A6 JUMP JUMPDEST JUMPDEST SWAP3 SWAP2 POP POP JUMP JUMPDEST PUSH32 0x747820646F65736E742065786973740000000000000000000000000000000000 PUSH0 DUP3 ADD MSTORE POP JUMP JUMPDEST PUSH0 PUSH2 0x163A PUSH1 0xF DUP4 PUSH2 0x1235 JUMP JUMPDEST SWAP2 POP PUSH2 0x1645 DUP3 PUSH2 0x1606 JUMP JUMPDEST PUSH1 0x20 DUP3 ADD SWAP1 POP SWAP2 SWAP1 POP JUMP JUMPDEST PUSH0 PUSH1 0x20 DUP3 ADD SWAP1 POP DUP2 DUP2 SUB PUSH0 DUP4 ADD MSTORE PUSH2 0x1667 DUP2 PUSH2 0x162E JUMP JUMPDEST SWAP1 POP SWAP2 SWAP1 POP JUMP JUMPDEST PUSH32 0x4E487B7100000000000000000000000000000000000000000000000000000000 PUSH0 MSTORE PUSH1 0x32 PUSH1 0x4 MSTORE PUSH1 0x24 PUSH0 REVERT JUMPDEST PUSH32 0x7478206973206578656375746564000000000000000000000000000000000000 PUSH0 DUP3 ADD MSTORE POP JUMP JUMPDEST PUSH0 PUSH2 0x16CF PUSH1 0xE DUP4 PUSH2 0x1235 JUMP JUMPDEST SWAP2 POP PUSH2 0x16DA DUP3 PUSH2 0x169B JUMP JUMPDEST PUSH1 0x20 DUP3 ADD SWAP1 POP SWAP2 SWAP1 POP JUMP JUMPDEST PUSH0 PUSH1 0x20 DUP3 ADD SWAP1 POP DUP2 DUP2 SUB PUSH0 DUP4 ADD MSTORE PUSH2 0x16FC DUP2 PUSH2 0x16C3 JUMP JUMPDEST SWAP1 POP SWAP2 SWAP1 POP JUMP JUMPDEST PUSH32 0x7478206E6F7420617070726F7665640000000000000000000000000000000000 PUSH0 DUP3 ADD MSTORE POP JUMP JUMPDEST PUSH0 PUSH2 0x1737 PUSH1 0xF DUP4 PUSH2 0x1235 JUMP JUMPDEST SWAP2 POP PUSH2 0x1742 DUP3 PUSH2 0x1703 JUMP JUMPDEST PUSH1 0x20 DUP3 ADD SWAP1 POP SWAP2 SWAP1 POP JUMP JUMPDEST PUSH0 PUSH1 0x20 DUP3 ADD SWAP1 POP DUP2 DUP2 SUB PUSH0 DUP4 ADD MSTORE PUSH2 0x1764 DUP2 PUSH2 0x172B JUMP JUMPDEST SWAP1 POP SWAP2 SWAP1 POP JUMP JUMPDEST PUSH0 PUSH2 0x1775 DUP3 PUSH2 0xEFD JUMP JUMPDEST SWAP2 POP PUSH2 0x1780 DUP4 PUSH2 0xEFD JUMP JUMPDEST SWAP3 POP DUP3 DUP3 ADD SWAP1 POP DUP1 DUP3 GT ISZERO PUSH2 0x1798 JUMPI PUSH2 0x1797 PUSH2 0x15A6 JUMP JUMPDEST JUMPDEST SWAP3 SWAP2 POP POP JUMP JUMPDEST PUSH32 0x747820616C726561647920617070726F76656400000000000000000000000000 PUSH0 DUP3 ADD MSTORE POP JUMP JUMPDEST PUSH0 PUSH2 0x17D2 PUSH1 0x13 DUP4 PUSH2 0x1235 JUMP JUMPDEST SWAP2 POP PUSH2 0x17DD DUP3 PUSH2 0x179E JUMP JUMPDEST PUSH1 0x20 DUP3 ADD SWAP1 POP SWAP2 SWAP1 POP JUMP JUMPDEST PUSH0 PUSH1 0x20 DUP3 ADD SWAP1 POP DUP2 DUP2 SUB PUSH0 DUP4 ADD MSTORE PUSH2 0x17FF DUP2 PUSH2 0x17C6 JUMP JUMPDEST SWAP1 POP SWAP2 SWAP1 POP JUMP JUMPDEST PUSH32 0x6E6F7420656E6F7567682070656F706C65206167726565207468697320747261 PUSH0 DUP3 ADD MSTORE PUSH32 0x6E73616374696F6E000000000000000000000000000000000000000000000000 PUSH1 0x20 DUP3 ADD MSTORE POP JUMP JUMPDEST PUSH0 PUSH2 0x1860 PUSH1 0x28 DUP4 PUSH2 0x1235 JUMP JUMPDEST SWAP2 POP PUSH2 0x186B DUP3 PUSH2 0x1806 JUMP JUMPDEST PUSH1 0x40 DUP3 ADD SWAP1 POP SWAP2 SWAP1 POP JUMP JUMPDEST PUSH0 PUSH1 0x20 DUP3 ADD SWAP1 POP DUP2 DUP2 SUB PUSH0 DUP4 ADD MSTORE PUSH2 0x188D DUP2 PUSH2 0x1854 JUMP JUMPDEST SWAP1 POP SWAP2 SWAP1 POP JUMP INVALID LOG2 PUSH5 0x6970667358 0x22 SLT KECCAK256 0xB1 0xEA 0xEB 0xAC 0xAD DIV SSTORE SELFDESTRUCT 0xA5 DUP8 0xE1 BYTE SAR DUP6 SAR 0xB3 CALLDATASIZE SWAP10 SWAP3 0x2F 0xBA SWAP1 0xEF 0xB4 SWAP3 CODECOPY 0x21 CHAINID JUMPDEST LT PUSH18 0xFA64736F6C634300081B0033000000000000 "
				},
				"gasEstimates": {
					"creation": {
						"codeDepositCost": "1269200",
						"executionCost": "infinite",
						"totalCost": "infinite"
					},
					"external": {
						"approve(uint256)": "37484",
						"approved(uint256,address)": "3070",
						"execute(uint256)": "infinite",
						"getApproveCount(uint256)": "infinite",
						"getBalance()": "357",
						"isOwner(address)": "2922",
						"owners(uint256)": "4944",
						"required()": "2513",
						"revoke(uint256)": "37479",
						"submit(address,uint256,bytes)": "infinite",
						"transactions(uint256)": "infinite"
					}
				},
				"methodIdentifiers": {
					"approve(uint256)": "b759f954",
					"approved(uint256,address)": "8253951a",
					"execute(uint256)": "fe0d94c1",
					"getApproveCount(uint256)": "92493b28",
					"getBalance()": "12065fe0",
					"isOwner(address)": "2f54bf6e",
					"owners(uint256)": "025e7c27",
					"required()": "dc8452cd",
					"revoke(uint256)": "20c5429b",
					"submit(address,uint256,bytes)": "14de327f",
					"transactions(uint256)": "9ace38c2"
				}
			},
			"storageLayout": {
				"storage": [
					{
						"astId": 5,
						"contract": "contract/MultiSigWallet.sol:MultiSigWallet",
						"label": "owners",
						"offset": 0,
						"slot": "0",
						"type": "t_array(t_address)dyn_storage"
					},
					{
						"astId": 9,
						"contract": "contract/MultiSigWallet.sol:MultiSigWallet",
						"label": "isOwner",
						"offset": 0,
						"slot": "1",
						"type": "t_mapping(t_address,t_bool)"
					},
					{
						"astId": 11,
						"contract": "contract/MultiSigWallet.sol:MultiSigWallet",
						"label": "required",
						"offset": 0,
						"slot": "2",
						"type": "t_uint256"
					},
					{
						"astId": 24,
						"contract": "contract/MultiSigWallet.sol:MultiSigWallet",
						"label": "transactions",
						"offset": 0,
						"slot": "3",
						"type": "t_array(t_struct(Transaction)20_storage)dyn_storage"
					},
					{
						"astId": 30,
						"contract": "contract/MultiSigWallet.sol:MultiSigWallet",
						"label": "approved",
						"offset": 0,
						"slot": "4",
						"type": "t_mapping(t_uint256,t_mapping(t_address,t_bool))"
					}
				],
				"types": {
					"t_address": {
						"encoding": "inplace",
						"label": "address",
						"numberOfBytes": "20"
					},
					"t_array(t_address)dyn_storage": {
						"base": "t_address",
						"encoding": "dynamic_array",
						"label": "address[]",
						"numberOfBytes": "32"
					},
					"t_array(t_struct(Transaction)20_storage)dyn_storage": {
						"base": "t_struct(Transaction)20_storage",
						"encoding": "dynamic_array",
						"label": "struct MultiSigWallet.Transaction[]",
						"numberOfBytes": "32"
					},
					"t_bool": {
						"encoding": "inplace",
						"label": "bool",
						"numberOfBytes": "1"
					},
					"t_bytes_storage": {
						"encoding": "bytes",
						"label": "bytes",
						"numberOfBytes": "32"
					},
					"t_mapping(t_address,t_bool)": {
						"encoding": "mapping",
						"key": "t_address",
						"label": "mapping(address => bool)",
						"numberOfBytes": "32",
						"value": "t_bool"
					},
					"t_mapping(t_uint256,t_mapping(t_address,t_bool))": {
						"encoding": "mapping",
						"key": "t_uint256",
						"label": "mapping(uint256 => mapping(address => bool))",
						"numberOfBytes": "32",
						"value": "t_mapping(t_address,t_bool)"
					},
					"t_struct(Transaction)20_storage": {
						"encoding": "inplace",
						"label": "struct MultiSigWallet.Transaction",
						"members": [
							{
								"astId": 13,
								"contract": "contract/MultiSigWallet.sol:MultiSigWallet",
								"label": "to",
								"offset": 0,
								"slot": "0",
								"type": "t_address"
							},
							{
								"astId": 15,
								"contract": "contract/MultiSigWallet.sol:MultiSigWallet",
								"label": "value",
								"offset": 0,
								"slot": "1",
								"type": "t_uint256"
							},
							{
								"astId": 17,
								"contract": "contract/MultiSigWallet.sol:MultiSigWallet",
								"label": "data",
								"offset": 0,
								"slot": "2",
								"type": "t_bytes_storage"
							},
							{
								"astId": 19,
								"contract": "contract/MultiSigWallet.sol:MultiSigWallet",
								"label": "executed",
								"offset": 0,
								"slot": "3",
								"type": "t_bool"
							}
						],
						"numberOfBytes": "128"
					},
					"t_uint256": {
						"encoding": "inplace",
						"label": "uint256",
						"numberOfBytes": "32"
					}
				}
			},
			"userdoc": {
				"events": {
					"Deposit(address,uint256)": {
						"notice": "以太坊的事件（Event）机制是一种在智能合约中定义和触发事件的方式，用于实现合约与外部世界的通信和提供交易的可追溯性。 事件机制可以让智能合约在特定条件满足时触发事件，并将相关信息记录在以太坊区块链上的日志中。"
					}
				},
				"kind": "user",
				"methods": {},
				"notice": "多签钱包DEMO",
				"version": 1
			}
		}
	}
}